:020000040040BA
:10000000701600207D2040007920400079204000BB
:100010007920400079204000792040000000000055
:1000200000000000000000000000000079204000F7
:10003000792040000000000079204000CD0E4000F3
:10004000792040007920400079204000792040004C
:10005000792040007920400079204000792040003C
:10006000792040007920400079204000E91C4000C0
:10007000FD1C4000111D4000792040007920400007
:10008000792040007920400079204000792040000C
:1000900079204000F10E4000792040007920400096
:1000A00079204000792040007920400079204000EC
:1000B000792040007920400079204000FD0E40006A
:1000C0007920400010B5054C237833B9044B13B1A7
:1000D0000448AFF300800123237010BD8C09002079
:1000E00000000000D0A3400008B5064B1BB1064835
:1000F0000649AFF300800648036813B1054B03B10E
:10010000984708BD00000000D0A3400090090020DF
:10011000D0A340000000000010B50446104B9847E3
:1001200080232360636843F001036360636843F0E6
:1001300010036360636823F080036360204600213E
:10014000084B9847636823F002036360636823F0F9
:100150000403636020460021034B984710BD00BF95
:10016000190B4000290B4000410B4000F8B5054633
:100170000C46164618461449144B9847074628461D
:10018000216800221346DFF85CC0E047284621685A
:1001900008220F4B984728462168FAB20D4B984722
:1001A0002846216808220C4B984728462168720887
:1001B0000A4B984786F001022846216802F00102A6
:1001C000074B9847F8BD00BF006CDC02250C4000CF
:1001D000110C40003D0C4000CD0B40008D0B400049
:1001E000AD0B4000550C400008B5436813F0040FF8
:1001F00005D009680F290BD8064B984708BD0B6836
:10020000032B05D8012202FA03F1C943014B984799
:1002100008BD00BF290B40004FF400434360704706
:100220002DE9F04F83B00B20DFF894B0D8471E4C77
:1002300020464FF400410A22DFF888A0D0471B4B2C
:10024000009320460B214FF400427923DFF8789089
:10025000C847174F4FF40068C7F8008020460B21AD
:100260000022144EB04720464FF40041124DA847DB
:100270000B20D84720464FF480310A22D0470F4B3D
:10028000009320460B214FF480327923C847C7F8EA
:10029000008020460B210022B04720464FF48031D9
:1002A000A84703B0BDE8F08F000E0E40E90F4000F4
:1002B00000E100E0251D4000091A4000091040003F
:1002C000991E4000D1184000AD1C40002DE9F04FB0
:1002D00083B00B20DFF894B0D847204CDFF890A013
:1002E000CDF800A020460B2104220023DFF88490E3
:1002F000C8471B4F4FF40068C7F8008020460B2109
:100300000022184EB04720460421174DA8470B2065
:10031000D847CDF800A020460B2108220023C8476B
:10032000C7F8008020460B210022B0472046082154
:10033000A8470B20D847CDF800A020460B2110225B
:100340000023C847C7F8008020460B210022B04791
:1003500020461021A84703B0BDE8F08F000E0E40E4
:1003600000E100E0251D4000091A4000991E4000F0
:1003700011124000AD1C40002DE9F04F89B08346BA
:100380001F203B4B98473B4D284600213A4CA04745
:1003900028460121A04728460321A047374B009358
:1003A00000240194364B029328466946354B984702
:1003B000ADF8144001278DF816704FF00B0ACDF8F8
:1003C00010A04FF0C809CDF81C90069408AE46F86E
:1003D000144D28463146DFF8C080C04728462146E4
:1003E0002246294B9847ADF814408DF81670CDF889
:1003F00010A0CDF81C900694039728463146C047BC
:10040000284639462246214B9847ADF814408DF8CE
:100410001670CDF810A0CDF81C9006944FF003098B
:10042000CDF80C9028463146C0472846494622461A
:10043000164B9847164B4FF00042C3F88020C3F884
:10044000802183F81F431A6028462146114CA0479B
:1004500028463946A04728464946A0475C460FCE65
:100460000FC433682360584609B0BDE8F08F00BF61
:10047000991E400000000240C91F400000093D00D5
:10048000006CDC021D1F4000D91F4000E51F40002A
:1004900000E100E0BD1F40005D1F400070B5054653
:1004A00014461E460020114B984728201421104A5C
:1004B000104B9847104821462A4628230F4CA04746
:1004C0000F4831462A463C23A0470E4804992A4645
:1004D0005023A0470C4805992A466423A0470B489F
:1004E0009DF818102A467823A04770BD35074000B4
:1004F0005C964000650A4000689640007D0D400013
:10050000709640007C96400088964000949640008B
:1005100070B483B0C0F11100102834BF0646102615
:10052000002E08BF012600210F4D4FF40054182063
:100530006C630190019B5A1E0192002BFAD12C632F
:100540000190019B5A1E0192002BFAD101318E427B
:10055000EED84FF400330193019B5A1E0192002BF9
:10056000FAD103B070BC704700120E4082B04FF455
:100570000052064B5A634FF400330193019B5A1EFD
:100580000192002BFAD102B0704700BF00120E405A
:1005900082B000230193019B984211D90021094A9E
:1005A0000191019B934205D8019B01330193019B6B
:1005B0009342F9D9019B01330193019B8342EFD30D
:1005C00002B070479F86010030B40468AF2C84BF2E
:1005D000AF2404601468AF2C84BFAF2414600C688F
:1005E000DB2C84BFDB240C601C68DB2C84BFDB2489
:1005F0001C6004681568AC4284BF056014600A681A
:100600001868824284BF08601A6030BC704700BF1F
:1006100070B506460B4C2046022100220A4DA84721
:10062000012323601C20094B9847204631460222B3
:100630000023074EB0470221216020468022A847B0
:1006400070BD00BF00800040110C4000391A40000E
:10065000550B400038B50546074C012323601C208C
:10066000064B98472046294602220023044DA847FE
:100670000223236038BD00BF008000401D1A4000E7
:10068000550B400010B50C46024B98472046024BD4
:10069000984710BD11064000550640002DE9F04175
:1006A00082B005460C46F1B10122104B1A601C20A5
:1006B0000F4B984700230193019B9C4210D9DFF810
:1006C0002C8002270B4E019B404635F813103A460A
:1006D0000023B047019B01330193019B9C42F2D858
:1006E0000222024B1A6002B0BDE8F0810080004097
:1006F0001D1A4000550B4000034BDA699A61012234
:10070000024B1A70704700BF00800040080B0020A9
:1007100008B5072041F21701014B984708BD00BFFB
:100720008506400008B507200021014B984708BD09
:100730008506400000F47C4100F478031B0A43EA7C
:100740005111C0F3C4000143044A931E02F5AF7275
:1007500023F8021F9342FBD1704700BFA809002075
:10076000F8B506460D461F46013A11183620C9B2A3
:10077000064CA0473720F1B2A047013F7919382035
:10078000C9B2A0473920E9B2A047F8BD85064000AC
:1007900038B50D46C1B22020024CA0472120E9B255
:1007A000A04738BD850640002DE9F04385B081465D
:1007B0004FF0020804AF47F8048D1D205E4CA0479F
:1007C00040465E4EB0471D205D4B98471420B04711
:1007D0001D20A0473220B0475A4CC4F80080802327
:1007E00023604FF080732360574B4FF40012C3F81F
:1007F0008020C3F88021002583F815531A60204615
:10080000524B98470095204639462A46504BDFF810
:100810005CC1E047204639464E4B98470127276088
:1008200067614D4B984738464FF48E714B4CA0474B
:1008300040464FF48071A047032041F23001A047A9
:10084000082040F60801A0470C203946A0470F2099
:1008500040F60121A0472020B021A0472120DC2123
:10086000A04710204FF42061A047112041F2380129
:10087000A0473220B047122041F22111A047132097
:100880004E21A047142046F26F71A0473020294620
:10089000A0473120DB21A04732202946A047332042
:1008A0002946A0473420DB21A04735202946A04710
:1008B0003620B021A04737202946A0473820DC2128
:1008C000A04739202946A04750202946A04751205B
:1008D00040F20A61A047522040F60A51A047532037
:1008E00040F20331A047542040F60D21A047552087
:1008F00040F60621A04756202946A047572040F23F
:100900000331A04758202946A04759202946A0472F
:1009100028462946D9F80020D9F80430104CA047C1
:10092000D9F808000F4B9847284629460E4B9847A0
:10093000284605B0BDE8F0831D1A4000910540002F
:10094000391A40000080004000E100E01901400039
:1009500020BCBE00E901400025074000850640009C
:100960006107400035074000910740006D014000DD
:1009700008B5AF280ED8DB290ED880B289B2074B54
:1009800098472220064B9847064B1888064B9847F5
:10099000002008BD012008BD012008BD91074000CE
:1009A00011064000A8090020550640002DE9F0413D
:1009B00084B0039002910192009303A802A901AAB6
:1009C0006B46214CA047039A029B01994D1C00994C
:1009D0004C1C10461946AA1AE31A1C4CA047BDF835
:1009E0000C00BDF808101A4B98472220194B984765
:1009F000029B009AD21A019B03F10108039BC3EBEF
:100A0000080802FB0888144CA4FB0834E40907D04A
:100A1000124FB026124D38463146A847013CFAD154
:100A20000D49A1FB0831C909B0240C4804FB118110
:100A30000B4B9847002001462246DC23034CA0477D
:100A400004B0BDE8F08100BFC90540006107400067
:100A50009107400011064000A38B2EBAA809002080
:100A60009D0640002DE9F04F87B004908B46137827
:100A7000002B4AD003920290254AA2F26B220592E3
:100A8000DFF890900A2B04D10BF1100B049B02931A
:100A900035E003EB83039B00A3F27F261C4A164438
:100AA000059A1A440192DDF80880072437460BEBBB
:100AB000040A3D4616F8013C234113F0010F03D010
:100AC0004046C4EB0A01C847013CB4F1FF3FF0D1F6
:100AD00007240BF10F072B78234113F0010F02D0ED
:100AE0004046391BC847013C012CF4D1023608F1BD
:100AF0000108019B9E42D8D1029A0C320292039ABD
:100B000012F8013F0392002BBCD107B0BDE8F08F73
:100B1000A09640007109400008B51520014B984788
:100B200008BD00BF991E4000436823F47023436052
:100B30004368090401F470210B434360704700BF10
:100B4000436823F07F434360436843EA01614160A7
:100B5000704700BF30B443F6992401E0013C11D046
:100B6000056915F0020FF9D0446814F0020F06D0A1
:100B7000120402F4702211430BB141F08071C16084
:100B8000002000E0012030BC704700BF32B100EB14
:100B90008100036B43F001030363704700EB8100A6
:100BA000036B23F001030363704700BF32B100EB16
:100BB0008100036B43F002030363704700EB810085
:100BC000036B23F002030363704700BF042A0AD1BA
:100BD00000EB8100036B23F008030363036B43F016
:100BE00004030363704752B900EB8100036B23F0E9
:100BF00008030363036B23F0040303637047082AAD
:100C000005D100EB8100036B43F0080303637047D9
:100C100000EB81010B6B23F0F0030B630B6B1A43AA
:100C20000A637047431E1944B1FBF0F0431EFE2BCC
:100C300094BF80B24FF6FF7000B2704700EB8101A5
:100C40000B6B23F47F430B630B6B43EA02220A63B3
:100C5000704700BF00EB8101086B80B20863086B2E
:100C600040EA036343EA02420A637047F0B583B087
:100C700005460C4600230193184B984207D11F46A6
:100C8000174E38462146B0470028FAD117E0154BD9
:100C9000984207D11E46124D30462146A8470028EB
:100CA000FAD118E0104B984209D11E460F4D30463C
:100CB00001A9A8470028FAD1019B23700BE00C4B37
:100CC0009D4208D11E46094D304601A9A84700287B
:100CD000FAD1019B237003B0F0BD00BF00060E40A7
:100CE0003920400000080E400040024061204000D2
:100CF0000080024070B50C461A4B984207D11E4640
:100D0000194D30462146A8470028FAD120E0174B5C
:100D1000984207D11E46144D30462146A847002868
:100D2000FAD117E0124B984207D11E46114D3046BA
:100D30002146A8470028FAD10EE00F4B98420DD16A
:100D40001E460C4D30462146A8470028FAD107E040
:100D5000012070BD012070BD012070BD002070BD5C
:100D6000012070BD00060E402920400000080E4002
:100D7000004002404D204000008002402DE9F0413B
:100D800086B080460F4615461C466FF07F400D4EDC
:100D9000B04728462146B02204F11203DFF834C0E0
:100DA000E04701A8084942463B46084FB8470020A3
:100DB000B0472846214601AA054B984706B0BDE832
:100DC000F08100BF35074000209E40008D33400079
:100DD000650A4000AD09400030B585B016484FF4B3
:100DE000C0614FF00062154B98470820144DA8478A
:100DF000144C154B1C60154A154B1A60154A164BBE
:100E00001A60164B01934FF4E13302934FF40063E1
:100E100003930820A847204601A9114B9847114D7C
:100E20002B6898680021104CA0472B685868002157
:100E3000A04705B030BD00BF000E0E40791B40003A
:100E4000991E400000060E40640E0020F50C400084
:100E5000600E00206D0C40005C0E0020006CDC0277
:100E6000F11F4000180500207D3240002DE9F041BF
:100E70000F4CB0272760DC2666600025A5606FF068
:100E80007F48C4F80C800B4B984720460A4B984784
:100E900008200A4B98470A4B98474046094B984709
:100EA000284629463A463346074CA047BDE8F0811C
:100EB0000C0B00206D054000A90740001105400003
:100EC0001107400035074000AD0940000122054BE5
:100ED0001A70054B1988054A12880A4492B21A8082
:100EE000704700BF770B00203C0B0020E40000207F
:100EF00008B5014B984708BDF906400008B53148D0
:100F0000314B984710F0010F5BD0304B1B68013319
:100F1000B3F57A7F02D02D4A136008BD00222B4B17
:100F20001A602B4B1A6801321A602A4B1B7833B1B6
:100F30000122294B1A700022264B1A7002E000226F
:100F4000254B1A70254B1B78012B18D1244A127897
:100F50005AB1244A1268C72A03D8013221490A60CB
:100F60000DE000211E4A117009E01E4A12681AB1F4
:100F7000013A1C490A6002E00121194A1170144A21
:100F80001268142A1DD10021114A1160022B18D1B8
:100F9000134B1B785BB1134B1B68C72B03D814335F
:100FA000104A136008BD00220D4B1A7008BD0D4B8E
:100FB0001B681BB1143B0B4A136008BD0122084B90
:100FC0001A7008BD00000240D51F40004C0B0020E5
:100FD000280B0020750B00206C0B0020300B00202C
:100FE000E6000020640B00200B2809D1B1F5004F6A
:100FF00006D1044B1B68C72B02D80133014A13608A
:10100000704700BF640B00200B2808D1B1F5803F6A
:1010100005D1034B1B6813B1013B014A13607047B4
:10102000640B002070B5674BDA6BC2F3800266492F
:101030000A60D96BC1F3C00164480160DB6BC3F384
:10104000001363480360490041EA83031A43614B7C
:101050001A70614B1B7813B1D2435E4802705D4B2E
:101060001B7803F00703013B052B00F28680DFE8C5
:1010700003F019452F70035B0122584B1A70584B2F
:101080001A68584B1A600023574A1360574A136076
:101090000522574B1A600622564B1A601522564BF2
:1010A0001A606AE002224D4B1A704D4B1A684D4B84
:1010B0001A6000234C4A13604C4A136005224C4BC3
:1010C0001A6015224B4B1A6006224B4B1A6054E0F3
:1010D0000322424B1A700023424A1360404A1168AF
:1010E000414A1160414A13600622414B1A601522A1
:1010F000404B1A600522404B1A603EE00422374BF9
:101100001A700023374A1360354A1168364A116055
:10111000364A13600522364B1A600622354B1A6098
:101120001522354B1A6028E005232C4A1370002243
:101130002C490A602C490A60294A11682B4A11601F
:101140002B4A136015222B4B1A6006222A4B1A6079
:1011500013E00623214A1370002222490A60224923
:101160000A601F4A1168214A1160214A1360152242
:10117000204B1A600522204B1A60204C002323606C
:101180001F4E30462146174B1A681E4DA8470123B3
:10119000236030462146144B1A68A8470323236076
:1011A00030462146114B1A68A847114B1868164C57
:1011B000A047104B1868A0470F4B1868134B98476F
:1011C00070BD00BF000E0E401C0B0020340B002031
:1011D000380B0020500B0020740B0020760B0020F1
:1011E000640B0020540B0020240B0020580B00201F
:1011F000700B0020440B0020400B0020480E002004
:10120000000002408D1F40001D1A4000391A4000A6
:1012100008B50B280BD1042903D0082901D01029C7
:1012200005D1034B9847034B1A7801321A7008BD59
:1012300025104000750B00202DE9F04F8FB09C4B1E
:1012400098479C4B98479C4B98479C4B98479C4889
:101250009C4B98470D209C4B98479C4B98470324E8
:1012600000940723019300250295284602210122BC
:101270001023974EB0470420012112222346954E99
:10128000B0470520012112222346B04792489349D6
:10129000934B9847934A04235370142313710521E9
:1012A0005171D57093700123137094718E4B1B880C
:1012B0004BF6803202FB03F3B3F1807F80F0F681BE
:1012C00023F07F435A1E894B5A60F021884A82F8E6
:1012D00023109D6007221A600026864B1E60864BF5
:1012E00098478648864B9847864B984706A8864B72
:1012F0009847864C06AD0FCD0FC42B682360142091
:10130000834B18602821834B1960834B1A68834BE9
:101310001B68834C24680094824C24680194824C9E
:1013200024780294814CA047059604967A4F804C0D
:101330003B6880490A689A420FD0642101FB03F39D
:101340007D4AA2FB03217D488909714B1A68282335
:101350007B4DA8473B6877490B607A4B1A78724BF4
:101360001B789A4211D1784B1A686C4B1B689A42D1
:101370000BD1764B1A686A4B1B689A4205D1744BA5
:101380001A68684B1B689A4231D0DFF890A1604E12
:101390007048DAF8001032683C23694DA847DFF83E
:1013A00080916D48D9F8001032685023A847DFF8C3
:1013B00074816A48D8F8001032686423A847DFF8BF
:1013C00068B167489BF8001032687823A8479BF8FB
:1013D00000205C4B1A70DAF800205B4B1A60D9F8D9
:1013E00000205A4B1A60D8F80020594B1A605D4B08
:1013F0001B781BB93B680BB15B4B98470EA90023C8
:1014000001F8013D59485A4B9847C0B2002840F0B6
:10141000E3809DF83730742B1AD13B68642202FBBD
:1014200003F3454AA2FB032152488909344DA847DA
:1014300051483A4B1968A8475048394B1968A84792
:101440004F48384B1968A8474E48374B1978A8477A
:101450009DF83730612B0FD13B68C72B9CBF013300
:101460003B603B68642202FB03F3334AA2FB032187
:1014700040488909224B98479DF83730732B0ED18D
:101480003B680BB1013B3B603B68642202FB03F30A
:10149000294AA2FB032137488909194B98479DF82F
:1014A0003730642B77D10122374B1A706EE000BFC2
:1014B000F9164000F117400021024000CD02400023
:1014C00050140E4019024000991E40001D27400094
:1014D000FD2D40005925400081224000912C400004
:1014E00059274000F40B0020E400002010E000E049
:1014F00000ED00E0040C0020D90D4000289E4000C3
:10150000C13140006D0E400079034000480E0020BC
:10151000400E0020440E0020640B00201C0B002015
:10152000340B0020380B0020760B00209D04400077
:101530003C0B0020680B00201F85EB516896400093
:101540007D0D4000200B00205C0B0020600B002074
:101550002C0B0020709640007C964000889640003E
:10156000949640006C0B00202510400000060E40B1
:1015700039204000BCA04000D4A04000E8A04000BA
:10158000FCA0400010A14000300B002049484A4D0B
:10159000A8474A48A8479DF83730662B07D1022252
:1015A000474B1A704748444DA8474448A8479DF800
:1015B0003730702B04D10023414A13703B600BE09D
:1015C000692B09D1404B1A7882F001021A703F480A
:1015D000394DA8473948A8473D4B1B7813F0FF0FFA
:1015E0000BD000223A4B1A703A4D208880B2A8479F
:1015F00000F4807080B20028F7D1374B93F8803028
:1016000013F0020F13D0049BB3B93B680BB1013B3D
:101610003B603B68642101FB03F3304AA2FB0321DA
:101620002F488909244B98470123049304E0049927
:10163000012908BF00210491274B93F8803013F053
:10164000040F14D0059ABAB93B68C72B9CBF01336D
:101650003B603B68642101FB03F3204AA2FB0321AA
:101660001F488909144B98470123059304E0059905
:10167000012908BF00210591174B93F88430194ABE
:1016800012789A423FF454AE164A1370164A1278F2
:1016900012B90121154A1170C82202FB03F3144A42
:1016A00082FB03121344DB113B6041E61148024BFD
:1016B000984711E624A14000C13140003CA1400000
:1016C000300B002064A14000740B00207CA140007E
:1016D000770B002025264000080C00201F85EB51C9
:1016E00094A14000510B00206C0B0020480B0020FF
:1016F00081808080ACA1400010B50E480E4B984709
:1017000000203E210D4B98470D4CA0470028FCD0EF
:101710000C4B98470C4A0D4B9A620D4CA047002881
:10172000FCD010200B4B98470B4B98470148024BBD
:10173000984710BD006CDC02A1000020151E40007F
:10174000691E4000791E4000013F072000040E4042
:10175000891E4000B11D40002D2140002DE9F041BF
:101760000C46904660B9002A0EDD8F18094E0A4DCE
:10177000306821462B6898470134BC42F8D106E016
:101780004FF0FF30BDE8F0810020BDE8F081404619
:10179000BDE8F081640E00205C0E00202DE9F041D0
:1017A0000E461546013802280FD892B10024DFF802
:1017B0003C800D4FD8F80000315D3B689847002809
:1017C0000ADB0134A542F5D10AE04FF0FF30BDE855
:1017D000F0810020BDE8F0814FF0FF30BDE8F081DE
:1017E0002046BDE8F08100BF600E0020640E00209E
:1017F00038B54FF40042304B5A600B202F4CA047B5
:101800000C20A0470D20A04717204FF060512C4C12
:10181000A0472E204FF06051A0472A4D0F202946A7
:10182000A04710202946A04702204FF02051A04792
:1018300003204FF02051A04704204FF02051A04733
:1018400020204FF00061A04721204FF00061A04709
:101850002E204FF08051A04705204FF04051A04767
:1018600006204FF04051A04715204FF04051A047AF
:1018700015484FF4C0614FF00062144B98470C209C
:101880004FF00061A0470D204FF00061A0470E20EF
:101890004FF00061A0471E204FF08051A0471C2050
:1018A0004FF06051A0471D204FF06051A0474D20E0
:1018B0004FF06051A04738BD50140E40991E4000B3
:1018C000551A400009000028000E0E40791B400008
:1018D000C0F8841052004FF40043B3FBF2F3013B15
:1018E000C3F30D03C0F88C30704700BF10B44264DE
:1018F000B1F1C05F2ED008D8B1F1006F14D0B1F1B2
:10190000805F1DD0002935D135E0B1F1205F32D0A4
:1019100003D8B1F1005F27D02CE0B1F1405F2AD0AD
:10192000B1F1605F27D025E0016F046FD343214000
:1019300019400167416F446F21400B40436719E034
:10194000036F13430367436F416F0B4023EA0203A6
:1019500043670FE0036F016F0B4023EA0203036745
:10196000436F1343436705E0036F13430367436FFC
:101970001343436742605DF8044B7047416412F0C3
:10198000010F14BF4166016612F00A0F14BF016215
:10199000416212F0020F02D0C0F8801004E012F091
:1019A000080F18BFC0F8841041610160704700BF84
:1019B00010B44164019C0CB1416600E001660BB1BA
:1019C000016500E041650AB1016300E04163016126
:1019D00001605DF8044B704712F0100F10D0C0F892
:1019E000B01012F0200F14BFC0F8D410C0F8D010FF
:1019F00012F0400F14BFC0F8C010C0F8C4107047F8
:101A0000C0F8B410704700BFC36C0164704700BFDA
:101A100041647047C06C7047806C7047430903F5A0
:101A2000001303F207735B0200F01F00012202FAA9
:101A300000F01863704700BF430903F5001303F279
:101A400007735B0200F01F00012202FA00F05863E6
:101A5000704700BF70B582B00D46440904F500140C
:101A600004F20774660201F0F044B4F1005F47D05D
:101A700009D8B4F1805F21D0B4F1C05F2FD0B4F1A8
:101A8000006F6FD109E0B4F1405F55D0B4F1605FF1
:101A900052D0B4F1205F44D064E000F01F00012474
:101AA000844030464FF000612246304B984715F095
:101AB000010F14BF74663466012054E000F01F006B
:101AC0000124844030464FF080512246274B9847EE
:101AD00015F0010F14BF74663466012043E000F076
:101AE0001F000124844030464FF0C05122461F4B56
:101AF000984715F0010F14BF74663466012032E078
:101B000000F01F000124844030464FF0005122466F
:101B1000164B984715F0010F14BF74663466012008
:101B200021E000F01F010124304604FA01F12A46A9
:101B30000F4B9847204616E000F01F01012405F0E6
:101B4000605205EA04030093304604FA01F1B2F151
:101B5000605F14BF00220122C5F38003054DA84732
:101B6000204600E0002002B070BD00BFED1840002C
:101B70007D194000B1194000F0B583B007460E460C
:101B8000154602F0F044B4F1005F38D009D8B4F142
:101B9000805F1CD0B4F1C05F25D0B4F1006F50D18C
:101BA00009E0B4F1405F3AD0B4F1605F37D0B4F1EE
:101BB000205F30D045E04FF000613246224B98471D
:101BC00015F0010F14BF7E663E6601203AE04FF02B
:101BD000805132461C4B984715F0010F14BF7E66AA
:101BE0003E6601202EE04FF0C0513246164B98471A
:101BF00015F0010F14BF7E663E66012022E04FF013
:101C000000513246104B984715F0010F14BF7E6605
:101C10003E66012016E00D4B9847012012E005F0CA
:101C2000605205F00103009338463146B2F1605F1F
:101C300014BF00220122C5F38003054CA0470120F8
:101C400000E0002003B0F0BDED1840007D19400019
:101C5000B11940002DE9F04104460E46104B98475B
:101C6000054620460F4B9847054017D00E4F07F109
:101C70000C046C3754F80C3CB3420AD154F8081CDD
:101C8000294206D023683046984754F8083C25EA94
:101C90000305BC4202D01034002DEBD1BDE8F08129
:101CA000151A4000191A40007C0B0020F8B50B4CA7
:101CB0002468062C10D80A4F2601BD19B9516A6054
:101CC000AB600699E960013404490C6011461A467C
:101CD000044B98470020F8BD0120F8BD780B002088
:101CE0007C0B0020D919400008B502480B21024B9B
:101CF000984708BD000E0E40551C400008B502482C
:101D00000C21024B984708BD00100E40551C4000A6
:101D100008B502480D21024B984708BD00120E403D
:101D2000551C40002DE9F84305460C4691461B4BD7
:101D30009847804628464FF0FF31194B9847284670
:101D4000184B9847E7B207F01F0301269E4063092E
:101D50009B0003F1604303F56143C3F88060C3F85F
:101D60008061002C09DA07F00F074FEA09195FFAC2
:101D700089F90D4A02F8079009E04FEA09195FFA5C
:101D800089F904F1604404F5614484F800931E600D
:101D900028464146054B9847BDE8F883191A40008C
:101DA000111A4000151A400014ED00E0091A400015
:101DB000174B1A6B22F07002104318639B6E13F0DE
:101DC000080F09D14FF40063114901E0013B19D01C
:101DD0008A6E12F0080FF9D00D4B1A6B22F0030235
:101DE00042F002021A63986E10F008000CD14FF412
:101DF0000063074901E0013B08D08A6E12F0080F2A
:101E0000F9D07047012070470020704701207047CB
:101E100000040E4038B111490B6A114A1A40114BA7
:101E200013430B6270470D4A136A23F45C1323F0CB
:101E3000030343F45C1343F00103090289B20B432B
:101E40001362936E13F0010FFBD0044A136A43F040
:101E50009B7343F480331362704700BF00040E404D
:101E6000FCFFC8FE02003701024B986E00F4803080
:101E7000704700BF00040E404FF00052014B9A62C1
:101E8000704700BF00040E40024B986E00F0020045
:101E9000704700BF00040E401F280DD8084B9A69F8
:101EA000012383401A40934208D0012303FA00F033
:101EB000034B1861002070470120704700207047D5
:101EC00000040E40F0B48CB007460E4601AC124D33
:101ED0000FCD0FC40FCD0FC495E8070084E80700AD
:101EE0006A46002352F8044FB6FBF4F4B4FBF7F44F
:101EF000B4F5807F03D901330B2BF3D104E00A2B17
:101F000005D844EA032004E04FF6FF7001E04FF6E5
:101F1000FF700CB0F0BC7047D0A1400070B5064611
:101F20000C46086840B189680B4B984705464FF648
:101F3000FF73984201D10EE00025606840B1A168AE
:101F4000054B98474FF6FF73984204D045EA004589
:101F50003560002070BD70BDC51E400010B40B6818
:101F60000C894A6802F00F0222438C7A42EA44222A
:101F700000EB4310C0F80022CB68C0F804320B69B4
:101F8000C0F8083200205DF8044B704710B40C68AC
:101F90000B6993420CD3CA6000EB4410D0F80032B6
:101FA00023F48063C0F80032C0F81022002001E062
:101FB0004FF6FF705DF8044B704700BF012303FA32
:101FC00001F14160704700BF012303FA01F1816014
:101FD000704700BFC0697047012303FA01F1016136
:101FE000704700BF012303FA01F14161704700BF50
:101FF00010B4AC2303600A684B68B2FBF3F31B090F
:102000005C1E4FF6FE7294420AD803628B684360EE
:1020100040F20223C0F8203150230360002000E08A
:1020200001205DF8044B7047436913F0020F1ABF9B
:10203000C161002001207047436913F0010F1DBFEB
:1020400083690B7000200120704700BF436913F0C3
:10205000020F1DBFC1F30801C161002001207047BC
:10206000436913F0010F05D08369C3F308030B60C4
:102070000020704701207047FEE700BF10B51E4BDF
:102080001E4A9A4203D01E4B1B4A9A4204D31D4B50
:102090001D4A9A420FD31AE01C4B1D4CE41A24F03F
:1020A000030404340023144814495A581A500433C2
:1020B000A342FAD1EBE7174B1749C91A21F00301E4
:1020C0001A1D1144002243F8042F8B42FBD1134AFE
:1020D00022F0604323F07F0311498B6002F16042DC
:1020E000B2F5C04F03D28A6842F000528A600D4BAD
:1020F00098470D4B9847FEE700000020D0A3400012
:102100008C0900206C0E00208C09002004000020A7
:102110008F09002088090020670E00200000400081
:1021200000ED00E07131400039124000394B1B6B6B
:1021300003F00303012B0FD013B1022B29D051E080
:10214000354B5B6913F0800F14BF4FF400424FF41E
:10215000FA42324B1A6045E02E4B1B6A13F0807F27
:1021600003D02F4A2D4B1A603CE02E4A2B4B1A60AD
:10217000284B1B6A03F07003102B02D0202B04D0D5
:1021800030E0294A254B1A602CE0254A234B1A607F
:1021900028E0204B1B6A13F0807F03D0204A1F4B9E
:1021A0001A6012E01F4A1D4B1A601A4B1B6A03F09B
:1021B0007003102B02D0202B04D006E01A4A174BD4
:1021C0001A6002E0164A154B1A60124B986A996A17
:1021D000124BC0F30A401A6800FB0222C9B2B2FBDC
:1021E000F1F21A600B4B1B6B03F07003702B07D1DD
:1021F0000A4B1A680D49A1FB020252081A60704787
:10220000044B196B054BC1F302111A68CA401A60DE
:10221000704700BF00040E4010140E40E80000207C
:10222000001BB70000093D0000127A00ABAAAAAA61
:10223000094B1B6813B9094A074B1A60064B1B6808
:102240001A180749914204DB1046034A10601846E9
:1022500070474FF0FF307047EC0B002070160020E5
:10226000FC5F00204FF0FF30704700BF4FF4005379
:102270004B600020704700BF01207047002070476E
:102280002DE9F04F89B0814600F080F98C4D002196
:102290002B780390012B07913AD08A4B8A4A186811
:1022A0005C68DF68D2F808B0B2F802E0B2F806C0A5
:1022B0004FEA1048D068260CD3F808A046EA074633
:1022C0004CEA004C4EEA0B47C2F80CC097601A6803
:1022D00048EA0A484FF0010E85F800E0C3F808808C
:1022E000DE6044EA02005960079101238B400340FD
:1022F0008B40079A0131134310290793F5D10798B2
:102300007049079A704B52000860002159601A60AA
:102310006C4C6D4B54F82970012053F829A000F043
:1023200039F9002F00F0FA8054F829306749684ADB
:10233000684D0B60684C136068482B602B60684BDD
:102340004FF0000827604646C4F800A0CDF814906E
:1023500007603C46C0F800A01F60C1F800A0C2F8AA
:1023600000A016F4005505D0564A136852681A4367
:102370002AD13DE0039800F00DF900BF012000F0E4
:1023800009F956485249C0F800A00F6000BF00BFCD
:1023900000BF544A01361378B6B20133DBB2012BC9
:1023A0000760C1F800A0137004D9022B02D0032BE0
:1023B00018BF15704C4B1B6814EA0308D1D0414B71
:1023C0001A685D68154315E0002314F0010F07D06B
:1023D0004648591C4FF4005520F81350CBB204E086
:1023E00012F0010F01D00133DBB264085208ECD1C6
:1023F00000252C46039800F0CDF8314A0023537095
:10240000002D56D0002C54D02F4A414610685268F7
:102410009E4642EA000C994618461A4635E011F0ED
:10242000010F1AD124E01CF0010F10D082420CD110
:102430002E484FEA590B11F0FE0F20F81B60019B4C
:1024400008BF4FF0010E104615E05FFA8BF0049BB9
:102450004FEA5C0C5FFA83F900E0019309F1010394
:10246000049300F1010BBCF1000FDCD1019B02E0F1
:1024700015F0010F01D00132D2B215F0010F01D0D9
:102480000133DBB249086D0801D00029C7D10C4ADD
:10249000BEF1010F537024EA080402D04FF0000887
:1024A00034E0002C08BF26460CBFA0464FF00008C1
:1024B0002CE0044A0023116852680A431FE000BF61
:1024C000F00B0020BC0D0020CC0D002034120E407B
:1024D00010120E4064120E4060120E4014120E4094
:1024E00030120E40EC0000203C120E40080C002080
:1024F0000798079A10F0010F18BFCBB25208079245
:10250000079A591C002AF3D10F4A5370012000F09A
:1025100041F8002C7FF425AFDDF814900A490B4BED
:102520004FF0000C81F802C053F829300849094ADD
:102530000B6024390B6003981360136000F02AF8D5
:1025400009B0BDE8F08F00BFF00B0020BC0D0020EB
:1025500034120E4064120E4010B50A4C03F003030F
:1025600001F0070194F800C043EAC101064B03EBF8
:10257000CC030CF1010C197184F800C0DA70987169
:10258000587110BDB90D0020980C0020EFF3108099
:10259000704700BF80F31088704700BF70B51E4CB5
:1025A0001E4B04EBC0041B78E57806461D411C4B0E
:1025B000EDB21B78032D98BF04258342617901D8C1
:1025C000002026E0237913F0C00F1BD1084600F04D
:1025D00015F9C5F387035B1B80B21BB202B29A42A6
:1025E00003DD237923F0040323716D422DB203B27E
:1025F000AB420EDC084B03EBC606337943F0040311
:10260000337106E023F004032A46237100F082FDB3
:1026100080B200B270BD00BF980C0020F40B002007
:10262000B90D0020384B70B55A8999894FF00004D4
:102630008A1A82181C815881002493B203E0013465
:10264000C83BE4B29BB2C72BF9D8304A2E48117868
:10265000838131B18C4202D90023137001E0091B40
:1026600011702B4B1B6803F07F639B08B3F1137F42
:1026700005D0B3F1147F02D0B3F1157F01D100F082
:10268000EDFA214B1B6903B1984700252E4606E061
:1026900000F0CEF8013640EA0505EDB2F6B21D4B6A
:1026A00030461B7821469E42F2D325B1164A118945
:1026B00041F48071118114480022114680F897205E
:1026C00080F8942080F8952080F8962015E0124C30
:1026D00011F804C01CF0180F0CD04FF0010C0CFACC
:1026E00000FC094800EBD20090F894404CEA040C3E
:1026F00080F894C00132D2B208319A4202F0070049
:10270000E5D1014B188970BDF40B0020B80D0020F5
:1027100040070E40B90D0020980C00200B4A38B538
:10272000002515700A4A0B4C1570042262700132A4
:1027300062710122142322700232A370A2712371EC
:10274000E57000F07DFA256138BD00BFB90D0020AD
:10275000DC0D0020F40B002070B504460E46002569
:1027600003E000F037F80135EDB2074B28461B783F
:10277000AB42F6D8054B4FF000023046C3F8A040FC
:102780005A8100F059FA70BDB90D0020F40B0020F9
:1027900030B50E4B0E4A1C8802EBC00191F805C003
:1027A00044F00204022502F830501C8000238B7094
:1027B0008A79634607E00648591C1B186FF07F00B2
:1027C00083F80001CBB29342F5D930BDFC0B002059
:1027D000980C002010B50446FFF7DAFF044B0F21D8
:1027E00003EBC4025170012203F8342010BD00BF76
:1027F000980C002020EAE07080B27047044B00F192
:10280000200133F8102033F81100801A00B270470D
:10281000080C0020054B03EBC00252799A1882F88D
:102820000011202203F8302001207047980C00206E
:102830002DE9F047994E044606EBC0058846FFF7A0
:10284000ADFE2B7995F803A003F0030101314AFA9C
:1028500001F116F83420C9B2012998BF0221C1EB59
:102860000A01042A87B21FFA81F900F0C68005D850
:10287000012A0DD0022A40F0D58143E0102A00F051
:102880003881202A00F0A581082A40F0CB817EE122
:10289000834BAE791B886A7943F400739BB21CE0CA
:1028A00068788049092802F1200004D931F81250D3
:1028B00021F810500DE031F810C031F81250AC453D
:1028C00002D90CF1FF3C02E005D20CF1010C21F819
:1028D00010C043F008030132D2B270494FEAC4007D
:1028E000B24200EB0105DBD96A786D48013AD2B2F9
:1028F00003806A7012B92046FFF74AFF6A4B012530
:102900009A7840E113F0040909D020460021FFF72E
:1029100081FF634B05461A8842F480526BE038B25F
:10292000FFF768FF50450BD35D4B04211A8885F8EB
:10293000029042F4806206F8341001251A8072E198
:10294000B8F1000F00F06E8196F82031002B40F0B6
:102950006981554A6FF07F03117956795B1A5FFAE6
:1029600083FA4F4BAF791A8886F080066B793EE088
:102970004C4803F1200C30F81C4030F813108C4206
:102980000BD24649591891F800514544EDB2B54271
:1029900081F8005129D301340CE0404913D959186A
:1029A00091F80051C8EB0505EDB2554581F800518D
:1029B0001BD8013C20F81C406FF07F0081F800011B
:1029C00042F0080211E0591891F80001802802D95C
:1029D000013881F800013149591891F8000110F0CF
:1029E000800F02D1013081F800010133DBB2BB421C
:1029F000BED92B4B00251A8015E138B2FFF7FAFE3D
:102A0000504572D3284B9B7886F82031AB7895F8E7
:102A100004A00133CAF3C20AAB70BAF1000F32D07E
:102A20000026354626E0A54222D099F80430C3F3AB
:102A3000C20353451CD12846FFF7B0FD08EBC40381
:102A400099F8031093F8039000B20FFA87FC411A2B
:102A5000C9EB0C02914208DC18F83530102B01D07C
:102A6000082B05D10D4B03EBC40300229A700126FD
:102A70000135EDB2DFF8248098F8213108EBC50963
:102A8000AB42D0D896B9084B5B787BB1044B01259B
:102A90001A8842F400621A8009E000BF980C0020F6
:102AA000FC0B0020080C0020F40B002000255F4ADE
:102AB0005F4902EBC403497898788842C0F0B3803C
:102AC0005C491879B1F800C04CF0030CA1F800C0C3
:102AD000102102F83410002210F0C00F5A7000F0DC
:102AE000A280204600F0D8F99DE02046FFF750FE76
:102AF00098E013F0040F09D020468021FFF78AFEEA
:102B00004C4B05461A8842F4805239E038B2FFF740
:102B100071FE4845474F08D23B88082243F4806342
:102B200006F8342001253B802BE0414B39885A7848
:102B3000AB7841F001019A42398001D90133AB7081
:102B40003A4B03EBC4031B7913F0C00F02D02046AD
:102B500000F0ECF9364BDD789DB1344B03EBC40348
:102B60005A78AA4204D2904483F80180002508E0F4
:102B70002046FFF72FFE2F4B01251A8842F40072E2
:102B80001A802B4B9A78294B83F820214BE0284B55
:102B90009B7886F82031AD78002D2CD038B2FFF725
:102BA00029FE4845234F08D93B88102243F00103F2
:102BB00006F8342000253B8004E03B88012543F4DF
:102BC00080633B80194B03EBC404A378013BA370E3
:102BD00029E06979891991F800210132D2B213F004
:102BE000040581F800210AD112F0800F03D01023D0
:102BF00006F8343017E02046FFF7CAFD13E00C4B0F
:102C00000C4F9B79934207D82046FFF7E3FD3B88A2
:102C1000012543F4805303E03B88012543F480639E
:102C20003B8000E000252846BDE8F087980C002096
:102C3000F40B0020FC0B002008B500B1804708BD54
:102C4000054B0022DA611A605A601A615A619A6073
:102C5000DA609A61704700BFBC0D002008B50A4BCE
:102C60009A680AB91B6823B1084B1B680BB1002096
:102C70009847054BDA680AB95B6823B1034B1B68B8
:102C80000BB10120984708BDBC0D0020940C00201A
:102C900070B5FFF7D5FF3F4A002314781846E400CB
:102CA0009C4616E03C49C9180D794A7915F0C00FC9
:102CB00005D1012111FA02F24CEA020C08E08979EF
:102CC00004E00125954001322843D2B28A42F8D966
:102CD0000833A342E6D10022134630FA03F111F083
:102CE000010F35D0012515FA03F62C491F2B51F899
:102CF000224046EA040441F8224006D05E19B5405D
:102D000045EA040441F8224006E0941C51F824509E
:102D100045F0010541F824509C1C1F2C1F4908D880
:102D2000012515FA04F451F822502C4341F82240B1
:102D30000AE0012504F01F0415FA04F4951C51F86B
:102D40002560344341F825400233DBB201210EE017
:102D50002CFA03F111F0010109D0012111FA03F657
:102D60000E4C54F8225046EA050544F8225001332F
:102D7000DBB2002A0CBF0A4600221F2BADD9074A3E
:102D8000074BD468106851689268DC60186059601D
:102D90009A6070BDB90D0020980C0020BC0D002079
:102DA000CC0D00202DE9F041114C124D9DF81C6016
:102DB00094F800C09DF818802D780F4F06F0030698
:102DC00003F0070307EBC50546EAC3034FEA4817BC
:102DD00004EB8C060CF10108B7712B7184F80080AC
:102DE000EA706871A97185F807C0BDE8F08100BF7D
:102DF000DC0D0020B90D0020980C002037B594465A
:102E00009DF818409DF81C501A46634600950194A1
:102E1000FFF7C8FF064A0749107801EBC0010B799C
:102E200001306FEA43636FEA53630B7110703EBD6C
:102E3000B90D0020980C002030B503468C4641B3F4
:102E40000132D2B201E0C2B28BB213F4004F0AD108
:102E5000501E5900002AF6D105E001324FEA4C0C11
:102E6000D2B21FFA8CFC1CF4004FF6D0002007E011
:102E7000634502D30130A3B280B2EAB24FEA5C0CE0
:102E80004100551ECCEB03042AB110F4004F88B268
:102E9000EED04FF6FF7030BD054B03EBC003DA797F
:102EA000044B03EB82039A7942F001029A71704756
:102EB000980C0020DC0D00202DE9F041194C00F1A8
:102EC000200600F12103054634F8161034F81300EB
:102ED0000C22FFF7B1FF6B1C01460C2234F81300E3
:102EE000FFF7AAFF05F12203074634F8161034F85D
:102EF00013000C22FFF7A0FFAB1C01460C2234F894
:102F00001300FFF799FF80462846FFF777FC34F857
:102F10001620054BC8EB0201D71B19859884DF8466
:102F2000BDE8F081080C0020DC0D00202DE9F04107
:102F3000744B754C03EBC003DD798046587904EB84
:102F400085039E79FFF7B8FFA28CE18C10B20FFACF
:102F500081FC6045238D0DDB18B2844592B21FFAC7
:102F600081FC99B202DB60460B4609E010466346DD
:102F700000240DE00FFA83FC604592B204DD88B2B4
:102F800011464FF4805403E098B24FF400541346B6
:102F900080B29BB24118A1EB4301C01A0C2280B24F
:102FA00089B2FFF749FF574B041903EBC8031B799C
:102FB000A4B203F0C003802B12D14FF69953E3184B
:102FC0009BB242F63132934200F29A8040F2327361
:102FD0009C4240F2908004F57844CE34A4B28BE059
:102FE00042F6FF774FF4405073095A1C4FF4807635
:102FF00000E076080133DBB2072BFAD9042A02D8A5
:10300000710089B203E0062A94BF3146710800229C
:10301000FFF712FF3B4B03EBC8031B7903F0C00320
:10302000402B17D1384A02EB85029388B3F5C05F75
:1030300008D3A3F5C0539BB2A3420BD904F5405467
:10304000A4B207E003F5C05189B2A1423CBF03F529
:10305000405393802C4A02EB8502937913F00101CF
:1030600005D023F0010300209371024604E013F021
:1030700002021CBF02460846234B03EB85039988D6
:103080005218944204DB9A799C8022F0020206E0F6
:103090000019884204DC9A799C8042F002029A71FD
:1030A000194B314603EB85039A883846B2F5405FE9
:1030B00024BFA2F540529A800022FFF7BDFE124BBA
:1030C000014603EB850398880022FFF7B5FE0F4BFE
:1030D000013EED18F6B2B04238BF064695F884308E
:1030E000F6B2B3420CD00A4B85F884601A8842F0DD
:1030F00004021A8004E0002442F29B17384673E76A
:10310000BDE8F081980C0020DC0D0020080C0020A8
:10311000FC0B002038B5044608461546FFF7CCFEE8
:10312000114B6D42988CB3F826C0198D0CEB000240
:10313000521892B213B2AB4206DC0C4B03EBC40440
:10314000237943F0040323710FFA8CF300B2834216
:10315000A8BF034609B28B42A8BF0B469BB2A2EBA5
:103160004302D31A18B238BDDC0D0020980C0020A1
:1031700070B50F4E0F4D761BB61007D0043D0024DE
:10318000013455F8043F9847A642F9D10A4E0B4D39
:1031900007F008F9761BB61008D0043D002401346E
:1031A00055F8043F9847A642F9D170BD70BD00BFE5
:1031B000B0A34000B0A34000B8A34000B0A34000BB
:1031C0000FB410B5074B82B004AC54F8042B186848
:1031D00023468168019401F0ABFB02B0BDE81040CA
:1031E00004B0704718050020F0B4840743D0541E83
:1031F000002A3ED0CDB2034603E0621E002C38D038
:10320000144603F8015B9A07F7D1032C2AD9CDB2F3
:1032100045EA05250F2C45EA054515D9A4F1100707
:103220003F0903F1100606EB07161A4615605560B4
:103230009560D5601032B242F8D104F00F04013726
:10324000032C03EB07130DD91E462246043A032A2A
:1032500046F8045BFAD8221F22F00302043213441A
:1032600004F003042CB1C9B21C4403F8011BA342AF
:10327000FBD1F0BC704714460346C6E700290CBFDB
:10328000022200224FF4806300F000B82DE9F041E3
:103290003C4D04462D68884616461F4615B1AB6B5B
:1032A000002B4FD0022E30D8002F2EDB284621468F
:1032B00003F072FAA38900226260A2611A0628D480
:1032C00023F083039BB2022EA3812DD0B8F1000F0F
:1032D0003CD0012E13D09BB203F008002A4A80B2E2
:1032E000EA63C4F80080C4F81080676178B113F015
:1032F000030F18BF0027A7600020BDE8F08143F04E
:1033000001037A42A381A261E5E74FF0FF30BDE8F7
:10331000F0812846216903F09FFBA389022E23F048
:1033200083039BB2A381D1D1002004F1430243F077
:10333000020300250121A381A56022602261616151
:10334000BDE8F081284603F043FAABE7002F08BF41
:103350004FF48067384603F079FE804628B1A38990
:1033600043F080039BB2A381B3E74FF4806003F086
:103370006DFE804618B9A3894FF0FF30D5E74FF4B2
:103380008067ECE718050020C56740000EB4F0B573
:103390009CB021AC54F8042B0E49064623464FF44A
:1033A000027E6FF0004508684FF6FF7702A902968B
:1033B00006960194ADF814E004950795ADF81670E3
:1033C00000F00AF8029B00221A701CB0BDE8F04021
:1033D00003B07047180500202DE9F04FC9B01093D5
:1033E0000C9191460D9003F0BDFD0068159004F01E
:1033F00061FF0C9C1890A3891E0603D52369002B3E
:1034000001F0818038ACA44608942B940025002458
:10341000CDE91645002311932D932C931A931993FC
:103420000E93664699F80030002B00F0F880252BAB
:1034300000F0F58009F1010201E0252B04D013789A
:1034400014460132002BF8D1C9EB04057DB12C9B49
:103450002D9A01332A44072BC6F8009075602D92EF
:103460002C9300F3C28008360E9828440E902378DF
:10347000002B00F0C280002394F801801A468DF8DA
:103480008F300F93099304F101094FF0FF340A9430
:1034900009F10109A8F12003582B00F2C583DFE8E8
:1034A00013F06A02C303C3037102C303C303C3035C
:1034B000C303C303C30314036603C3039D00C00017
:1034C000C30378027F027F027F027F027F027F02B6
:1034D0007F027F027F02C303C303C303C303C3038B
:1034E000C303C303C303C303C30390027103C30332
:1034F0007103C303C303C303C3036A03C303C30347
:103500007800C303C303C303C303C3035900C30346
:10351000C303AF02C303C303C303C303C303C30390
:10352000C303C303C303C303370348037103710316
:103530007103FF024803C303C3030803C303C502A7
:103540007C002003A303C303D902C3035F00C303AA
:10355000C303DE00DDF824C04CF0100CCDF824C00D
:10356000099CA20600F15483099CE30600F1BD8585
:10357000DDF824C01CF0400F00F0B785DDF840C036
:103580000025BCF800400CF1040C0123CDF840C02C
:103590008CE0099D45F010050995DDF824C01CF06C
:1035A000200340F02A83DDF824C01CF0100240F014
:1035B000A485DDF824C01CF0400300F09E85DDF8F2
:1035C00040C01346BCF800400CF1040C0025CDF8B7
:1035D00040C06BE00F9C109364420F94099D45F02E
:1035E0000405099599F8008052E70D980C992BAACB
:1035F00004F090FE40B938AE36E72D9B23B10D980C
:103600000C992BAA04F086FE0C9C0E98A38913F04B
:10361000400F18BF4FF0FF3049B0BDE8F08F4C4667
:1036200025E799F8008009F10100B8F12A0F01F0AF
:103630000C81A8F13003092B98BF002101F26B80A7
:1036400010F8018B01EB810103EB4101A8F130037C
:10365000092BF5D941EAE1710A9181461AE7099DE2
:10366000A14CAF061A948DF88F2040F1D181DDF87E
:1036700040C00CF1070323F0070303F10804109482
:10368000D3E90045DDF824C01CF0010F00F062848E
:1036900054EA050000F05E8430234CF0020C8DF8F3
:1036A00090308DF89180CDF824C002234FF0000AAD
:1036B0008DF88FA00A99002905DBDDF824C02CF0D5
:1036C000800CCDF824C054EA050040F0C5820A9968
:1036D000002940F0C182002B40F03884DDF824C07E
:1036E0001CF0010F00F0328448AF3023089D07F82A
:1036F000413DEC1BDDF828C000256445A8BFA44669
:10370000CDF82CC01495BAF1000F02D00B9D0135F5
:103710000B95099B13F00203129302D00B9D023507
:103720000B95DDF824C01CF0840CCDF84CC040F0A3
:1037300090820F9DDDF82CC0CCEB050BBBF1000F88
:1037400040F38782BBF1100F2D992C9ADFF8A0A1CE
:103750002CDD1B97304657461025CA460C9EA146C5
:103760000D9C06E0ABF1100BBBF1100F00F108004F
:1037700017DD01321031072A2D912C920760456028
:10378000F0DD204631462BAA04F0C4FD00287FF46A
:103790003BAFABF1100BBBF1100F2D992C9A38A851
:1037A000E7DC4C46D146BA461B9F064601320BEB7E
:1037B000010C072ACDF8B4C02C9286E8000C00F367
:1037C0001A849DF88FA00836BAF1000F0FD02C9BF9
:1037D0000CF1010C01330DF18F010122072BCDF803
:1037E000B4C02C9386E8060000F3A4830836129B2D
:1037F00073B12C9B0CF1020C013324A90222072B7C
:10380000CDF8B4C02C9386E8060000F38783083611
:10381000139D802D00F0CA820A9DC4EB050ABAF1FF
:10382000000F3BDDBAF1100F2C9B304D2BDD0A94BD
:1038300032464FF0100B2E4661460D9C0C9D06E063
:10384000AAF1100ABAF1100F02F1080217DD0133D4
:103850001031072B2D912C9382E84008F0DD204693
:1038600029462BAA04F056FD00287FF4CDAEAAF11C
:10387000100ABAF1100F2D992C9B38AAE7DC0A9C8C
:1038800035468C4616460133D444072BCDF8B4C0D8
:103890002C9386E8200400F335830836099DED0556
:1038A00000F124822C9BA4440133072BCDF8B4C033
:1038B000376074602C9300F30F830836099C63070C
:1038C00049D50F9D0B982C1A002C44DD102C2C9BF5
:1038D000DFF81CA02BDD574610256246DDF830804E
:1038E000DDF834A00BE000BF38A2400004A2400085
:1038F00058A24000103C102C06F1080615DD0133DB
:103900001032072B2D922C9337607560F2DD5046F4
:1039100041462BAA04F0FEFC00287FF475AE103C53
:10392000102C2D9A2C9B38AEE9DC9446BA46013314
:10393000A444072BCDF8B4C02C93C6F800A0746043
:1039400009DD0D980C992BAA04F0E4FC00287FF403
:103950005BAEDDF8B4C00E9C0B980F9DA842ACBFC7
:10396000241864190E94BCF1000F40F0C1820023AA
:103970002C9338AE56E599F80080002A7FF488AD84
:10398000202285E5099D45F00105099599F80080FB
:103990007EE5099D45F08005099599F8008077E559
:1039A0000024A8F130030F94214619F8018B01EB94
:1039B000810103EB4101A8F13003092BF5D90F91E7
:1039C00068E5DDF824C08DF88F204CF0100CCDF8A0
:1039D00024C0099CA50640F1B280109DE91D21F08C
:1039E0000701D1E900230831109114461D46002A31
:1039F00073F1000CC0F294839DF88FA0012359E667
:103A0000099DB64CAF068DF88F201A943FF52FAE66
:103A1000099DED0640F14384DDF840C00025DCF847
:103A200000400CF1040CCDF840C02BE6DDF824C0BA
:103A30008DF88F201CF0200F00F04084109C21682E
:103A40000E9CE5172B46109D224604351095C1E9C2
:103A50000023E7E4109C4FF0000A27688DF88FA040
:103A6000251D002F00F0E9850A9C3846002CC0F285
:103A70009B855146224603F08DFD002800F01386F9
:103A80000A9CC01BA042B8BF0446109524EAE47506
:103A9000CDF828A0CDF850A00B959DF88FA032E668
:103AA000DDF824C04CF0400CCDF824C099F800801B
:103AB000EEE499F800804B46B8F16C0F00F07F847B
:103AC000099D45F010050995E2E4109C109D2468BD
:103AD0002B1D002C0F94FFF67DAD109399F80080FC
:103AE000D6E4109BDDF824C0109D7D4804351C6889
:103AF0004FF0780830234CF0020C10958DF8903080
:103B0000CDF824C000258DF891801A900223CDE5D0
:103B1000109B109D1A680124002304359A460B94CB
:103B20008DF8B82010958DF88F300A9314932EAF2E
:103B3000EFE5099C8DF88F20A5063FF54EAFDDF827
:103B400024C01CF0100F40F0DF82DDF824C01CF010
:103B5000400F00F0D982DDF840C0BCF900400CF104
:103B6000040CE51722462B46CDF840C03FE799F8F4
:103B700000802B228CE4099D45F00805099599F8F1
:103B8000008085E4109D8DF88F20EB1D23F0070346
:103B900003F1080CCDF840C0D3E90045CDE9164546
:103BA000DDE9160104F00AFB0128DDE9160140F009
:103BB0005C830022002305F021FA002840F0638591
:103BC0009DF88FA003250B95099D464F25F0800594
:103BD000454B0024099500250A94B8F1470FD8BF3A
:103BE0001F46032414958EE5DDF824C04CF0200C0C
:103BF000CDF824C099F800804AE4109CE31D23F01E
:103C0000070303F108051095D3E9004500234DE5AE
:103C1000109DEB1D23F0070303F1080CD3E90045C9
:103C2000CDF840C0012341E58DF88F20B8F1000F99
:103C30003FF4E3AC00234FF0010C9A46CDF82CC0C2
:103C40008DF8B8808DF88F300A93149364462EAFA8
:103C50005FE5DDF8B4C0B7E5012B00F0EC80022B86
:103C60000DF1DF0318D1DDF868C0194604F00F002C
:103C700022091CF8000042EA05722B09087052EA7A
:103C800003000F4614461D4601F1FF31EED1089D99
:103C9000CDE91E23EC1B2DE5E00840EA457004F059
:103CA0000702E908303250EA010C1F461A70044638
:103CB0000D4603F1FF33EFD1099CCDE91C01E0076C
:103CC000394640F1C180302A00F0BE80089D1F4671
:103CD0003023EC1B01F8013C0CE500BF24A240009E
:103CE00038A2400018A2400014A24000B8F1650FAD
:103CF00040F3AD80DDE9160100220023CDF81CC0A1
:103D000005F072F9DDF81CC0002800F026812C9B1C
:103D1000AA4901330CF1010C0122072BCDF8B4C0E4
:103D20002C9386E8060000F3ED820836259B119C53
:103D3000A34203DB099DEC077FF5C0AD2C9B189CCB
:103D40000133159DA444072BCDF8B4C035607460D1
:103D50002C9300F33E830836119D6C1E002C7FF7D8
:103D6000ADAD102C2C9B964D40F3978110276246E9
:103D7000DDF83480DDF830A004E00836103C102C6B
:103D800040F38A8101331032072B2D922C9386E861
:103D9000A000F2DD404651462BAA04F0BBFA0028F1
:103DA0007FF432AC2D9A2C9B38AEE7E70F9D0B9831
:103DB000C0EB050ABAF1000F7FF72EADBAF1100F74
:103DC0002C9B7F4D2BDD129432464FF0100B2E466C
:103DD00061460D9C0C9D06E0AAF1100ABAF1100F85
:103DE00002F1080217DD01331031072B2D912C93BE
:103DF00082E84008F0DD204629462BAA04F08AFA22
:103E000000287FF401ACAAF1100ABAF1100F2D9925
:103E10002C9B38AAE7DC129C35468C4616460133AB
:103E2000D444072BCDF8B4C02C9386E8200400F3CB
:103E30000F820836F0E4002D08BF0A2C80F038818C
:103E4000303448AF07F8414D089DEC1B52E4119CFB
:103E5000012C2C9C40F3D28101340CF1010301228E
:103E6000072C2D9337602C94726000F3D8810836AC
:103E7000159DDDF8608001343560189D9844072C4D
:103E8000CDF8B4802C94756000F3D5810836DDE957
:103E900016010022002305F0A7F8119D002840F02C
:103EA000B9806B1E013401379844072C2C94CDF84F
:103EB000B4803760736000F3E2800836DDF864C0D8
:103EC0000134199DC44427AB072CCDF8B4C02C9401
:103ED00086E828007FF7F1AC0D980C992BAA04F026
:103EE00019FA00287FF490ABDDF8B4C038AEE5E4F1
:103EF0000D980C992BAA04F00DFA00283FF437AD69
:103F0000FFF782BB0D980C992BAA04F003FA002846
:103F10007FF47AABDDF8B4C038AEBFE40D980C99ED
:103F20002BAA04F0F7F900287FF46EABDDF8B4C0DB
:103F300038AE6DE40D980C992BAA04F0EBF900282B
:103F40007FF462ABDDF8B4C038AE50E40A9C38AF01
:103F5000FFF7D0BB0223FFF7A9BB259B002B40F343
:103F6000DD81119C149DDDF844A0AC42A8BF2C4615
:103F7000002CBA440BDD2C9BA4440133072BCDF855
:103F8000B4C0376074602C9300F31E830836149D10
:103F900024EAE4742C1B002C40F3D780102C2C9BBB
:103FA000074D40F3A3810A974FF010082F46624651
:103FB0002546DDF834B00C9C09E000BF54A2400057
:103FC00004A240000836103D102D40F38B810133D0
:103FD0001032072B2D922C9386E88001F2DD584693
:103FE00021462BAA04F096F900287FF40DAB2D9AF8
:103FF0002C9B38AEE7E70D980C992BAA04F08AF9B0
:1040000000287FF401AB9DF88FA0DDF8B4C038AE76
:10401000FFF7DABB6F1E002F7FF750AF102FAE4DAA
:1040200023DD43464FF0100ADDF83480DDF830B070
:1040300004E0103F102F06F1080615DD013410339F
:10404000072C2D932C9486E82004F2DD4046594637
:104050002BAA04F05FF900287FF4D6AA103F102F96
:104060002D9B2C9C38AEE9DC98460134B844072CD3
:10407000CDF8B4802C9486E8A0007FF71EAF0D9891
:104080000C992BAA04F046F900287FF4BDAADDF8AC
:10409000B4802C9C38AE11E794460133A444072B1E
:1040A000CDF8B4C02C93356074607FF706AC13E78D
:1040B0000DF1DF0B204629460A22002304F0EEFF13
:1040C00030328BF80020204629460A22002304F0D3
:1040D000E5FF04460D4654EA050C5F460BF1FF3B35
:1040E000E8D1089DEC1BFFF705BB109D01232C6850
:1040F000043510950025FFF7D9BA109D2C680435BA
:1041000010950025FFF7D2BA109D2C680435109544
:10411000E51722462B46002A73F1000CBFF66CAC63
:104120004FF02D0A644265EB45058DF88FA0012301
:10413000FFF7C0BA0D980C992BAA04F0EBF80028F1
:104140007FF462AADDF8B4C038AE149D259C2F44DC
:10415000119DAC4242DB099DE9073FD41198C7EBA2
:104160000A05041BAC42B8BF2546002D0BDD2C9B75
:10417000AC440133072BCDF8B4C0376075602C9385
:1041800000F34C82083625EAE575641B002C7FF7A6
:1041900095AB102C2C9B504D7FF77FAF10276246BC
:1041A000DDF83480DDF830A004E00836103C102C37
:1041B0007FF772AF01331032072B2D922C9386E8D4
:1041C000A000F2DD404651462BAA04F0A3F80028D7
:1041D0007FF41AAA2D9A2C9B38AEE7E7189D2C9BEA
:1041E000AC44159D01333560189D072BCDF8B4C044
:1041F00075602C9300F3F4810836AFE7099DEA0758
:104200003FF52AAE01340CF101080123072CCDF84B
:10421000B4802C94376073607FF74FAE2FE70D9812
:104220000C992BAA04F076F800287FF4EDA92D9BB9
:104230002C9C38AE1CE60D980C992BAA04F06AF859
:1042400000287FF4E1A9DDF8B4802C9C38AE1EE68E
:104250000D980C992BAA04F05DF800287FF4D4A9DE
:10426000DDF8B4C038AEFFF7D7BA03F0A7FF0028D7
:1042700040F0BB80099C194F194B4FF0030C24F000
:10428000800409940A90CDF82CC01490B8F1470F1F
:10429000D8BF1F4664469DF88FA0FFF734BA099C2B
:1042A000640640F15081DDF840C00025BCF80040B4
:1042B0000CF1040CCDF840C0FFF7E4B9DDF824C0E0
:1042C0001CF0100F00F04681109C0E9D23680434F2
:1042D00010941D60FFF7A6B804A2400020A2400081
:1042E0001CA240002C463D460A9F94460133A4443C
:1042F000072BCDF8B4C02C93356074603FF71AAF2C
:10430000083622E70D980C992BAA04F003F8002830
:104310007FF47AA9DDF8B4C038AE07E52C9AB74926
:1043200001320CF1010C0120072ACDF8B4C02C9207
:104330003160706000F3F78008361C462CB9119D7F
:104340001DB9099DE8077FF5B9AA2C9B159D189901
:1043500001333560189D6144072B2D9175602C93B6
:1043600000F3DE8106F108026442002C40F30B8169
:10437000102CA34D40F34881A34610260C46DDF8CF
:104380003480DDF830A006E00832ABF1100BBBF151
:10439000100F40F3378101331034072B2D942C93E9
:1043A00082E86000F0DD404651462BAA03F0B2FFE0
:1043B00000287FF429A92D9C2C9B38AAE5E7099CAD
:1043C00009F1010944F02004099493F80180FFF7F2
:1043D0005FB80D980C992BAA03F09CFF00287FF47E
:1043E00013A9DDF8B4C038AEB6E40A9D28F0200A5F
:1043F000013500F0A580BAF1470F04D10A9D002DC8
:1044000008BF01250A95DDF824C0DDE916234CF428
:10441000807C002BCDF848C0C0F29C81DDE91645B8
:10442000CDE920454FF0000BB8F1660F00F09B81FD
:10443000B8F1460F00F0A981BAF1450F0ABF0A9CF6
:104440000A9D651C022025A926AA29AB8DE821001A
:104450000392049302910D98DDE9202301F0DCF929
:10446000B8F1670F074602D0B8F1470F05D1DDF864
:1044700024C01CF0010F00F09C81BAF1460F07EB3D
:10448000050400F01C81DDE920010022002304F076
:10449000ABFD002840F00581299B9C4206D93021C4
:1044A0005A1C29921970299B9C42F9D8DB1BBAF13E
:1044B000470F119300F0ED80B8F1650F40F3F281E2
:1044C000B8F1660F00F06881259C1494119C149D2E
:1044D000AC4200F33281DDF824C01CF0010F40F043
:1044E000AD8125EAE5732C464FF06708BBF1000F5C
:1044F00040F0B280129D0B930995CDF828B09DF83D
:104500008FA0FFF700B90D98402102F0A7FD2060B1
:104510002061002800F0BF81DDF830C04023CCF8D6
:104520001430FEF76FBF0D980C992BAA03F0F2FE22
:1045300000287FF469A8259CDDF8B4C038AEFDE6FC
:1045400006240A945FE7109D2C6804351095002519
:10455000FFF798B8DDF824C01CF0400F00F087800A
:10456000109C0E9D2368043410941D80FEF75ABFE2
:104570000D980C992BAA03F0CDFE00287FF444A8D7
:104580002D992C9B38AADDF844C00133119C8C4432
:10459000072BCDF8B4C02C93176054603FF79CAC48
:1045A00002F10806FFF78AB9CDF828A003F082FED1
:1045B00010950A9D20EAE07C0446CDF82CC01495A5
:1045C0009DF88FA0FFF79FB80D980C992BAA03F0C8
:1045D000A1FE00287FF418A8DDF8B4C038AED6E4F8
:1045E0000D980C992BAA03F095FE00287FF40CA8D7
:1045F000259CDDF8B4C038AEB0E500BF54A2400041
:1046000004A2400021465C4601332144072B2D9132
:104610002C9315605460ABDC0832B4E70D980C990C
:104620002BAA03F077FE00287EF4EEAF259C1199AB
:10463000DDF8B4C00C1B38AEA5E50A9CBA46062CC2
:1046400028BF062424EAE47C0A9714971095CDF835
:104650002CC0974FFFF757B8129D4FF02D0A0995C0
:1046600000250B938DF88FA00A95FFF74FB8DDF862
:1046700040C00E9CDCF800300CF1040CCDF840C0BA
:104680001C60FEF7CFBE4FF02D0A8DF88FA0FFF70C
:1046900099BA259BDC1C19DB0A9C9C4216DB1493FF
:1046A00014E7234602E724EAE47CCDF82CC00A9CF8
:1046B00010950A9014909DF88FA0FFF724B83B78CE
:1046C000302B00F0AD80259D2C44DCE6A8F10208DB
:1046D000591E00292591BABF49422D232B230929B0
:1046E0008DF89C808DF89D3065DC302330318DF85D
:1046F0009E308DF89F1028AB119D27AA119C9A1A05
:10470000012D1992144440F3B7800134002524EAA6
:10471000E4731495EAE6002481460A94FEF7BABED3
:104720000D980C992BAA03F0F5FD00287EF46CAFD0
:10473000259C2D992C9B38AA16E6149C119D002CC3
:10474000D4BFC4F1020401242C4424EAE4734FF0E2
:104750006708CBE61799169801F100412090219146
:104760004FF02D0B60E60A9D032025A926AA29AB50
:10477000019500900392049302910D98DDE92023A6
:1047800001F04AF80A9D074677E60A9C032025A90E
:1047900026AA29AB0194ECE7259D0A9C002D1495CF
:1047A00063DDB4BB099DE80733D4149C24EAE473A9
:1047B0009CE6299B7AE60DF1AA023E4DCB1785FBBC
:1047C0000150C3EBA00000EB8003A1EB43010928DB
:1047D000134601F130021A70014603F1FF32ECDC9E
:1047E00000F130010DF1AB04C9B2944203F8011C91
:1047F0005AD90DF19D001A4601E012F8011BA242A0
:1048000000F8011FF9D10DF5907CC3EB4C03F63B8A
:1048100072E70A9D6C1C149D2C4424EAE47365E63F
:10482000DDE920010022002304F0DEFB00287FF4F4
:104830004AAFC5F1010525952C4424E6149D4FF09F
:1048400067086C1C24EAE47350E6109DDDF840C054
:104850002D680CF10403002D99F801800A9510933E
:104860008146BEF615AEFEF710BE7CB9099DE9077C
:104870000CD401231C4639E6DDF824C01CF00103EA
:104880007FF443AF149324EAE4732FE60A9DAC1C33
:1048900024EAE4732AE60D9D0C232B604FF0FF30D1
:1048A000FEF7BABE259B13E70DF19E0324E700BF78
:1048B0004CA24000676666664B6E2DE9F0479C048B
:1048C0000E46804691462AD59368126802F1080A7E
:1048D0001BB31AE9A000BF0817D0043D002401E073
:1048E000A74210D0404655F8041F324602F006F8A1
:1048F000431C04F10104F3D10023C9F80830C9F8BE
:104900000430BDE8F087D9F80830A3EB8703C9F875
:1049100008300AF1080A002BDBD10020ECE702F096
:1049200067F90023C9F80830C9F80430BDE8F087FA
:104930002DE9F04FB1B01C460291904608930690C5
:1049400018B1836B002B00F0E880029DAB899AB20E
:10495000900407D46A6E43F4005322F40051AB81F3
:104960009AB26966110740F1B780DDF808B0DBF84C
:104970001030002B00F0B08002F01A020A2A00F07A
:10498000B78000230DF180090A93159314930993BE
:10499000CDF84C904E4698F80030002B00F0C884BB
:1049A000252B00F0C58408F1010201E0252B04D07D
:1049B000137814460132002BF8D1C8EB040595B1E9
:1049C000149B159A01332A44072BC6F800807560A2
:1049D000159214937BDD002A40F0D5840998149237
:1049E00028444E4609902378002B00F0ED830021E7
:1049F0004FF000024FF0FF3C63788DF847200491A0
:104A00008A4604F101080846654608F10108A3F149
:104A10002002582A00F2D982DFE812F0CB02D70236
:104A2000D702D202D702D702D702D702D702D702C3
:104A300082028F02D70284009302D7022B019601D3
:104A400096019601960196019601960196019601AE
:104A5000D702D702D702D702D702D702D702D7028E
:104A6000D702D7023001D702D702D702D702D70226
:104A7000D702D702D702D702D7027B01D702D702CB
:104A8000D702D702D702A401D702D702BF01D702AB
:104A9000D702D702D702D702D702D702D702D7024E
:104AA000D702E401FA01D702D702D7021602FA01AF
:104AB000D702D7021B02D7022802890066027D02B4
:104AC000D7023A02D7021901D702D702AF0208363D
:104AD00009982844099086E70698029900F090FD0D
:104AE000B0B9029DAA8902F01A020A2A7FF449AFDE
:104AF000DDF808B0BBF90E30002BFFF642AF069888
:104B000059464246234600F03DFD31B0BDE8F08FE6
:104B10004FF0FF3031B0BDE8F08F01F059FE14E7DF
:104B2000404208934AF0040A98F800306DE71AF002
:104B300020030490AC4600F0F480DDF820B00BF1C7
:104B4000070323F0070303F108040894D3E90045A1
:104B500000234FF0000000218DF84700CDF814C06D
:104B60000791BCF1000FA8BF2AF0800A54EA0502A1
:104B700040F0AD80BCF1000F40F0A980002B40F068
:104B8000C0831AF0010F00F0BC83302330AF07F868
:104B9000413DC7EB09040594DDF814B0079CE345DB
:104BA000B8BFE346CDF80CB01CB10BF1010BCDF84A
:104BB0000CB01AF00205079505D0DDF80CB00BF12A
:104BC000020BCDF80CB01AF084030B9340F01B825B
:104BD000049DDDF80CB0CBEB0504002C40F31382F0
:104BE000102C40F38984BE4D159A2B461498254607
:104BF0004FF0100B6446B4461E4606E0831C0CF1D1
:104C0000080C0846103D102D11DD411C10320729FB
:104C100015928CE840081491F0DD002A40F0E681FE
:104C2000103D102D4FF001031046CC46EDDC31460F
:104C30006646A4462C460D462244072B1592356045
:104C40007460149300F36D830836591CDEE11AF08A
:104C5000200F0490AC4600F08D80089DEB1D23F0E2
:104C6000070303F1080BD3E90045CDF820B0012379
:104C70006FE74AF0800A98F80030C6E64AF0100A5A
:104C80001AF0200F0490AC468DF8471000F0C88051
:104C9000089CE11D21F00701D1E9002308310891AA
:104CA00014461D46002A73F1000BC0F2CE83BCF1FE
:104CB000000F9DF84700A8BF2AF0800A54EA0502B9
:104CC0000790CDF814C04FF001033FF453AF012B10
:104CD00000F01983022B0DF17F0340F04C82DDF8C8
:104CE00028B0194604F00F0022091BF8000042EA20
:104CF00005722B09087052EA03000F4614461D4640
:104D000001F1FF31EED1CDE90E23C7EB0903059385
:104D100042E74AF0100A1AF020030490AC467FF4F0
:104D20000CAF1AF0100240F011831AF0400300F0AB
:104D30000D83DDF820B01346BBF800400BF1040BE7
:104D40000025CDF820B004E7A3F13002002018F8C8
:104D5000013B00EB800002EB4000A3F13002092A86
:104D6000F5D954E64AF0100A1AF0200F0490AC4628
:104D70007FF473AF1AF0100F40F0EF821AF0400F7B
:104D800000F0EB82DDF820B00025BBF800400BF10D
:104D9000040B0123CDF820B0DBE6AC46514D1AF0F0
:104DA000200F04908DF847100A9500F0F080089DC0
:104DB000EA1D22F0070202F1080BCDF820B0D2E97B
:104DC00000451AF0010F00F0AA8254EA050B00F02A
:104DD000A68230228DF849304AF0020A8DF8482028
:104DE0000223B6E6089BDDF820B01B6801244FF0D3
:104DF00000050BF1040B049003948DF847508DF8D7
:104E00005830CDF820B0059416AF4FF0000CD0E626
:104E10001AF0200F0490AC468DF847107FF438AF9D
:104E20001AF0100F40F0A7821AF0400F00F0A38292
:104E3000DDF820B0BBF900400BF1040BE51722466A
:104E40002B46CDF820B02DE74AF0400A98F8003004
:104E5000DBE598F8003042466C2B03BF08F10108EF
:104E60004AF0200A53784AF0100ACEE51AF0200FD3
:104E70008DF8471000F0F782089C2168099CE5171F
:104E80002B46089D224604350895C1E9002382E59A
:104E9000089CAC4627684FF0000504908DF84750F9
:104EA0000434002F00F03283BCF1000F3846C0F20A
:104EB000078362460021CDF804C002F06BFBDDF8E9
:104EC00004C0002800F03A83C01B9DF8475060459D
:104ED000A8BF60460590089407954FF0000C5BE66C
:104EE00078A2400024A24000089BDDF820B0049086
:104EF000B2481C68302278230BF1040BAC468DF8C5
:104F000049304AF0020ACDF820B000258DF848203B
:104F10000A9002231DE64AF0200A98F8003074E552
:104F2000DDF820B0DBF800000BF104030028FFF6E9
:104F3000F7AD089398F8003067E598F800302B211A
:104F400063E598F8003008F101042A2B00F005838E
:104F5000A3F13002092A98BF002500F2FA8214F862
:104F6000013B05EB850502EB4505A3F13002092A5B
:104F7000F5D945EAE575A04649E5904C1AF0200FB1
:104F80000490AC460A948DF847107FF410AF1AF0E5
:104F9000100F40F0EA811AF0400F00F0E681DDF8D2
:104FA00020B00025BBF800400BF1040BCDF820B079
:104FB00007E798F8003000297FF427AD202124E589
:104FC0004AF0010A98F800301FE504908DF8471068
:104FD000002B00F0F98001254FF0000B03958DF8B0
:104FE00058308DF847B0059516AF0EE70698029930
:104FF00013AAFFF761FC002840F0ED801498159A81
:10500000431CCC46FEE5149B159A591C9DF847009D
:1050100068B101320DF1470001230729159214915F
:1050200086E8090000F360810B4608360131079CD1
:1050300064B1023212A8022307291592149186E85E
:10504000090000F357810B46083601310B9D802D76
:1050500000F00181059DC5EB0C04002C2FDD102C08
:10506000574D22DD30464FF0100B2E462546069C4C
:1050700006E003F1020C08300B46103D102D10DD48
:10508000591C10320729159280E840081491F0DD70
:10509000002A63D1103D102D4FF0010C13464846F5
:1050A000EEDC2C4661463546064622440729159219
:1050B00035607460149100F3C18008360131059D9C
:1050C00007292A44159237607560149140F3C18016
:1050D000002A40F0308114924E461AF0040F00F07E
:1050E0008B80049DDDF80CB0CBEB0504002C40F365
:1050F0008380102C40F31E821499324D1027DDF866
:1051000018A0DDF808B005E0881C08361946103CE8
:10511000102C10DD4B1C1032072B159286E8A000D6
:105120001493F1DD002A7DD1103C102C4FF00100CA
:1051300011464E46EEDC2244072815923560746015
:10514000149059DD002A4FD1099CDDF80CB0049D64
:10515000AB45ACBF5C44641909945EE020460299FB
:1051600013AAFFF7A9FB002835D1149B159A03F168
:10517000010C484681E7E00840EA457004F0070268
:10518000E908303250EA010B1F461A7004460D46FA
:1051900003F1FF33EFD11AF0010FCDE90C013946CD
:1051A00000F0B980302A3FF4F4AC1F46C7EB090584
:1051B0003023059501F8013CEEE400BF38A2400021
:1051C00068A2400078A24000159B23B1069802997E
:1051D00013AAFFF771FB029CA3895B063FF598AC0D
:1051E000099831B0BDE8F08F0698029913AAFFF72D
:1051F00063FB0028EFD1159A099CDDF80CB0049DE3
:10520000AB45ACBF5C446419099432B1069802996D
:1052100013AAFFF751FB0028DDD1002014904E4661
:10522000FFF7B9BB5046594613AAFFF745FB0028C4
:10523000D1D11499159A481C4E4668E7002A40F0CF
:10524000F780059C012320972194159422461493FE
:105250004E46083641E7049DDDF80CB0CBEB050463
:10526000002C7FF7F7AE102CA64D40F37081294635
:105270004FF0100B25466446B4460E4606E0981CD7
:105280000CF1080C0B46103D102D0FDD591C10328F
:10529000072915928CE840081491F0DDBAB9103D49
:1052A000102D4FF001001346CC46EFDC3346664626
:1052B000A4462C461D46224407281592356074608A
:1052C000149000F3AF800836411C0346C2E60698EE
:1052D000029913AAFFF7F0FA00287FF47CAF149B21
:1052E000159A581CCC46CEE7002A79D119464E466D
:1052F00013469CE6002A40F08480012113464E4666
:10530000A4E64F4648E4002D08BF0A2C46D23034AC
:1053100030AF07F8414DC7EB090305933CE4022386
:1053200017E4002A40F0AF80134601214E466DE697
:105330004446FFF758BB0698029913AAFFF7BCFA38
:1053400000287FF448AF159A4E46C6E6089D2C68A3
:10535000043508950025FFF7FCBB089D01232C6848
:10536000043508950025FFF7F4BB089D2C6804352B
:105370000895002525E5089D2C6804350895E51756
:1053800022462B468EE40698029913AAFFF794FA58
:1053900000287FF420AF4E46FFF79ABB0DF17F0B3C
:1053A00003965E46E346204629460A22002303F080
:1053B00075FE30323270204629460A22002303F05F
:1053C0006DFE04460D4654EA0500374606F1FF36E9
:1053D000E9D1C7EB0903DC46039E0593FFF7DCBB6D
:1053E0000698029913AACDF804C0FFF765FADDF814
:1053F00004C000287FF4EFAE149B159A591C4E464A
:1054000015E60698029913AACDF804C0FFF754FADE
:10541000DDF804C000287FF4DEAE149B159A591CF9
:105420004E4613E6002A56D1012113464E4611E698
:105430000698029913AAFFF73FFA00287FF4CBAE33
:105440001499159A01314E4639E64FF02D0B6442FE
:1054500065EB45058DF847B0CDF81CB0CDF814C00C
:105460000123FFF77EBB1AF0100F1DD11AF0400F79
:1054700058D0089DDDF824B02B6804350895A3F8B2
:1054800000B0FFF788BA0698029913AACDF804C0B5
:10549000FFF712FADDF804C000287FF49CAE149BDD
:1054A000159A591C4E46B1E5DDF820B0099CDBF891
:1054B00000300BF1040BCDF820B01C60FFF76BBA85
:1054C000089402F0F7FE9DF84740059007944FF0CE
:1054D000000CFFF761BB0698029913AACDF804C02F
:1054E000FFF7EAF9DDF804C000287FF474AE149BDE
:1054F000159A591C4E46ADE5149B159A0133024D81
:10550000FFF79ABB68A2400078A24000BCF1060FEA
:1055100034BF63460623089423EAE3740593039497
:10552000164F72E4089C099D2368043408941D609A
:10553000FFF731BA1498124D0130FCE59DF8475041
:10554000CDF814C0079508948446FFF725BB08469C
:10555000B1E6A0460025FFF75ABADDF820B098F86A
:105560000130DBF800500BF10402002D0892A04638
:10557000BFF64BAA4FF0FF35FFF747BA4CA24000E9
:1055800078A240002DE9F0474F6EADF58D6D88464D
:105590001997D8F81C70B1F80CA0B1F80E900797C5
:1055A000D8F824701AAC4FF480652AF0020A00265D
:1055B00069460094049402950595ADF80CA0ADF8E9
:1055C0000E90099706960546FFF7B2F9041E07DB11
:1055D0002846694601F0E0F8B04218BF4FF0FF34AA
:1055E000BDF80C305B0605D5B8F80C3043F040032D
:1055F000A8F80C3020460DF58D6DBDE8F08700BF92
:105600002F4B70B5064618680C4610B1826B002A05
:1056100036D0A589ABB219070CD52269AAB113F00F
:1056200001011ED0636900215B42A361A160F2B158
:10563000002070BDDA063AD55B0724D4226945F014
:105640000803A3819BB2002AE9D103F42071B1F5CC
:10565000007FE4D03046214601F088FCA38922690E
:10566000DDE7980758BF6169A160002AE0D1A389EE
:105670001A06DDD543F04003A3814FF0FF3070BD23
:1056800001F0A6F8C5E7216B49B104F14003994246
:1056900003D0304601F0E0F9A58900232363226995
:1056A00025F024050021ADB222606160C7E745F016
:1056B0004005092333604FF0FF30A58170BD00BF66
:1056C00018050020024B13B1024800F005B87047DE
:1056D00000000000CD68400001460020024603465D
:1056E00002F036BF2DE9F04F03690D6983B09D428A
:1056F000834600F38C80013D01F1140400F1140A8B
:1057000054F825205AF825300132B3FBF2F8AA00EC
:10571000914600925244A1440192B8F1000F3ED04C
:1057200000263046224653468C4652F8047B1968C0
:105730001FFA87FE3F0C0EFB086E07FB08F606EB10
:105740001E461FFA8EFECEEB000E8FB2B0B277442B
:10575000C0EB114000EB2740BFB247EA004791453C
:1057600043F8047B4FEA20404FEA1646DDD2009A08
:1057700061465AF8023093B9019A131F9A450CD228
:1057800052F8043C4BB9A2F1080302E01A68043B4A
:105790001AB99A4505F1FF35F8D3CBF810505846A1
:1057A00002F03EFA00282EDB08F1010853460022E1
:1057B00054F8046B1868B1B2511A87B2360C3944E8
:1057C000C6EB104000EB214289B241EA0241A145FB
:1057D00043F8041B4FEA2242EAD25AF825200AEB8A
:1057E000850382B91A1F92450BD253F8042C42B993
:1057F000083B02E01A68043B1AB99A4505F1FF35E7
:10580000F8D3CBF81050404603B0BDE8F08F00202D
:1058100003B0BDE8F08F00BF2DE9F04F016C9BB0E5
:10582000044692469B46279D41B1436C01229A4013
:105830004B608A6001F0FEFF00232364BBF1000F80
:10584000D94633DB00232B60A54B1A4609EA030334
:10585000934214D0504659460022002303F0C4FB63
:10586000804648B3269E289D01233360002D00F01A
:10587000CA809C48286001381BB0BDE8F08F269D87
:1058800042F20F732B60BAF1000F00F0A58096482A
:10589000289E002EF0D0C378002B00F0B68000F1D7
:1058A0000803289D2B601BB0BDE8F08F01232BF06F
:1058B00000492B60CB46C7E719AA18AB8DE80C004E
:1058C000204652465B4602F03BFA5FEA19550A90C1
:1058D00040F08B80189F199D6FF482633D449D4278
:1058E000C0F295821F3305F212425B1B09FA03F3E3
:1058F0002AFA02F243EA020003F098F80126013D79
:10590000B846A1F1F87116960022784B02F050FFCC
:105910006DA3D3E9002303F0FFF86DA3D3E90023BF
:1059200002F048FF064628460F4603F08FF86AA3A8
:10593000D3E9002303F0F0F802460B46304639461F
:1059400002F038FF06460F4603F080FB3946079009
:1059500000223046002303F051FB002840F029824A
:10596000079E162E00F222826149524601EBC601C3
:105970005B46D1E9000103F05FFB002800F04C8298
:10598000013E079600260E96C5EB0805013D0695DB
:1059900000F1268200250895079E002EC0F217828E
:1059A000069D0D963544002606950C96249D092DDE
:1059B0002DD8052DC4BF043D2495249EC8BF0025C5
:1059C000A6F10203D8BF0125032B22D8DFE813F08C
:1059D000B7039E02C0039A04464A434BC9F313001F
:1059E00000280CBF1046184652E7CBF3130343F0D0
:1059F0007F51CDF858805046A5F2FF3541F4401153
:105A0000DDF8608080E73C4836E7C31C49E70025A5
:105A10002495002565642946204601F0E5FE4FF0F7
:105A2000FF390126099025952064CDF83C900B960E
:105A3000199B002BC0F2D280079E0E2E00F3CE8061
:105A40002B4B03EBC603D3E90001CDE904012599F3
:105A50000029C0F28083DDE904235946504603F053
:105A600085F903F0F3FA054602F0F0FFDDE90423BF
:105A700003F052F802460B465046594602F098FE93
:105A8000099A05F13003B9F1010F06460F4613706C
:105A900002F1010B64D00022184B03F03DF8002204
:105AA000002306460F4603F09FFA002840F081804D
:105AB000DDF82480099DC844DDE904AB05F1020945
:105AC000039428E0AFF3008061436F63A787D23F60
:105AD000B3C8608B288AC63FFB799F501344D33FDD
