:020000040000fa
:080000000002040000000000f2
:020000040000fa
:10040000af83200080fe2000000188000000000073
:100410000c000700a0ff20000100200011000700d1
:10042000000020000000e000020032000000020096
:1004300000000000ba090200000000000040da00dd
:100440000000fe004440a900401620000000e0002b
:100450000300320000002000a00188004440a800f2
:100460000000060091018800800078000000eb0089
:1004700015003700e280400032a0b4009101ba00bc
:10048000e280400032a0b4009102ba00e280400055
:1004900032a0b4000002eb00472bde00f507b200eb
:1004a000602ce10004003a000059eb008301e900f0
:1004b000fdff3e00040037006128e100010032002a
:1004c0000082eb00040007001101ba000200e00006
:1004d000e8ff3a00000006003159ba008301e90044
:1004e0000c0032002159ba008301e90008003200f3
:1004f0000400e00003003a00e280400032a0b400b3
:10050000f5ff370011d9ba008301e900faff3a007c
:100510008100e800e180400032a0b4000000060045
:020000040000fa
:0200000401f009
:04000000ffff0000fe
:020000040000fa
:0200000401f009
:04000800ffff0000f6
:020000040000fa
:0200000401f009
:04000c00f8ff0000f9
:020000040000fa
:0200000401f009
:040010007dff000070
:020000040000fa
:0200000401f009
:040014007fff00006a
:020000040000fa
:0200000401f009
:04001800ffff0000e6
:020000040000fa
:0200000401f009
:04001c00ddff000004
:020000040000fa
:1000080026100000ca0f0000d00f0000d60f000015
:10001800dc0f00002610000026100000261000004b
:1000280026100000d6040000261000004e04000030
:1000380026100000520500002610000026100000bf
:1000480026100000261000002610000026100000d0
:1000580026100000aa060000261000002610000046
:1000680026100000261000002610000026100000b0
:100078002610000026100000dc05000026100000f5
:100088002610000026100000261000002610000090
:100098002610000026100000261000002610000080
:1000a8002610000026100000261000002610000070
:1000b8002610000026100000261000002610000060
:1000c8002610000026100000261000002610000050
:1000d8002610000026100000261000002610000040
:1000e8002610000026100000261000002610000030
:1000f8002610000026100000261000002610000020
:1001080026100000580600002610000026100000e7
:1001180026100000261000002610000026100000ff
:1001280026100000261000002610000026100000ef
:1001380026100000261000002610000026100000df
:1001480026100000261000002610000026100000cf
:1001580026100000261000002610000026100000bf
:1001680026100000261000002610000026100000af
:10017800261000002610000026100000261000009f
:10018800261000002610000026100000261000008f
:10019800261000002610000026100000261000007f
:1001a800261000002610000026100000261000006f
:1001b800261000002610000026100000261000005f
:1001c800261000002610000026100000261000004f
:1001d800261000002610000026100000261000003f
:1001e800261000002610000026100000261000002f
:0801f800261000002610000093
:020000040000fa
:1002080026100000e20f0000e80f0000ee0f0000cb
:10021800f40f000026100000261000002610000031
:1002280026100000d6040000261000004e0400002e
:1002380026100000520500002610000026100000bd
:1002480026100000261000002610000026100000ce
:1002580026100000aa060000261000002610000044
:1002680026100000261000002610000026100000ae
:100278002610000026100000dc05000026100000f3
:10028800261000002610000026100000261000008e
:10029800261000002610000026100000261000007e
:1002a800261000002610000026100000261000006e
:1002b800261000002610000026100000261000005e
:1002c800261000002610000026100000261000004e
:1002d800261000002610000026100000261000003e
:1002e800261000002610000026100000261000002e
:1002f800261000002610000026100000261000001e
:1003080026100000580600002610000026100000e5
:1003180026100000261000002610000026100000fd
:1003280026100000261000002610000026100000ed
:1003380026100000261000002610000026100000dd
:1003480026100000261000002610000026100000cd
:1003580026100000261000002610000026100000bd
:1003680026100000261000002610000026100000ad
:10037800261000002610000026100000261000009d
:10038800261000002610000026100000261000008d
:10039800261000002610000026100000261000007d
:1003a800261000002610000026100000261000006d
:1003b800261000002610000026100000261000005d
:1003c800261000002610000026100000261000004d
:1003d800261000002610000026100000261000003d
:1003e800261000002610000026100000261000002d
:0803f800261000002610000091
:020000040000fa
:1005200000000000c9000000910100005a02000014
:1005300023030000eb030000b40400007c0500006e
:10054000450600000d070000d50700009e080000ca
:10055000660900002e0a0000f60a0000be0b00002b
:10056000850c00004d0d0000150e0000dc0e000093
:10057000a30f00006a10000031110000f811000004
:10058000bf120000851300004b140000111500007d
:10059000d71500009d160000621700002718000004
:1005a000ec180000b1190000751a00003a1b000099
:1005b000fe1b0000c11c0000851d0000481e00003d
:1005c0000b1f0000cd1f00008f20000051210000f4
:1005d00013220000d42200009523000056240000be
:1005e00016250000d625000095260000542700009f
:1005f00013280000d12800008f2900004d2a000098
:100600000a2b0000c72b0000832c00003f2d0000a8
:10061000fb2d0000b62e0000702f00002b300000d4
:10062000e43000009d310000563200000e3300001f
:10063000c63300007d34000034350000ea35000088
:10064000a0360000553700000a380000be38000010
:1006500072390000253a0000d73a0000893b0000bb
:100660003b3c0000eb3c00009c3d00004b3e00008a
:10067000fa3e0000a93f0000564000000341000080
:10068000b04100005c42000007430000b24300009c
:100690005c44000005450000ae45000056460000e1
:1006a000fd460000a44700004a480000ef48000053
:1006b00093490000374a0000da4a00007d4b0000f1
:1006c0001f4c0000bf4c0000604d0000ff4d0000bb
:1006d0009e4e00003c4f0000d94f000076500000b5
:1006e00011510000ac51000046520000e0520000e1
:1006f0007853000010540000a75400003d5500003e
:10070000d255000067560000fa5600008d570000d1
:100710001f580000b058000040590000d059000098
:100720005e5a0000ec5a0000795b0000055c000096
:10073000905c00001a5d0000a35d00002b5e0000cd
:10074000b35e0000395f0000bf5f0000446000003e
:10075000c86000004a610000cc6100004d620000ea
:10076000cd6200004c630000cb63000048640000d1
:10077000c46400003f650000ba65000033660000f5
:10078000ab66000023670000996700000e68000058
:1007900083680000f668000068690000da690000fc
:1007a0004a6a0000b96a0000276b0000956b0000e0
:1007b000016c00006c6c0000d66c00003f6d000006
:1007c000a76d00000e6e0000746e0000d96e000070
:1007d00000e00000aa0a000054350000fe5f00009f
:0807e000a88a000052b50000d8
:020000040000fa
:1007e8000000fa00113a8000f0fb2f000081600041
:1007f80061042000700520002374200081497800de
:100808008049780082497800816920009140780009
:1008180000ceb30000c060000034a00098e6b70026
:10082800e16820009140780000ceb30000c060006d
:100838000004a0008ee6b700f1682000914078001f
:1008480000ceb30000c060000014a0008fe6b7001f
:10085800416920009140780000ceb30000c06000dc
:100868003040b30094e6b700113a8000000420003d
:1008780000817000610420007005200023742000ae
:100888008149780080497800824978000080fa0020
:10089800000006003600f800809fbe00829fbe0060
:1008a800849fbe00869fbe000000fa008460a900f5
:1008b800914180008041800000805000a041880064
:1008c800a141800080132000808f500003003e006b
:1008d80090132000a041880006003700a141800045
:1008e80020a12700808f50000200360020a1270099
:1008f800a0418800a241800000002d007100200066
:10090800811f7800110009004288d800cf007800c4
:100918002041880091408000a24180001100090018
:100928000208d900c04188002ec8bf00e14f50001e
:1009380003003a00c04180000000ea00c04188007e
:1009480096010700404080000000e8004040880011
:1009580040408000a2002000110009000280d80059
:100968008000fd000000e00002003a0001020700dc
:10097800050037004140800030062000808f50007d
:1009880001003600770107000080fa004f03be001f
:100998004f02be004f01be004f00be003600f900f6
:1009a800004006003600f800809fbe00821f7800d5
:1009b8000000fa008420a900501680000000d10031
:1009c800670060004041880041418000a08020000d
:1009d80000804000104078000000fb005041880073
:1009e8005141800060418000808f50002600320015
:1009f8000000eb004040880050418000e50f5000a7
:100a08000300320050418000e20f500003003a001a
:100a180010c0b3002ee8b700020037000040eb001a
:100a28002ee8b7002fc8bf000004e00007003a0016
:100a38005041800080004000803e28000080400037
:100a480010007800104188000d00370050418000e8
:100a58006300400062002000110009000280d800f5
:100a68008000fd0080004000803e2800008040009b
:100a780090007800304080000080400010418800dd
:100a880050418000604188000080fa004f017800e2
:100a98004f00be003600f900004006003600f8009e
:100aa800809fbe00821f78000000fa0084a0a90081
:100ab800501680000000d1006700600040418800a7
:100ac80041418000a0802000008040001040780054
:100ad8000000fb00504188005141800060418000c7
:100ae800808f50002d0032009041800080418800a6
:100af800200a800090418800200a8000200a800097
:100b0800200a80000000eb0040408800504180002f
:100b1800e30f500003003200504180000000e00065
:100b280003003a0010c0b3002ee8b70002003700f7
:100b38000040eb002ee8b7002fc8bf000004e0001b
:100b480007003a005041800080004000803e2800a5
:100b58000080400010007800104188000d00370028
:100b6800504180006300400062002000110009002d
:100b78000280d8008000fd0080004000803e2800f0
:100b880000804000900078003040800000804000e5
:100b98001041880050418000604188000080fa00c0
:100ba8004f0178004f00be003600f90000400600f3
:100bb8003600f800809fbe00821f78000000fa000f
:100bc80086c0a900501680000000d10067006000b0
:100bd8004041880041418000a08020000080400002
:100be800104078000000fb0050418800514180000f
:100bf80060418000808f5000260032000000eb002a
:100c08004040880050418000e10f5000030032004e
:100c180050418000e40f500003003a0010c0b300b8
:100c28002ee8b700020037000040eb002ee8b700be
:100c38002fc8bf000004e00007003a0050418000c0
:100c480080004000803e28000080400010007800ae
:100c5800104188000d0037005041800063004000bb
:100c680062002000110009000280d8008000fd0009
:100c780080004000803e28000080400090007800fe
:100c880030408000008040001041880050418000c2
:100c9800604188000080fa004f0178004f00be00d4
:100ca8003600f900004006003600f800809fbe00bc
:100cb800829fbe00849fbe00869fbe000000fa008f
:100cc8008b20a9002fc8bf000004e0000b003a00e9
:100cd8002ec8bf000004e00004003a001141800063
:100ce80020418000008040001041880011418000b0
:100cf800b0408000030207000d0037002ec8bf0077
:100d0800e14f500004003a0011418000204180006a
:100d1800008050001041880012418000b1408000de
:100d28000080eb000100500082007800f501070008
:100d38000080fa004f03be004f02be004f01be0004
:100d48004f00be003600f90000400600801f780002
:100d58000000fa0085a0a90000188000a0408800c3
:100d68000080fa004f007800004006000200fa00f8
:100d780050012000a00e88000000eb00000f780052
:100d8800010037001e0fe800102328009e0f1000f6
:100d9800fcff3600ca01a800200e8000b00e8800b3
:100da800200e8000c00e8800200e8000d00e880023
:100db80000f02300a00e8800ca01a9000080fa00f4
:100dc800000006000000fa00e8ff07000000eb0042
:100dd800004088000000eb00104088000000eb0095
:100de80020408800c1408000d040800080804000c2
:100df800e040800000804000c07f8800e140800023
:100e0800e0ff2f000088b90080007800c040800013
:100e180000805000d07f8800e0408000e07f88009c
:100e28000000eb00000888000000eb005008880074
:100e380020a12700904188000000eb008041880035
:100e4800501680000000d100670060004041880013
:100e580041418000a08020000080400010407800c0
:100e68000000fb005041880050418000604188002c
:100e7800a04080000000e00014003d000000eb00ee
:100e8800b040880010c0b3002fe8b7002fc8bf00db
:100e98002ee8b70050418000630040006200200047
:100ea800110009000280d8008000fd008000400089
:100eb800803e28000080400090007800304080008c
:100ec80000804000104188000c0037000000eb0053
:100ed800b04088000040eb002fe8b7002fc8bf00e3
:100ee8002ee8b7005041800080004000803e280076
:100ef8000080400010007800104188000000eb00de
:100f08004040880000002d007100200022a1270029
:100f1800811f7800110009004288d800cf007800ae
:100f2800204188008460a9008420a90084a0a90029
:100f380086c0a9008b20a900ff3ffc009460a80090
:100f48009420a80094a0a80096c0a8009b20a80000
:100f58000000eb00900288002008a8000080fa003a
:100f6800000006000000fa000000eb00a00e880058
:100f7800ff3ffc009460a9009420a90094a0a90058
:100f880096c0a9009b20a9000000eb0090028800f1
:100f98002008a9000080fa00000006000800fa00f6
:100fa800881f78008a1f78002200f8002400f800c3
:100fb8002600f8002800f8002a00f8002c00f800a5
:100fc80000802000000f780080ff200010079800a4
:100fd80044e0a800a04080000000ca00c041800092
:100fe8000080ca000030cb009e0078000000cc00d2
:100ff80080087800e40247009e0078000e81e8002f
:1010080066034700120078000104780000057800a4
:101018004630c7000a007800880078008701780009
:10102800010f780000097800830a7800040b780023
:10103800b04080000000ca00be0190002e0290005f
:10104800e40247009e0078000e81e800660347002e
:101058001200780001047800000578008303780006
:101068004630c2000a0078008800780087017800be
:10107800010f780000097800830a7800040b7800d3
:10108800be0190002e029000e40247009e00780006
:101098000e81e8006603470012007800010478001a
:1010a80000057800830378004630c2000a00780003
:1010b8008800780087017800010f7800000978001f
:1010c800830a7800040b7800be0190002e0290007d
:1010d800e40247009e0078000e81e800660347009e
:1010e8001200780001047800000578008303780076
:1010f8004630c2000a00780088007800870178002e
:10110800010f780000097800830a7800040b780042
:101118000000cc00b040880044e0a90010408000e6
:10112800204088000040800010408800b0408000c7
:101138000000e00003003d0010c0b3002fe8b70036
:10114800020037000040eb002fe8b7002c00f90040
:101158002a00f9002800f9002600f9002400f90007
:101168002200f9004f0578004f0478000080fa004b
:10117800000006000000fa00501680000000d100b0
:10118800670060004041880041418000a080200045
:1011980000804000104078000000fb0050418800ab
:1011a80050418000e10f4000170032002fc8bf00f7
:1011b8000004e00007003a00504180008000400031
:1011c800803e280000804000100078001041880010
:1011d8000d0037005041800063004000620020008d
:1011e800110009000280d8008000fd008000400046
:1011f800803e280000804000900078003040800049
:1012080000804000104188000080fa0000000600bd
:101218000000fa000080eb00601988002d03a90087
:1012280021c3bf003040b30021e3b70020c3bf0093
:101238007f40600001c6b3000140700020e3b700a2
:101248002043a8002143a8000000eb0010198800e3
:10125800f0322000201988000000eb008019880077
:10126800800020004019880085a0a90095a0a8004a
:1012780021e3a8000080fa00000006000000fa0040
:10128800301f2000200e88000000eb00a00e880010
:1012980080022000600e880070072000400e880041
:1012a800200e8000b00e8800200e8000c00e88003e
:1012b800200e8000d00e880010002000300e88001c
:1012c80020f02000500e880020002800000e880022
:1012d80070082000800e88000080fa0000000600d8
:1012e8000000fa0040168000e000b30040168800b5
:1012f80010002000100a88008420a9001000200097
:10130800300a880084a0a90010002000d00a8800b4
:1013180086c0a9000080fa00000006000000fa005c
:1013280000022000200888000000eb000008880068
:10133800901320001008880005e1a8000080fa003a
:10134800000006000000fa00000220009008880053
:101358000000eb00500888000080eb00700888004f
:1013680013e1a8000080fa00000006000000fa005f
:1013780020012000303a880044c7bf00f043b20083
:1013880044e7b700417420009140780000ceb300d4
:1013980000c0600044e7b700320020008107200049
:1013a800a009200033742000814978008049780022
:1013b8008249780012002000610420007005200096
:1013c8002374200081497800804978008249780098
:1013d80043c7bf0002c7b3008240600000c3b30028
:1013e80080cf5000faff3a0042c7bf000042b20067
:1013f8000004e000fcff3200c102a800c882a80077
:10140800f7fc070082ff0700c4ff0700cdff0700b5
:10141800b3ff070099ff070000003700c3c2bf00f1
:10142800614060000004e00010003a0000418000c4
:10143800610060000000e0000c003a00800c200011
:101448001e000700c3c2bf00614060000004e00046
:10145800f2ff3a005bfe0700c3c2bf0061406000b4
:101468000004e000fcff3200ecff3700c3c2bf00fd
:10147800614060000004e000e8ff3a00004180009d
:10148800610060000000e000e4ff3200800c2000f2
:101498000a000700c3c2bf00614060000004e0000a
:1014a800deff3a00affe0700c3c2bf006140600024
:1014b8000004e000fcff3200d8ff37000400fa0007
:1014c80010079800070037000000eb00000f7800b5
:1014d800010037001e0fe800703e20009e0f10002c
:1014e800fcff34001e0090000000e900100798007f
:1014f8001e009000e10f4000f3ff3a000080fa0060
:10150800000006001000fa00889fbe0060079800df
:1015180071079800200e800000004000000f78003e
:10152800ee009000c0e82600808f500002003400d2
:10153800c0e8260060079800fe00900090aa2200ec
:10154800808f500069003e007e00900040079800a0
:10155800a1aa22004e009000008050005007980079
:101568005e0090004600de000080fb008000400026
:10157800002928000080400010007800200798000b
:101588004e0090004600de000080fb008000400016
:1015980000292800008040001000780010079800fb
:1015a8002e0090006104b8006e0090006101b9003f
:1015b8000243b80003c0b9000702780000024200e5
:1015c8000990b90000024200840378004139dd0027
:1015d8004f30de0000007100cfb8de002007980011
:1015e8002e0090006104b8001e0078006101b80068
:1015f8000243b80003c0b9000702780000024200a5
:101608000990b90000024200840378004139dd00e6
:101618004f30de0000007100cfb8de0020079800d0
:101628001e0090006104b8006e0090006101b900ce
:101638000243b80003c0b900070278000002420064
:101648000990b90000024200840378004139dd00a6
:101658004f30de0000007100cfb8de0010079800a0
:101668001e0090006104b8001e0078006101b800f7
:101678000243b80003c0b900070278000002420024
:101688000990b90000024200840378004139dd0066
:101698004f30de0000007100cfb8de001007980060
:1016a8002e0090009e0010001e0090000080500048
:1016b8000000d10030079800ae0090001e00900096
:1016c800808040003e00900000804000b00e8800fe
:1016d8009e0090003e00900000804000c00e8800f0
:1016e8003e009000d00e880025023700fe009000d2
:1016f80040552500808f50006b003e00fe00900092
:1017080060552d000080400040079800a1aa2200e3
:101718004e00900000805000500798005e00900036
:101728004600de000080fb00800040000029280001
:101738000080400010007800200798004e009000bc
:101748004600de000080fb008000400000292800e1
:101758000080400010007800100798002e009000cc
:101768006104b8006e0090006101b9000243b8003e
:1017780003c0b90007027800000242000990b900ce
:1017880000024200840378004139dd004f30de005a
:1017980000007100cfb8de00200798002e009000ee
:1017a8006104b8001e0078006101b8000243b80067
:1017b80003c0b90007027800000242000990b9008e
:1017c80000024200840378004139dd004f30de001a
:1017d80000007100cfb8de00200798001e009000be
:1017e8006104b8006e0090006101b9000243b800be
:1017f80003c0b90007027800000242000990b9004e
:1018080000024200840378004139dd004f30de00d9
:1018180000007100cfb8de00100798001e0090008d
:101828006104b8001e0078006101b8000243b800e6
:1018380003c0b90007027800000242000990b9000d
:1018480000024200840378004139dd004f30de0099
:1018580000007100cfb8de00100798002e0090003d
:101868009e0010001e009000008050000000d10073
:1018780030079800ae0090003e00900000804000c5
:10188800b00e8800ae0090001e00900080804000de
:101898003e00900000804000c00e88003e0090008e
:1018a800d00e8800b60137007e0090000000e000ee
:1018b8006b003500fe009000b0aa2a0000804000ae
:1018c80040079800a1aa22004e0090000080500016
:1018d800500798005e0090004600de000080fb0084
:1018e8008000400000292800008040001000780097
:1018f800200798004e0090004600de000080fb00a4
:101908008000400000292800008040001000780076
:10191800100798002e0090006104b8006e00900037
:101928006101b9000243b80003c0b900070278009a
:10193800000242000990b9000002420084037800c6
:101948004139dd004f30de0000007100cfb8de0005
:10195800200798002e0090006104b8001e0078004f
:101968006101b8000243b80003c0b900070278005b
:10197800000242000990b900000242008403780086
:101988004139dd004f30de0000007100cfb8de00c5
:10199800200798001e0090006104b8006e009000b7
:1019a8006101b9000243b80003c0b900070278001a
:1019b800000242000990b900000242008403780046
:1019c8004139dd004f30de0000007100cfb8de0085
:1019d800100798001e0090006104b8001e007800ef
:1019e8006101b8000243b80003c0b90007027800db
:1019f800000242000990b900000242008403780006
:101a08004139dd004f30de0000007100cfb8de0044
:101a1800100798002e0090009e0010001e009000f5
:101a2800008050000000d100300798003e00900070
:101a3800b00e8800ae0090001e009000808040002c
:101a48003e00900000804000c00e88009e0090007c
:101a58003e00900000804000d00e8800480137000a
:101a6800fe00900090aa2a00808f50006b003e0074
:101a7800fe00900000002800008040004007980009
:101a8800a1aa22004e009000008050005007980044
:101a98005e0090004600de000080fb0080004000f1
:101aa80000292800008040001000780020079800d6
:101ab8004e0090004600de000080fb0080004000e1
:101ac80000292800008040001000780010079800c6
:101ad8002e0090006104b8006e0090006101b9000a
:101ae8000243b80003c0b9000702780000024200b0
:101af8000990b90000024200840378004139dd00f2
:101b08004f30de0000007100cfb8de0020079800db
:101b18002e0090006104b8001e0078006101b80032
:101b28000243b80003c0b90007027800000242006f
:101b38000990b90000024200840378004139dd00b1
:101b48004f30de0000007100cfb8de00200798009b
:101b58001e0090006104b8006e0090006101b90099
:101b68000243b80003c0b90007027800000242002f
:101b78000990b90000024200840378004139dd0071
:101b88004f30de0000007100cfb8de00100798006b
:101b98001e0090006104b8001e0078006101b800c2
:101ba8000243b80003c0b9000702780000024200ef
:101bb8000990b90000024200840378004139dd0031
:101bc8004f30de0000007100cfb8de00100798002b
:101bd8002e0090009e0010001e0090000080500013
:101be8000000d100300798003e009000b00e880039
:101bf800ae0090003e00900000804000c00e8800bb
:101c0800ae0090001e009000808040003e009000d2
:101c180000804000d00e8800d9003700fe009000f8
:101c280040552d00808f50006b003e00fe00900054
:101c3800605525000080400040079800a1aa2200b6
:101c48004e00900000805000500798005e00900001
:101c58004600de000080fb008000400000292800cc
:101c68000080400010007800200798004e00900087
:101c78004600de000080fb008000400000292800ac
:101c88000080400010007800100798002e00900097
:101c98006104b8006e0090006101b9000243b80009
:101ca80003c0b90007027800000242000990b90099
:101cb80000024200840378004139dd004f30de0025
:101cc80000007100cfb8de00200798002e009000b9
:101cd8006104b8001e0078006101b8000243b80032
:101ce80003c0b90007027800000242000990b90059
:101cf80000024200840378004139dd004f30de00e5
:101d080000007100cfb8de00200798001e00900088
:101d18006104b8006e0090006101b9000243b80088
:101d280003c0b90007027800000242000990b90018
:101d380000024200840378004139dd004f30de00a4
:101d480000007100cfb8de00100798001e00900058
:101d58006104b8001e0078006101b8000243b800b1
:101d680003c0b90007027800000242000990b900d8
:101d780000024200840378004139dd004f30de0064
:101d880000007100cfb8de00100798002e00900008
:101d98009e0010001e009000008050000000d1003e
:101da800300798009e0090003e00900000804000a0
:101db800b00e88003e009000c00e8800ae00900073
:101dc8001e009000808040003e009000008040008f
:101dd800d00e88006a003700fe009000b0aa2200ea
:101de8000080400040079800a1aa22004e00900001
:101df80000805000500798005e0090004600de000a
:101e08000080fb008000400000292800008040007e
:101e180010007800200798004e0090004600de0071
:101e28000080fb008000400000292800008040005e
:101e380010007800100798002e0090006104b80088
:101e48006e0090006101b9000243b80003c0b900f8
:101e580007027800000242000990b900000242001f
:101e6800840378004139dd004f30de000000710046
:101e7800cfb8de00200798002e0090006104b8005b
:101e88001e0078006101b8000243b80003c0b90021
:101e980007027800000242000990b90000024200df
:101ea800840378004139dd004f30de000000710006
:101eb800cfb8de00200798001e0090006104b8002b
:101ec8006e0090006101b9000243b80003c0b90078
:101ed80007027800000242000990b900000242009f
:101ee800840378004139dd004f30de0000007100c6
:101ef800cfb8de00100798001e0090006104b800fb
:101f08001e0078006101b8000243b80003c0b900a0
:101f180007027800000242000990b900000242005e
:101f2800840378004139dd004f30de000000710085
:101f3800cfb8de00100798002e0090009e00100019
:101f48001e009000008050000000d100300798006b
:101f5800ae0090001e009000808040003e0090007f
:101f680000804000b00e88003e009000c00e88003f
:101f7800ae0090003e00900000804000d00e880027
:101f88004f04be000080fa00000006000000fa00be
:101f98008020a900ffff37000000fa008060a90038
:101fa800ffff37000000fa008040a900ffff37005c
:101fb8000000fa008080a900ffff37000000fa0047
:101fc8008020a900ffff37000000fa008060a90008
:101fd800ffff37000000fa008040a900ffff37002c
:0c1fe8000000fa008080a900ffff370015
:020000040000fa
:101ff400060800001a00000002000000701700002c
:1020040000ff0400020300000501ff003801c800be
:1020140000000000cd0c480001000000711c00000d
:10202400200800001a000000000000000008000062
:102034000600000000000000f80f00000600000089
:08204400000000000000000094
:020000040000fa
:04204c000000fe0092
:00000001FF
