:020000040000fa
:080000000002040000000000f2
:020000040000fa
:100400002f92200080ff20000001880000000000e3
:10041000050007000c0007005a2102000000000040
:100420000040da000000fe004440a900c0072000a0
:100430000000e0000300320000002000a00188005e
:100440004440a80000000600a03322000100200064
:100450001600370062004000e080480091018800eb
:100460009001ba0062004000e080480091018800dd
:100470009002ba0062004000e08048000002eb00f9
:100480006028e10005003a008301e900070033001d
:10049000038009000059eb00040037006128e100e7
:1004a000010032000082eb00050007009101880086
:1004b0001001ba000200e000e6ff3a00000005006b
:1004c000910188008002780062004000e0804800ce
:1004d0003559ba008301e900080032002559ba00f5
:1004e0008301e900050032000400e000f4ff32005f
:1004f00015d9ba008301e900f1ff3a0000000600b7
:100500000000000000000000881f7800020478004e
:1005100014000700080040004f04780000000600a7
:100520000000fa00881f7800000478003fb99700a7
:10053000ea81570080007800402820001000070062
:10054000800078000000e000020035000040eb0071
:1005500000f47800010078004f0478000080fa0071
:10056000000006008001780002003700b1597800d1
:100570000201e9000200e000fcff3a000000060072
:100580006200fa00889fbe008a9fbe000004be0081
:10059000020578008300780060f92f000f0040000a
:1005a000b000070088979f0099979f000000eb001c
:1005b000a09f9f009a4578000b80fb000000ea0096
:1005c000cf04de0050c2b30080cf550002003200dd
:1005d00009047800010037000904e9000800e00080
:1005e0000b0034001f909700080178008a00780003
:1005f0008f9197000300010090979f000000e0009a
:10060000930032002f98970000004400a09f9f00a5
:100610000905450050c2b30080cf550004003200e8
:100620000b04e000e3ff3a002f98970089003700a1
:100630000000eb00809f9f00f0979f00e0979f00d5
:10064000d0979f00c0979f00b0979f00c09f9f00ca
:1006500009003700c08d20000080500000004000dd
:10066000018d2000e08078004f9897000100700015
:10067000c09f9f000a05e8001a4478008800fb002c
:10068000c08d20007c000700800078000000e000a2
:10069000f0ff3a00a0c2b300804f54000e003a00b1
:1006a000bf8897000180e900b08f9f00100078009c
:1006b000b09f9f000000e00005003d000000ea0040
:1006c000b09f9f004f9897000020a000c09f9f0000
:1006d0000a05e80010003700b19f9f0009003700ad
:1006e000bf989700f0ff2700808f50000400320071
:1006f0006a08b9000000410003004000b09f9f005d
:100700000a05e8001a01fb0003fd2f000300410069
:10071000e90f5000f2ff3600e0c2b3009a4f10001c
:10072000040032000080eb00909f9f008a04780054
:100730001c0037008a04e800a0c2b300994f1000e3
:1007400007003a00bf8897000180e900b08f9f0042
:1007500010007800909f9f008a84e8001100370005
:100760000000eb00909f9f00090037009f989700c2
:10077000f0ff2700808f5000040032006a08b900a3
:100780000000410003004000909f9f008904e800a2
:100790001901fb0003fd2f0003004100e90f500089
:1007a000f2ff3600194478008800fb008091200099
:1007b000310007000000e00002003a000044780029
:1007c000010037008904e800a87f9f0080c6b300bd
:1007d000804f540004003a00994f14000a003a0078
:1007e0006640500006003700c0c6b300804f54007a
:1007f00005003a00994f140003003a00654040009c
:10080000a07f9f008904e8000905e800c8fb2f00cd
:100810000f04440060f92f000f0040008085e800bd
:100820008801780019417800800078000b0078007a
:100830001a0007000000e00005003a008800780078
:100840000b007800930107000000e00059ff3d0015
:100850000080eb004f05be004f04be000080fa0090
:10086000000006000200fa00f1bf9f0001087800b6
:100870000080fa0000000600040037000204e000d7
:1008800001003a00000005000000e8001041780077
:10089000814f5100f9ff3a0000000600889fbe001a
:1008a0008a1f7800000478000102780082447800f2
:1008b0000305780070c6b300804f510021003c0052
:1008c00000c0e900804f5100df003d007240500041
:1008d000804f51004c0132000d003c006c40500034
:1008e000804f51005f013c0000c0e900804f510083
:1008f000d5003d0050c2b300804f51005601320078
:100900007c404000804f510056013a00ce00370035
:1009100010c6b300804f5100cb00320004003c00f1
:1009200069405000804f51004e013a00720037007c
:1009300030c6b300804f5100180032000040e8007c
:100940000900370000c7b300804f51001f0132007b
:1009500008003c0000c0e900804f5100e500320073
:1009600065003c006540500080cf54003d013a00d6
:100970000f00370050c7b300804f51005e003200b7
:1009800063404000804f51005b00320065405000e2
:10099000804f510033013a001b0137009180e9007c
:1009a000010a7800780090009171780033013700d7
:1009b000a8609000c0c6b30080cf50000a003a0083
:1009c0009400780064805000000a78001000be0097
:1009d0004f89de00cf91de000002be0002037800e6
:1009e000820378001300370010c7b30080cf500097
:1009f00003003200a0c6b30080cf500006003a00ca
:100a00009400780068805000000a78003002be0030
:100a10002003be00070037001480e900000a7800b8
:100a20001000780000027800cfa2de0005037800f5
:100a300086037800049cbe000694be00a860900067
:100a400080c6b30080cf50000e00320020c6b30035
:100a500080cf500005003a000400fb00cf80de008c
:100a600001017800820178000a00370040c7b30016
:100a700080cf5000030032006640400080cf50001d
:100a800006003a0004007800cf80de000101780003
:100a900082017800009cbe000294be003800be00b7
:100aa0002801be00e00f5000e08f5800e00f590011
:100ab000e08f590003003d0078009000d1c2b300e0
:100ac0000a003700081090000018a300030032004d
:100ad00078009000b1c2b300040037000008a30002
:100ae000540032007800900001c2b3000175780014
:100af0000000e8004e003700a8609000c0c6b300b8
:100b000080cf500007003a009400780064805000c5
:100b1000000a78001002be000003eb008603780094
:100b20001300370010c7b30080cf5000030032001d
:100b3000a0c6b30080cf500006003a0094007800b1
:100b400068805000000a78003002be002003be001a
:100b5000070037001480e900000a780010007800d0
:100b60000002780005002000060020000700200099
:100b7000049cbe000694be00a860900080c6b3002e
:100b800080cf50000e00320020c6b30080cf50004e
:100b900005003a000480fb00010020000200200054
:100ba000030020000a00370040c7b30080cf500088
:100bb000030032006640400080cf500006003a003b
:100bc0000400780001002000020020000300200043
:100bd000009cbe000294be00081090000038a300e4
:100be000140032003800be002801be00e00f5000a3
:100bf000e08f5800e00f5900e08f59000d003200df
:100c000080c7b30080cf54000300320080c5b3001a
:100c100080cf540007003a007800900001c3b30071
:100c2000017578008000e80009f578000080e80090
:100c3000700498007800900000004500600498005f
:100c4000894078006d003700a8609000c0c4b300f0
:100c500080cf500006003a00940078006880500071
:100c6000000a78005001be004000be0005003700b9
:100c70009400780064805000000a78001000be00e4
:100c800000080700009cbe000294be0038009000df
:100c90000000e00003003d0078009000d1c2b300e6
:100ca0000a003700081090000018a300030032006b
:100cb00078009000b1c2b300040037000008a30020
:100cc000050032007800900001c2b3000175780081
:100cd0000000e800700498007800900000004500d3
:100ce000600498008940780008007800330107000c
:100cf00064003700a8609000c0c6b30080cf5000e9
:100d0000250032000a003c006440500080cf5000b3
:100d10002800320000c0e80080cf500014003200ec
:100d20006840500080cf500022003a000a0037008f
:100d300040c7b30080cf50001e0032006640400024
:100d400080cf50001b0032006940500080cf50001f
:100d500018003a00060037001480e900000a780005
:100d600010007800485c9000084878004500370083
:100d70001480e900000a78001002780068089000ea
:100d8000cf80de000101780082017800009abe0069
:100d90000292be003b0037001480e900000a780090
:100da0001001780068089000cf80de000089be0046
:100db000340037001480e900000a78001000780041
:100dc000680c9000080878002e0037001180e900b8
:100dd0008008780010007800cf80de0001017800e4
:100de00082017800009cbe000294be007800900052
:100df000000045006004980081c7b3000800780037
:100e0000160307001f0037001480e900000a78006d
:100e10001000780060049800580990000200e0007b
:100e200002003d00c4030700090037008000eb000a
:100e3000c8030700800078000000e00003003200d3
:100e400068009000008050000100370058089000b2
:100e5000100c98000b0037007800900002757800a5
:100e60000600370078009000800045000904e0008b
:100e700001003a0059c2b300894878000000e80038
:100e8000700498000000eb004f0578004f04be008e
:100e9000000006000400fa00889fbe008a9fbe0082
:100ea0008c1f78000004780001067800700890001c
:100eb000f8009000010050008808900001005000e8
:100ec0009808900001005000a80890000100500010
:100ed000b808900001005000c8089000810550003b
:100ee0000002220090bf9f0000032300a0bf9f00cc
:100ef000081090000028a30018003a000b00e00042
:100f0000160034008b04780009057800e28f540045
:100f1000020036002a002000020037000900e0002d
:100f20000b00340058009000c80190000a017800be
:100f3000ee80570003000100500498000000e0001c
:100f4000960032006808900000004500600c980090
:100f50008a8454004240a900ebff3c0078019000d5
:100f60000200e0000b00340058009000c80190001f
:100f70008c00780003000100500498000000e0009d
:100f80008600320068089000f800900001004000e0
:100f9000600c9800880c90000900e00015003400f7
:100fa00009057800e28f5400020036002a00200074
:100fb000020037000900e0000b00340058009000e8
:100fc000c80190000a017800ec805700030001007e
:100fd000500498000000e0007000320068089000a3
:100fe00000004500600c98008a8454004240a9002b
:100ff000ebff3c00180990000200e0000b003400f9
:10100000e800900058009000c80190000300010023
:10101000500498000000e000600032006808900072
:101020009808900001004000600c9800a80c900007
:101030000900e0001500340009057800e28f540033
:10104000020036002a002000020037000900e000fc
:101050000b00340058009000c80190000a0178008d
:10106000ec80570003000100500498000000e000ed
:101070004a0032006808900000004500600c9800ab
:101080008a8454004240a900ebff3c0038099000dc
:101090000200e0000d003400e80090001808900005
:1010a0008080400058009000c801900003000100bb
:1010b000500498000000e0003800320068089000fa
:1010c000b808900001004000600c9800c80c900027
:1010d0000900e0001500340009057800e28f540093
:1010e000020036002a002000020037000900e0005c
:1010f0000b00340058009000c80190000a017800ed
:10110000ec80570003000100500498000000e0004c
:10111000220032006808900000004500600c980032
:101120008a8454004240a900ebff3c000810900064
:101130000028a3001b0032000b00e000190034005f
:101140008b04780009057800e28f54000200360015
:101150002a002000020037000900e0000b003400e4
:1011600058009000c80190000a017800ee805700f6
:1011700003000100500498000000e0000700320066
:101180006808900000004500600c98008a845400b4
:101190004240a90003003400eaff37000080eb0062
:1011a000010037000000eb004f0678004f05be003d
:1011b0004f04be000080fa00000006000f05b000da
:1011c000889fbe008a9fbe008c9fbe008e1f780045
:1011d000f0b79f0081f79f005001be004000be00a5
:1011e000b0979f00c1979f00d2979f00e3979f0001
:1011f00010c6b3000ff19700804f51001600320067
:1012000010c4b300804f510013003200ffb19700ab
:10121000530890000000e00003003d006000200043
:10122000d00998000c0037000000e0000a003a00e6
:1012300070c6b3000ff29700804f520003003200d7
:1012400070c4b300804f520003003a001000200029
:10125000ffb29700d00a9800ffb0970040fa2f0025
:101260000f004000c602070080017800e20f500026
:1012700015003a0030002000ffb097009008980059
:1012800010c6b3000ff19700804f51000a003200e2
:1012900064404000804f5100070032000040e800e9
:1012a000804f510004003200618e20000040e800b1
:1012b000804f510001003a00a18e2000ffb197003d
:1012c00063009000160037000000e00018003400b2
:1012d000300020007fb29700100a980010c6b300bb
:1012e0008ff2970080cf52000a0032006440400025
:1012f00080cf5200070032000040e80080cf52004b
:1013000004003200e18e20000040e80080cf52004f
:1013100001003a00218f20007fb197006200900009
:10132000315878003158780011487800c5013700ed
:1013300014c6b3008ff2970084cf5200030032002e
:1013400010c4b30080cf520013003a007fb0970062
:10135000600190008200780000c3b30080587800dc
:10136000ffb29700e102980080c7b3008ff29700a8
:1013700084cf52000100320080c5b300804878005d
:101380000280e800ffb09700e00098007100900034
:101390000080e800f00098000300e00005003a003b
:1013a000a3979f0064fb2f000f0142000307780002
:1013b0009f013700658f2000e5b79f0010c6b3007e
:1013c0008ff0970080cf50000500320010c4b300aa
:1013d00080cf50009f003a0072902000e2b79f003b
:1013e000ffb19700530890001e0220000000e000ab
:1013f000010035000007e8000e02e800d4b79f00a6
:101400006022b8006033b8003f909700cf909700fb
:101410005f919700ef91970039060700ffb09700a2
:101420003102be002103be000000e00004003d00c8
:101430000400be000601be0003f0a2000200370057
:101440000400be000601be00b0979f00c1979f0038
:10145000d2979f00e3979f002f919700640151005e
:10146000a2979f0043fa2f008f81410072804100b4
:101470000048eb0073824100c4b79f003000370082
:10148000c20120000300200065fa2f000f804200f7
:10149000670207003f949700cf9497005f959700ed
:1014a000ef9597000800be000a01be00190607006c
:1014b0000006be005fb1970067015100d2b79f00e0
:1014c0004240a9000a0034003e0607000002be00a8
:1014d0000203be000800be000a01be003c06070071
:1014e000b0979f00c1979f00d2979f00e3979f00fe
:1014f000cfb19700678041007100200005003700e0
:101500006f6066004c6add004466de000c06720007
:10151000c4eede00e00f5600e08f5e0004003400f1
:101520008100e900f6ff3b00010037000060eb009e
:101530008100e900fdff3b0067004000c0b79f004d
:10154000dfb297000500e000090034006022b80017
:101550006033b8003f909700cf9097005f9197005d
:10156000ef9197001c0607000000e000c4ff3c005c
:1015700060fb2f008f0040004fb197000100510029
:101580000000e9008e0f500001003d0000077800c8
:101590000e00e00003003d0073fb2f000f814100af
:1015a00025003700800f570005003d000e804000e9
:1015b00010409000f4c0b300e74f500001003c0021
:1015c0000042eb000e007800010037000e07e90032
:1015d0000000e90075fb2f000f81420080014100ef
:1015e0009340780084cf5000f8ff3200ef4f520054
:1015f00001003a008149e8000000e00006003d00db
:101600000e07e8002f90970064004000a0979f000d
:1016100061fb2f000f8140008e017800040037002d
:10162000830041001100fb006fb29700e44878008e
:101630008301e900faff3b00ffb2970055089000d4
:101640000000e000fa003d000e00e900d00a98001a
:10165000f70037003f949700cf9497005f9597006d
:10166000ef9597006022b8006033b8000800be0014
:101670000a01be00a20507000000e00005003d00d1
:101680000bf0a200b8979f00c9979f00da979f00c0
:10169000eb979f002f909700725927000280b900a6
:1016a000026a28001300200005040700e40050002f
:1016b000a1979f0019003b00e3801000c0ff2f009e
:1016c000008460000800ea00a0979f0009802000c5
:1016d0000f0037000808a3000b0032003902be00db
:1016e0002903be003f909700cf9097005f9197002d
:1016f000ef919700bd050700b0979f00c1979f002d
:10170000d2979f00e3979f000884d100e8844400ab
:101710000800e000efff3c001f0037000100e00080
:101720001d003400c0ff2f0000806000a0979f00c4
:10173000000478006000b8000200200003ff2300ce
:1017400009802000070037000808a30003003200ca
:101750003902be002903be00a40507000884d10099
:10176000e88444000800e000f7ff3c000002be00ef
:101770000203be003f909700cf9097005f919700c3
:10178000ef9197000e060700b0979f00c1979f004a
:10179000d2979f00e3979f00ffb0970051099000f8
:1017a00060c6b3008ff1970080cf51000400320073
:1017b0006100200060c4b30080cf510002003a00f5
:1017c0002f929700ea00420001074100f30f5700f3
:1017d000010034003e01200000c3b300e0779f0009
:1017e00075fb2f008f824200b5b79f00390037008c
:1017f0000800be000a01be00460507000006be0044
:10180000680757004240a9000e0034006d0507002c
:101810000002be000203be000800be000a01be00b6
:101820006b0507006022b80046782d007719240068
:101830006e050700b0979f00c1979f00d2979f0049
:10184000e3979f003fb09700680540008b002000a1
:101850001400370041fa2f008f804000ea844000d6
:1018600001047800a803b000a400200005002000b7
:101870000c01be0008007800e60107001801be0058
:10188000828cbe001fb29700afb29700949f9f005a
:10189000a59f9f002f70970005c3b300056540000a
:1018a0001906be00e00f5600e08f5e000500340010
:1018b0008b05e900e7ff3b000200370000c3b300df
:1018c000006578008b05e900fcff3b0068054500da
:1018d000bab79f000e00e0000b0034003f94970061
:1018e000cf9497005f959700ef9597006022b8001e
:1018f0006033b8000800be000a01be0036050700cc
:101900000000e000baff3c0041fa2f008f80400049
:10191000728040003fb19700000051000002e900d2
:10192000af919700e7814100a3979f00738140002a
:10193000050037000402e900af9297008502e90034
:10194000a5979f000201e80000c3b300924f10006a
:10195000f8ff32007fb09700d009900060c6b30056
:101960008ff0970080cf50000300320060c4b300b6
:1019700080cf500003003a00af9297008500e80046
:101980000a00370050c6b3008ff0970080cf500098
:10199000050032008000eb0050c4b3008ff29700c6
:1019a00080cf520001003a00110020000187410061
:1019b0008e0f520001003d00040778000e00e00089
:1019c0001b003500840f570005003d00e2407f00fa
:1019d00095c3b30040c3b30080cf500001003c006a
:1019e00005c3b3008e007800010037000e07e90040
:1019f0008100e900010241009441780085cf510047
:101a0000faff320090c3b30080cf520001003a00c9
:101a1000034ae8000100e00005003d000201e90082
:101a20000e07e8002f9097000000e800a0979f00a5
:101a30002f9297008e0178008ff097007fb097006b
:101a4000910107004f0778004f06be004f05be000a
:101a50004f04be000f05b10000000600ef02b00009
:101a6000889fbe008a9fbe008c9fbe008e1f78009c
:101a70008006780000012000b0b79f00928520000a
:101a8000c2b79f0080c5b30080cf50000e00320067
:101a900083002000b3b79f0084842000c4b79f0058
:101aa0007740400080cf5000070032000001200046
:101ab000b0b79f0080c7b30080cf50000200320053
:101ac000a2002000b2b79f003d04be002d05be005d
:101ad00040c6b30080cf5000030032006540400094
:101ae00080cf50000b003a00e00f5400e08f5c0004
:101af000e00f5d00e08f5d0006003d006000b80073
:101b00006011b80008045000898458000a05590083
:101b10008b855900e00f5400e08f5c00e00f5d0002
:101b2000e08f5d0004003a005d0890008e01200007
:101b30000000e0000c003200bfb197000302780003
:101b4000cfa2de0005037800860378000800be00ff
:101b50000a01be00fd0507004fb2970064407800ff
:101b6000d0df9f007e0120003fb097000002780088
:101b7000cfa2de0005037800860378000800be00cf
:101b80000a01be00ea05070023003700bfb0970036
:101b900001047800cfc4de00090578008a057800ca
:101ba0000802be000a03be007fa897008fb097000e
:101bb0001fb19700afb19700e8050700d0b79f00ad
:101bc000e1b79f00f2b79f0083bf9f000e07e900b7
:101bd00062fc2f000f0141000e0641000802be000a
:101be0000a03be005fb09700efb097007fb1970087
:101bf0008fb99700550607007faa97000000520092
:101c0000cfb09700614e78005fb09700efb09700bb
:101c10007fb197008fb99700809ebe008296be006c
:101c20003d00be002d01be00f0af9f0081b79f00b8
:101c300092b79f00a3b79f00e00f5000e08f5800bd
:101c4000e00f5900e08f5900020034000e00e00060
:101c5000ceff3c00bfb09700e88f500010003a0064
:101c60000d1090000038a3000d003200f70f570050
:101c700006003e0062fc2f000f0141008e00410073
:101c800000c3b300914f1000050032000e07e900b9
:101c900000c3b30063fc2f008f81410080717f007f
:101ca00078011700920e98006d00900063fc2f00e1
:101cb0008f8141008e8041002afa07001d099000a3
:101cc0005d089000800f510006003d0002005000aa
:101cd000800e98000d1090000040a1008016980022
:101ce0000f0037000000e0000d003d000d109000d7
:101cf00074006000f00f500009003a007d08900069
:101d0000fd009000010050008d089000010050007f
:101d1000020050004240a90001003400800e9800eb
:101d20004f0778004f06be004f05be004f04be00af
:101d3000ef02b100000006008000780001003700cb
:101d40000000e8001004e000fdff3a000100500030
:101d5000000006000600370090cf100002003a0095
:101d600000017800040037000000e8000201e900eb
:101d70000200e000f8ff3a000200780000000600d0
:101d8000889fbe00800478006684400000ff270022
:101d9000180060004401de00f07f2000800f510039
:101da0000e003a00800ceb00180478006f0064000d
:101db0001c003a00210090000000e00019003a00e9
:101dc000110090000000e00016003a001000200012
:101dd0001100e00014003200120037000200e000a1
:101de00005003c0001007800de01070000017800da
:101df0000000e00008003c00f0002800180060002f
:101e000001fe2300010c700020c02f00800c410057
:101e10000080eb0004003700800ceb000000eb00ba
:101e200001003700200020004f04be000000060023
:101e3000889fbe008a1f78008c9fbe000004780037
:101e40000206be00e6044000190178000200d0003e
:101e50004505de008a007800f07f2000800f5500e5
:101e60000c003a006f00610065003a002800900005
:101e70000000e00062003a00180090000000e0005e
:101e80005f003a00100020001800e0005d00320002
:101e90005b0037000a00e00007003a000800780005
:101ea000b0010700800078000000e000020034006c
:101eb0000a007800530037006108b9000c014000a7
:101ec0008d814800e07f2000800f5100e08f590095
:101ed0000d0034001900e00004003d006000b8006f
:101ee0000200200003ff2f00030037006000b8004d
:101ef0000200200003ff2700009cbe000294be00e9
:101f0000100020003f003700e00f5100e08f590023
:101f100005003400f000280019006000c410dd0046
:101f2000810c70003400370019007800010028008f
:101f3000010360006f0060000040a000800c78008a
:101f400061015100e0815900c0fc2f00f1ff2f001a
:101f5000800f5100818f59000d003d00860c7800e4
:101f60000000eb002004980010049800000c78009a
:101f7000240037008880e800110c780064004400d9
:101f80009008780019087800800ceb00700141007f
:101f9000f00f4100f7ff34008202ea001500320022
:101fa0008881e80070821200980078008508de00c1
:101fb000130078000400dd00008c70006401440010
:101fc000930078008508de00120078000400dd0030
:101fd00080897000920078008508de001900780082
:101fe0000400dd0000897000190078000500de00a3
:101ff000800c7800990c73000080eb000100370022
:10200000200020004f06be004f0578004f04be00a0
:10201000000006000400fa00889fbe008a9fbe00f0
:102020008c1f78000006780092bf9f00a3bf9f001e
:102030000404be000401be001fb89700afb89700ab
:102040009f0107000005be000001be000800be00a1
:102050006c0507001fb99700afb997000000510049
:102060008180590020069800310698000a8ebe0033
:102070000c0078004f0678004f05be004f04be00ec
:102080000080fa0000000600f4874700889fbe0029
:102090008a9fbe008c9fbe008e1f7800800478004f
:1020a00001457800020678000304780004077800f0
:1020b0000300e00002003c00180020000c92200009
:1020c00060c6b300804f55000e00320060c4b300fc
:1020d000804f55000b00320070c6b300804f550092
:1020e0000300320070c4b300804f55009c003a00da
:1020f000e40f47008000350059089000800f57001a
:102100007d003d008e05e80060c6b300804f55009d
:102110001000320060c4b300804f55000d00320043
:10212000091090000038a30004003a0059089000fc
:10213000800f540001003d00d80c98005908900011
:102140000b005000d00c980002003b000000eb0098
:10215000d00c98000b00e00027003c00190990000b
:102160006900900001c3b300017079008201e800aa
:10217000930c9800590890000000e00003003c0018
:10218000091090000038a30005003200690090009b
:10219000e1c2b30001f079000280e800900c9800e1
:1021a000d90890000b00ea00808f500001003d002c
:1021b0008105ea000b00ea00a00c980001804500b0
:1021c000d00c9800880f500001003d0000047800fa
:1021d000b80c980069009000990890000100400038
:1021e000080178008c007800def80700590890009c
:1021f000080050001a00370099089000690090000c
:102200008b0f540018003d000100400008017800c9
:102210008c007800d3f807001908900000014400f2
:10222000920c980008805500a00c98005908900066
:102230000000e00003003c00091090000038a300fb
:1022400006003200e9009000e0c2b300807079001f
:10225000390890000000e800b00c98005908900080
:10226000c00c9800a7003700010040000b01780067
:102270008c007800bbf80700190890000081450029
:10228000920c98000b045400590890000000e000e4
:1022900003003c00091090000038a3000500320044
:1022a00069009000e1c2b300017079000200e8000b
:1022b000900c980059089000880f500001003d00d4
:1022c0000004780069009000990890000100400027
:1022d0008b00460008017800a2f80700190890005a
:1022e00000004400900c980059089000080050002d
:1022f000a00c98008300370070c6b300804f5500d3
:102300000300320070c4b300804f550014003a003f
:1023100059089000800f540004003d0009109000ff
:102320000038a30001003a00d80c9800590890002a
:102330000000e900d00c980002003b000000eb0018
:10234000d00c980070c6b300804f550002003a00d0
:102350005ac6b3000b0037005ac4b3000900370057
:1023600010c6b300804f550002003a000ac7b30000
:102370000400370010c4b300804f550001003a003c
:102380000ac5b30019099000690090003c707900fb
:102390008201e800930c98000c0278005908900024
:1023a0000000e00003003c00091090000038a3008a
:1023b00017003200e9009000e0c2b30080f079001d
:1023c0008280e800910c9800590890000000e0001d
:1023d0000f0034000804e900880f500001003d00a0
:1023e0000004780069009000008040000801780037
:1023f000840078005bf80700190890000000440092
:10240000900c98005908900008005000a00c98000b
:102410006900900099089000010040008086e80063
:102420000a587800800078000e00e00004003500b3
:10243000b0c2b300804878008d05780004003700f2
:10244000d0c2b300804878008d0578000e07ea00fe
:102450000006eb000d00370072845700a200200038
:102460008e007800080078008a00070000fe2f0028
:102470000f0040001801be000298be00afe19700b7
:1024800003707e000fb797000c06e8000e00e00016
:10249000f1ff3c00e10f56000e003c0050c6b300b7
:1024a000804f55000300320050c4b300804f5500e8
:1024b00003003a0000c3b300805e78008d05780009
:1024c0000c00e00008003a0000c3b300805d780013
:1024d000070037000c06e9007c8057000c00400024
:1024e00001c3b30090dd40000c00e000f9ff3c00a8
:1024f000690090009908900001004000008055009c
:10250000b00c98000910900074006000f00f5000ab
:102510000e003a00790090009908900001004000f8
:10252000a908900001004000b90890000100400097
:10253000c90890008100400079089000808f500009
:1025400002003d0001005000800c98004f07780009
:102550004f06be004f05be004f04be004f01b10044
:102560000000060000027800e60240001500780036
:1025700001002800810360006f006000800a78007d
:1025800012003a00240090000000e0000f003a0022
:10259000140090000000e0000c003a00160020003b
:1025a0001400e0003800320008003700e400420068
:1025b000910a78000480e8009008780014087800f8
:1025c000000aeb00700353000100370016002000e2
:1025d0001500e000f5ff32001300370064014200ef
:1025e00080004000120078004f00de00808a7000fa
:1025f0008481e80092007800818040001300780018
:102600004f00de0000897000930078008180400058
:10261000140078004f00de008089700014007800fc
:10262000000a40000603e90015007800ef0f500093
:10263000eaff3600100037000481e8009400d10062
:10264000120078004f00dd00008a7000e4004200b4
:102650009201d100110078004f00dd000089710067
:102660001101d100150078004f00dd0080087100d5
:10267000950ad1000603e80015007800ff0f50000e
:10268000edff3e00ef0a6000958a730006007800b7
:102690000000060002027800809fbe0011000900c1
:1026a0008200d800000178004f00be0002a2b900ed
:1026b0008480500011009800020878000000060095
:1026c000839f68000100e00002003d0060001000f0
:1026d000e08018000300e00002003d0060011100ee
:1026e000e0811900040107004f00e00002003b00f8
:1026f00060001000e080180000000600889fbe0007
:102700008a9fbe00010578000100e000040035004a
:1027100008003c000000e000200032000500370007
:1027200060001000e080180002003b0001f02c0067
:102730001a0037000004be006011b8006b092000c9
:102740000982cf00020039000882cf000441b000a6
:10275000694252000e00320008003b008281710085
:10276000610164008904d1000884d3008b05e8006e
:102770000442e800f9ff3a0005003700080444006d
:1027800089844c008b05e9000442e900fbff3a0014
:10279000e90007000af0a70001f0a0004f05be0005
:1027a0004f04be000000060003f0a200889fbe0098
:1027b0008a9fbe008c1f7800050107000c013300c2
:1027c0006450e1004f0032006420e100520032000a
:1027d00003826c0007003b000905d0000306d0000f
:1027e000820f54000c065d00020039000200320026
:1027f00089017800030678008582550004003d00b9
:102800000003fd008103fd008502ea008b85420084
:10281000840f720002003b0060001000e08018008e
:102820006011b8000005eb007a28e1000a003900c9
:1028300006007800c75ddd00f707b20087807500ed
:102840002d003700828171000a0178006105600067
:102850008180d1000080d3008502e900f9ff3b00b0
:10286000060440008784480002003b006004140016
:10287000e0841c000988a300070032008a817100ef
:1028800082817100610164008904d1000884d30051
:102890008b05e800170037000978a30013003a0001
:1028a0000b00e000130034008b05e900080444002d
:1028b00089844c000a4474000978a3000d003a0092
:1028c0000b00e000070034008b05e9000804440019
:1028d00089844c0001003a000b0020000978a30015
:1028e000f7ff32000001eb00020037008281710027
:1028f0000a017800900007000cf0a70001f0a0008a
:10290000c40037006420e10002003a00838f6c00ad
:10291000c40033000801be000200be00bd00370045
:10292000889fbe008a9fbe008c1f7800a800070009
:10293000af00330003866c006450e10024003200d5
:102940006420e100270032006150e10022003200e3
:102950006120e100210032008b854200eb07b100cd
:102960000134b800003ab8000804420089844a00e3
:10297000013ab8000030b8008880400009014a00e0
:10298000040033000000400081804800020149003b
:102990008b05e900c909dd008301700001003200e8
:1029a00013002000c814de004814dd004709de00d3
:1029b0001200b200c808de00088470005e00070044
:1029c00001f0a1000cf0a70001f0a0009100370079
:1029d0006120e100930032000801be000200be0049
:1029e000f7ff37006150e100fcff3a008d0037002f
:1029f000889fbe008a9fbe008c1f7800740007006d
:102a00007b00330003866c006450e1002e0032002e
:102a10006420e100330032006150e1002f003200f9
:102a20006120e1003100320085855500eb07b000e0
:102a300009002000080420000500370008044400b5
:102a400089844c000a0031000603430087834b0051
:102a50000001530081815b00f8ff33000203be00d8
:102a60000800a0000804440089844c00f6ff3900e7
:102a7000c639dd008301730001003200130020001d
:102a80008904d1000884d3000998a300050032000e
:102a90000800a7000300a0008904d1000884d30027
:102aa0008b05e8008904d1000884d3000001eb0005
:102ab0000281d2002000070001f0a1000cf0a70065
:102ac00001f0a000530037006420e10055003200ff
:102ad0000801be000200be00f7ff37006120e100e0
:102ae000500032006000b800f3ff37000000200003
:102af00001f82700f0ff37006022b800060220002e
:102b00000000d0008180d2000482d2008582d200f1
:102b10000000a0000202520083825a00030031002c
:102b20000202420083824a000000a1000603e9007d
:102b3000f3ff3a000000060081002000618055008c
:102b40000b003d000b00200061fe2f000100e100a2
:102b50001d00340082817100610164008904d1008c
:102b60000884d3000000e800faff3a00710020005a
:102b70006100640003007000020060000900320080
:102b800061044400e0844c000988a500050032007f
:102b90008b05e8006808e10002003a008904d100d2
:102ba0000884d300f20f20000258e10005003d0028
:102bb000c75ddd00f907b200898075000800780064
:102bc000000006000bf827008b00780000000500cd
:102bd0000004be00160007000003be000405be008e
:102be0000200be0012000700844f750000000600be
:102bf0000200be006450e100050036006420e100e0
:102c0000020036000968a30001003a000800be0077
:102c10000160a0004f0678004f05be004f04be00c3
:102c200000000600f0ff2f00f1ff2700f9ff37003a
:102c3000c70ade00f107b200f50fb200080032004b
:102c4000e1cf4200020032000170a0002400050024
:102c5000810f7000010032000408050044000500e7
:102c6000810f700002003a00140005008502e9009f
:102c70000000400081c04800fcff3b000170a00044
:102c80002400050081037800e9ff07000001be0071
:102c90006000b8000478a30013003a006220e1004d
:102ca00015003e000d0039008301d1000281d300e0
:102cb0008180d3008301d1000281d3008180d300c1
:102cc0008301d1000281d3008180d3000538b00098
:102cd000c42add00f300b2008381720007f0a70070
:102ce00003f0a00000000600f3ff2700f2ff2f0012
:102cf0006110b900fbff370003ff2700f7ff370023
:102d00008f1fd100450207008f87e9000000e00017
:102d1000000006001400fa00889fbe008a9fbe00d3
:102d20008c9fbe000004be000205be006800470084
:102d30000a90be000890be00610207000070a70064
:102d40000bf0a100304320009e02900080825200d0
:102d5000b0fe2f000028e10011003d00b0fc2f0064
:102d60000028e100150034001e0990008e08900034
:102d70007e0090000501b0000201d1008180d300e7
:102d80000080d3008502e800fbff3a000b00e00062
:102d900086023b0060001000e080180083023700cc
:102da000f0ff2f00f1ff27000b00e0007f023b0047
:102db00001002800000020007c0237006000b800fd
:102dc0007a0237004f89de00820178007c023700ea
:102dd00007f0a200b1023700809feb000f0207004e
:102de0008f87e9000000e000000006002800fa00dc
:102df000889fbe008a9fbe008c9fbe0003866b002a
:102e0000560207000028a30064003a000128a3002e
:102e100067003a000008a30062003a000108a3001e
:102e200065003a001e009000be0890008106400038
:102e3000ed3fb100f4805700ee019000111ab80088
:102e40008e099000311bb8009e099000311cb8001b
:102e5000511db800f485570046000700fe019000a0
:102e60003a0007008b85e8003e0007008e099000bd
:102e700040000700ee019000340007008b85e80059
:102e8000380007008e099000400007009e0990005e
:102e90001b18b800890440000a854800fe01900014
:102ea000340007008b85e80038000700ee01900031
:102eb000300007008e0990001b18b80089044000fc
:102ec0000a8548000a98a30008003a00040242005c
:102ed00085824a0006034b0087834b0008044c00a0
:102ee00089844c000a054d008d06e9008482720039
:102ef000850273004c3add00850272000100320049
:102f000015002000443ade001400b2004538de000f
:102f1000cb45dd000b007000c540de00cb4ddd0071
:102f20008b8070004549de00cb55dd000b01710040
:102f3000c551de000d037800d502070003f0a100a3
:102f40000cf0a70003f0a000180237001b18b8000f
:102f50008502400006834800e0834b0060044c007b
:102f6000070037001b18b80006034000878348009d
:102f7000faff37001b18b800870340000884480098
:102f8000e0844c0060054d00000006001b18b800ee
:102f90000804400089844800faff37000108a300b4
:102fa000ff013a005800be005801be00e3ff3700a1
:102fb0000008a300fa013a0009047800f9ff37007d
:102fc0002800fa00889fbe008a9fbe008c9fbe002a
:102fd00003866b00e10107006400e1004400320059
:102fe0006408e1004a0032006100e100460032005e
:102ff0006108e10049003200ec0647006000b800bb
:103000003d02be003d03be00f48657006011b800cb
:103010003d04be003d05be007d0320000b003700cf
:103020000000a0008d06e9001300320004024200f7
:1030300085824a0006034b0087834b000000400056
:103040008180480002014900838149000802520042
:1030500089825a000a035b008b835b00f0ff3b0010
:103060000802420089824a000a034b008b834b000e
:103070008d06e900edff3a008482720086827200bc
:10308000f707b200878272000100320015002000ad
:103090001e0490003e0b900006035400e63fb00073
:1030a0000368a300070032000000a7000500a0008d
:1030b0008301d1000281d3008180d3000080d3003e
:1030c0000603e8008301d1000281d3008180d30090
:1030d0000080d3000002eb000482d2006c020700e3
:1030e00003f0a1000cf0a70003f0a000af0137002f
:1030f000640247006408e100a90132003400be0008
:103100003401be00f6ff37006108e100a40132007f
:103110006011b8006000b800f1ff370003ff27001e
:1031200002002000fbff3700881f780000047800b1
:103130005001be004000be000400400085804800f1
:103140000601490087814900009cbe000294be0030
:103150000400e1000588e1000690e1000798e10025
:1031600002003100680044001008e8004f047800b5
:10317000000006001000fa00889fbe008a9fbe0073
:103180003004be002005be00c8b79f00d9b79f001d
:10319000eab79f00fbb79f000404540085845c00dd
:1031a00006055d0087855d0088bf9f0099bf9f0071
:1031b000aabf9f00bbbf9f000898be000a98be0030
:1031c0008000eb004fb49700dfb497006fb5970015
:1031d000ffb597000440e10005c8e10006d0e1001a
:1031e00007d8e10001003100110020001088100014
:1031f0004f05be004f04be000080fa00000006002c
:103200001200fa00889fbe008a9fbe008c1f7800c3
:103210000205be000004be00f4b79f0085bf9f00fa
:1032200096bf9f00a7bf9f000000eb00e0b79f0084
:10323000d0b79f00c0b79f00b0b79f00a0b79f0056
:1032400000067800dfb097006fb0970000014000e3
:103250000000e0000a003d008c00070001003d0076
:10326000120020009200070001003d001200200023
:10327000970007007c805700abff0700090037006c
:103280008200070001003d001200200088000700b6
:1032900001003d00120020008d0007007c805700d7
:1032a000b4ff07006fb297000400e000070035008c
:1032b00010002000010020006011b8000804700018
:1032c000898470000a0571008b8571000c06e80086
:1032d000f0032000800f5600daff34000400e00005
:1032e00006003d007fb297008fba97001fbb970082
:1032f000afbb97007c8057008bff07006fa897003b
:103300000000e00004003a002fb49700bfb497001b
:103310004fb59700dfb59700890007004f0678008a
:103320004f05be004f04be000080fa0000000600fa
:10333000881f780018002000881f7800b0ff070061
:103340008f87e9004f04780000000600801feb0023
:10335000abff07008f87e90000000600889fbe00d2
:103360008a9fbe008c1f78006e00070005003d009c
:103370002f00070007003d003d0007000006eb009e
:10338000040037003f00070002003d003000070046
:103390001c0020006a000700e5ff07000203be00d2
:1033a0000002be000c00e00001003200280007000f
:1033b0000400be000601be004f0678004f05be00a7
:1033c0004f04be0000000600889fbe008a9fbe001a
:1033d0008c1f78005300070003003d001400070015
:1033e00006003d00040037002600070003003d00f2
:1033f0006000b8006011b8001d0007005000070011
:10340000d2ff07000203be000002be000c00e00075
:10341000010032000e0007000400be000601be00dd
:103420004f0678004f05be004f04be0000000600a6
:103430006000b8006011b80008045000898458008a
:103440000a0559008b8559001c0020000300370035
:103450006000b8006011b80005003700e00f5200ae
:10346000e08f5a00e00f5b00e08f5b000000060079
:1034700004025000858258000603590087835900d2
:10348000000006000006eb00f4ff37004f08de00e6
:1034900000007100c0b79f0001804000b0b79f00de
:1034a0000001eb00afb097000100e0000000060053
:1034b00002007000b0b79f0001804000a0b79f00dd
:1034c0000001eb009fb097000100e0000000060043
:1034d00002007000a0b79f00018040000fb297006b
:1034e000cf20de000100700090b79f000402420070
:1034f000130007004f18de000002720084b79f001f
:103500000804440089844c000a054d008b854d0059
:103510005fb29700efb297007fb397008fbb970021
:10352000000006000205be000004be00e00f5000cf
:10353000e08f5800e00f5900e08f590000000600ae
:103540000800be000a01be0000000600889fbe0001
:103550008a9fbe008c1f78000205be000004be00da
:103560000006eb00e00f5000e08f5800e00f59001c
:10357000e08f590007003d006000b8006011b800fe
:1035800008045000898458000a0559008b855900a9
:103590001c002000e00f5200e08f5a00e00f5b009b
:1035a000e08f5b0002003d000f0007000c00a2004e
:1035b0000800be000a01be00610107000203be0050
:1035c0000002be000c00e00001003200060007000f
:1035d0000400be000601be004f0678004f05be0085
:1035e0004f04be00000006006000b8006011b80083
:1035f0000402500085825800060359008783590051
:1036000000000600020ab900001bb9000200b80061
:10361000810042008100430000000600889fbe0038
:103620008a9fbe008c9fbe000404be000605be003b
:10363000809fbe00829fbe006301070004067800e1
:103640000800be000a01be005f0107008406780082
:103650004f03be004f02be008d4f76007fb0970033
:1036600013003300f0ff2f008b8f6b0006003b0030
:103670000d0666000c00a7000a00370007f0a60040
:10368000100020000a003700880f5200898f5a006e
:103690008a0f5b008b8f5b00030039001000200055
:1036a00001003e000000200007f0a7000000ea0033
:1036b0004f06be004f05be004f04be0000000600ce
:1036c000800078005002be005003be004439de0086
:1036d000f700b200f37f200003016100090032000f
:1036e0000218e10016003a008501720083017300a0
:1036f000838173000008200015003a00400020007c
:103700001300370085017200830173008381730009
:1037100005003a0004a8be0006a8be001000200064
:103720000b0037000201e9000402420085824a00d2
:1037300006034b0087834b000748a300f9ff3200c4
:103740000740a00004a8be0006a8be00200020007c
:10375000800098009200980000000600680447006e
:103760000294be000094be00fc0447008694be0094
:103770008494be0009007800d1ff0700080078009b
:10378000cfff070099007800814f70000b003b00cd
:103790000800be001e0107004f00b1000300370003
:1037a000f3ff2700f2ff2f006110b9004f06be00a3
:1037b0004f05be004f04be000080fa000000060066
:1037c000889fbe00830478000300e0002c003500d1
:1037d00003003c00008270000402710026003200e9
:1037e00036432000c50020008383cf000a00390043
:1037f0000541b1008283cf00070039000541b100c7
:103800008183cf00040039000541b1008083cf00df
:10381000010039000541b10085c353006022b800a2
:10382000120032000a003b008482720061026000d4
:103830008301d1000281d3008180d3000080d300b6
:103840000603e8008743e800f7ff3a000700370067
:103850000000400081804800020149008381490046
:103860000603e9008743e900f9ff3a0088000700f2
:1038700009f0a70003f0a0004f04be0000000600fe
:1038800060001000e080180060011900e08119005c
:10389000d3ff3b00033e2c00f7ff37002800fa005f
:1038a000889fbe008a9fbe008c9fbe0007067800de
:1038b000878669000c003b000304780087047800c9
:1038c00008f0a10009f0a100840f5000858f580076
:1038d000860f5900890f5c00030033000cf0a20032
:1038e00001003a000cf0a1009cff07006400e10019
:1038f0005f003200780147006408e1006100320097
:103900006c014700748557003200be001201be00f2
:103910003a04be001a05be001e039000be0a9000c5
:103920008503530006003d000004fd008104fd00f6
:103930000205fd008305fd008703ea00050378000a
:103940000df8a3000400320060041400e0841c00a1
:1039500060051d00e0851d006022b8007d03200089
:103960000d38e1008006eb000b0039004433dd0028
:10397000f300b200830173003900370084827200c3
:103980000d027800e10664008b85d1000a85d30022
:103990008984d3000884d3008703e900f7ff3b0044
:1039a00008004000898048000a0149008b814900d5
:1039b00004003b0060001000e08018006001190066
:1039c000e08119000358a300090032008d827200c3
:1039d00084827200610260008301d1000281d30001
:1039e0008180d3000080d3000603e8001b0037006d
:1039f0000348a30017003a000600e0001700340057
:103a00000603e9000d00a300000048008180480083
:103a100002014900838149000348a3000f003a00d6
:103a20000600e000090034000603e9000000400041
:103a300081804800020149008381490001003a0069
:103a40000003eb000348a300f5ff32006022b8003a
:103a50000200370084827200618266000c00070059
:103a600003f0a1000cf0a70003f0a0004fff370007
:103a7000640147006408e10002003a000df8a30069
:103a800047ff3a003200be001201be0047ff370078
:103a90001800200057002000080453000d003d00ce
:103aa0000600200097fc2f000740e1001e003400b4
:103ab00084827200610260008301d1000281d30020
:103ac0008180d3000080d3000804e800f8ff3a00aa
:103ad00047002000610460000504740004046400d1
:103ae0000d00320061004000e080480060014900a4
:103af000e081490003b8a500070032000603e80092
:103b00006538e10004003a008301d1000281d3004e
:103b10008180d3000080d300f87f20000830e100ce
:103b200003003500080378006000b8006011b80099
:103b30004433dd00f300b20083017300000006008f
:103b4000889fbe008a9fbe008c9fbe000404b80000
:103b50000506b8008904460060854e000606b800d8
:103b60000a054600e0854e000706b8008b054600b2
:103b7000040eb800890446000a854e00e0854d0019
:103b8000050eb8000a0546008b854e00060eb800eb
:103b90008b0546000416b8000a0546008b854e00ca
:103ba0000516b8008b054600041eb8008b054600bc
:103bb0000800be000a01be004f06be004f05be0051
:103bc0004f04be000000060005ff270005826100cb
:103bd000070032000428e100010032002400050043
:103be0000600070001003a00440005000408050033
:103bf00002000700f9ff3a00140005006f8261001f
:103c000081027000850271008502720000000600ca
:103c1000e48240001078a3000700320064024000f4
:103c20001178a3003400be001401be00040032006d
:103c30000330a700000006003500be001501be00dd
:103c40000330a0000000060080007800000178002a
:103c500020c2bf0066406000e64f500010003a00ee
:103c60000500370023c2bf000018a300fdff3a0083
:103c7000221188008180e800110178000200e00034
:103c8000f8ff3a000000060023c2bf000018a3009e
:103c9000fdff3a000100fb00201188000201e8004e
:103ca000924078000104e000f7ff3a0000000600af
:103cb0000000fa000080eb00601988002d03a900c5
:103cc000c0062000001988002143a9000000eb0075
:103cd00010198800f0322000201988000000eb0045
:103ce00080198800800020004019880085a0a90064
:103cf00095a0a80021e3a8000080fa0000000600bb
:103d00000000fa00f00f2000200e88000070200054
:103d1000400e88000000eb00a00e88004006200046
:103d2000b00e880040062000c00e8800400620002b
:103d3000d00e8800200e8000300e880000f0200099
:103d4000500e880000002800000e88000080fa0055
:103d5000000006000000fa0040168000e000b300fa
:103d60004016880010002000100a88001000200073
:103d7000300a880010002000d00a88008420a900a2
:103d800084a0a90086c0a9009420a80094a0a8003f
:103d900096c0a8000080fa00000006000000fa00ab
:103da00000032000900888000000eb005008880005
:103db0000080eb00700888000080fa000000060018
:103dc0000000fa0000022800200888000000eb0034
:103dd00000088800a06120001008880005e1a80004
:103de0008460a9009460a8000080fa00000006002a
:103df0000000fa002002a900012220009140780072
:103e000090cfb30000c0600020e2b70020a2a9005c
:103e10002062a800b00220004011880021e2a80022
:103e20002342a8000080fa0000000600801f7800ee
:103e30000000fa00d0458000610060000000e00052
:103e400003003200001880004300dd0010458800a8
:103e5000001880000000d100b00e8800b00e800075
:103e6000c00e8800b00e8000d00e880085a0a9008a
:103e70000080fa004f00780000400600809fbe00de
:103e80000200fa008420a900501680000000d10032
:103e900067006000e0458800d04580006200600057
:103ea0000000e00009003200e04580008000400092
:103eb000a08620000080400010007800a00e88003e
:103ec00040002000000f780008003700e045800027
:103ed00080004000a0872000008040001000780093
:103ee000a00e880020002000000f78009e007800bf
:103ef000e0458000808f500011003a00c2c8bf002a
:103f00000040e800c2e8b700c2c8bf00e54f50005b
:103f10000b003a0050088000f04588000000eb00dc
:103f20005008880001468000f04580000080400075
:103f30000000d1000046880010c0b300c2e8b700fe
:103f40000080fa004f00be0000400600809fbe00c7
:103f50000000fa0084a0a900501680000000d100e3
:103f600067006000e0458800d04580006200600086
:103f70000000e00007003200e045800080004000c3
:103f8000a08620000080400010007800a00e88006d
:103f900006003700e045800080004000a087200038
:103fa0000080400010007800a00e88000080fa0019
:103fb0004f00be0000400600809fbe000000fa00d7
:103fc00086c0a900501680000000d1006700600084
:103fd000e0458800d0458000620060000000e000fd
:103fe00007003200e045800080004000a0862000ed
:103ff0000080400010007800a00e88000600370006
:10400000e045800080004000a08720000080400044
:1040100010007800a00e88000080fa004f00be005b
:10402000004006003600f800809fbe00829fbe0060
:10403000849fbe00869fbe00881f78000800fa009b
:10404000004680006101b80080322c00310220005f
:104050009bf9070020458800280e80006140b900c8
:10406000a6f9070020079800310798000800e00033
:1040700007003d0002002000037824002e0090007d
:10408000be009000c9f9070020079800310798008a
:104090002e009000be00900090458800a145880049
:1040a000081880006140b90094f90700008fbe0035
:1040b0000800e00005003d00020020000378240015
:1040c0001e00be00b9f90700008fbe001e00be0032
:1040d000b0458800c145880090458000a14580001a
:1040e00002002000030824000dfa0700b2458000fa
:1040f000c34580000afa070002002c00f3472400a1
:104100003bfa0700020020000312240038fa0700df
:10411000c2f5280023f8230035fa0700704588000f
:1041200081458800d0458000610060000000e0000b
:104130000300320000188000ec0f500002003e0027
:104140000000eb0020458800604580000000e8008a
:10415000604588006145800010022000808f50007b
:1041600003003a000b0007000000eb0060458800e8
:104170008460a9000080fa004f0478004f03be005d
:104180004f02be004f01be004f00be003600f900d6
:10419000004006006400fa0000188000801f7800cc
:1041a000c02f2a00801f78000e007800dcf0070086
:1041b000e48757000e007800a3fe0700204580002a
:1041c000801f780070302a00801f78000e00780071
:1041d000d3f00700e48757000e0078009afe07002e
:1041e000a0c8bf000001fb00704580008145800031
:1041f000821f7800809fbe0020312a00801f780037
:104200000e007800c6f00700e88757000e0078001f
:104210008dfe0700a0002000000f78000e0078003f
:1042200089fe07000080fa00000006006400fa0022
:1042300000188000801f7800c02f2a00801f78009f
:104240000e007800b6f00700e48757000e007800f3
:104250007dfe070020458000801f780070302a0016
:10426000801f78000e007800adf00700e48757004b
:104270000e00780074fe070010458000801f780053
:1042800080322a00801f78000e007800a4f007001a
:10429000e48757000e0078006bfe0700a0002000a6
:1042a000000f78000e00780067fe07000080fa001b
:1042b000000006000200fa0080002000303a88006a
:1042c00044c7bf00f043b20044e7b7004174200088
:1042d0009140780000ceb30000c0600044e7b70012
:1042e0003200200081072000a00920003374200044
:1042f00081497800804978008249780012002000c6
:10430000610420007005200023742000814978009a
:10431000804978008249780043c7bf0002c7b300d4
:104320008240600000c3b30080cf5000faff3a0023
:1043300042c7bf000042b2000004e000fcff3200b0
:104340000116800000102000008070000016880018
:10435000401680000040a000401688009d00070025
:10436000e16820009140780000ceb30000c06000fa
:104370000004a0008ee6b700f168200091407800ac
:1043800000ceb30000c060000014a0008fe6b700ac
:10439000416920009140780000ceb30000c0600069
:1043a0003040b30094e6b700916c20009140780053
:1043b00000ceb30000c060003040b300c9e6b700d3
:1043c0007b0007003afe07007dfe070073fe070032
:1043d0000000eb000046880049fe07005dfe070074
:1043e00083fe0700ba28a8000000eb00000f780049
:1043f000010037001e0fe800703e20009e0f1000e5
:10440000fcff360019003700cac2bf0070406000d0
:104410000004e00014003a0002003700a000200071
:1044200051000700cac2bf00704060000004e000f5
:10443000faff3200d04580000000d10061406000ea
:104440000004a200614060000080fb006100600089
:1044500000014000d1458000d0ff2f0000806000a7
:1044600002007000d045880000000000c3c2bf00f9
:10447000614060000004e000e3ff3a000200370002
:10448000a000200038000700c3c2bf0061406000e8
:104490000004e000faff3200501680000000d10056
:1044a00067006000e0458800d04580006200600041
:1044b0000000e00007003200e0458000800040007e
:1044c000a08620000080400010007800a00e880028
:1044d00006003700e045800080004000a0872000f3
:1044e0000080400010007800a00e88007077200047
:1044f000400e8800ba08a80013e1a80010c0b3005d
:10450000c2e8b7004006200017000700110037007e
:10451000c3c2bf00614060000004e0000c003a002c
:1045200000702000400e88000000eb00a00e880004
:10453000ba08a90002003700a00020000a00070006
:10454000c3c2bf00614060000004e000faff320017
:1045500000000000d0458000610060000000e00025
:10456000ebff3a00c1ff37000400fa001007980083
:10457000070037000000eb00000f78000100370053
:104580001e0fe800301f20009e0f1000fcff3600b9
:104590001e0090000000e900100798001e00900027
:1045a000e10f4000f3ff3a000080fa00000006002f
:1045b0000000fa002174200062042000730520002e
:1045c000824878008348780042c7a8000080fa003b
:1045d000000006000000fa002174200062042000a0
:1045e00073052000824878008348780042c7a900fc
:0845f0000080fa000000060043
:020000040000fa
:0200000401f009
:04000000ffff0000fe
:020000040000fa
:0200000401f009
:04000800ffff0000f6
:020000040000fa
:0200000401f009
:04000c00f8ff0000f9
:020000040000fa
:0200000401f009
:040010007dff000070
:020000040000fa
:0200000401f009
:040014007fff00006a
:020000040000fa
:0200000401f009
:04001800ffff0000e6
:020000040000fa
:0200000401f009
:04001c00ddff000004
:020000040000fa
:100008002c2400002c2400002c2400002c240000a8
:100018002c2400002c2400002c2400002c24000098
:100028002c2400003e1f00002c2400001220000099
:100038002c240000a61f00002c2400002c24000003
:100048002c2400002c2400002c2400002c24000068
:100058002c240000161f00002c2400002c24000073
:100068002c2400002c2400002c2400002c24000048
:100078002c2400002c240000dc1f00002c2400008d
:100088002c2400002c2400002c2400002c24000028
:100098002c2400002c2400002c2400002c24000018
:1000a8002c2400002c2400002c2400002c24000008
:1000b8002c2400002c2400002c2400002c240000f8
:1000c8002c2400002c2400002c2400002c240000e8
:1000d8002c2400002c2400002c2400002c240000d8
:1000e8002c2400002c2400002c2400002c240000c8
:1000f8002c2400002c2400002c2400002c240000b8
:100108002c2400002c2400002c2400002c240000a7
:100118002c2400002c2400002c2400002c24000097
:100128002c2400002c2400002c2400002c24000087
:100138002c2400002c2400002c2400002c24000077
:100148002c2400002c2400002c2400002c24000067
:100158002c2400002c2400002c2400002c24000057
:100168002c2400002c2400002c2400002c24000047
:100178002c2400002c2400002c2400002c24000037
:100188002c2400002c2400002c2400002c24000027
:100198002c2400002c2400002c2400002c24000017
:1001a8002c2400002c2400002c2400002c24000007
:1001b8002c2400002c2400002c2400002c240000f7
:1001c8002c2400002c2400002c2400002c240000e7
:1001d8002c2400002c2400002c2400002c240000d7
:1001e8002c2400002c2400002c2400002c240000c7
:0801f8002c2400002c2400005f
:020000040000fa
:100208002c2400002c2400002c2400002c240000a6
:100218002c2400002c2400002c2400002c24000096
:100228002c2400003e1f00002c2400001220000097
:100238002c240000a61f00002c2400002c24000001
:100248002c2400002c2400002c2400002c24000066
:100258002c240000161f00002c2400002c24000071
:100268002c2400002c2400002c2400002c24000046
:100278002c2400002c240000dc1f00002c2400008b
:100288002c2400002c2400002c2400002c24000026
:100298002c2400002c2400002c2400002c24000016
:1002a8002c2400002c2400002c2400002c24000006
:1002b8002c2400002c2400002c2400002c240000f6
:1002c8002c2400002c2400002c2400002c240000e6
:1002d8002c2400002c2400002c2400002c240000d6
:1002e8002c2400002c2400002c2400002c240000c6
:1002f8002c2400002c2400002c2400002c240000b6
:100308002c2400002c2400002c2400002c240000a5
:100318002c2400002c2400002c2400002c24000095
:100328002c2400002c2400002c2400002c24000085
:100338002c2400002c2400002c2400002c24000075
:100348002c2400002c2400002c2400002c24000065
:100358002c2400002c2400002c2400002c24000055
:100368002c2400002c2400002c2400002c24000045
:100378002c2400002c2400002c2400002c24000035
:100388002c2400002c2400002c2400002c24000025
:100398002c2400002c2400002c2400002c24000015
:1003a8002c2400002c2400002c2400002c24000005
:1003b8002c2400002c2400002c2400002c240000f5
:1003c8002c2400002c2400002c2400002c240000e5
:1003d8002c2400002c2400002c2400002c240000d5
:1003e8002c2400002c2400002c2400002c240000c5
:0803f8002c2400002c2400005d
:020000040000fa
:1045f80041440000432000003a20000025580000f4
:10460800200a00000053000050440000203a000037
:1046180020250000692000000a0000004475000001
:104628007479000020430000796300006c65000085
:10463800203a0000202500002e33000066250000e7
:10464800632000000a00000053650000742d00007c
:10465800506f0000696e0000742000003a200000ce
:0c46680025690000200a0000000000008e
:020000040000fa
:104674008a08000018000000020000000100000089
:104684000000000000000000000000000000000026
:1046940000000000204ed00007250000a208000002
:1046a40018000000000000006a080000200000005c
:1046b40002000000000010000204200004020100b7
:1046c4000810080001200000000000000120100074
:1046d4000801080004020400201002000000000089
:1046e400ba0800001600000000000000d008000016
:1046f400120000000200000001000200000400009b
:104704000800100000000000202b2d0023300000c2
:10471400180900000800000002000000686a6c002c
:10472400747a4c00000000000008000048000000fb
:10473400020000000000000000000000244000000f
:1047440000000000000059004000000000000000cc
:1047540088c34000000000000084d7009741000097
:1047640080e0370079c3410043176e0005b5b500fa
:10477400b8934600f5f93f00e9034f00384d320085
:104784001d30f900487782005a3cbf00737fdd007a
:104794004f157500e608000032000000020000001a
:1047a4004e414e00006e61006e0049004e4600000e
:1047b400696e66000030310032333400353637001c
:1047c400383961006263640065660000303132008c
:1047d400333435003637380039414200434445000c
:1047e400460000004808000022000000020000000b
:1047f40030313200333435003637380039616200e5
:1048040063646500660030003132330034353600ad
:104814003738390041424300444546000000000057
:10482400e208000002000000020000000000000096
:104834002009000002000000020000003000000017
:10484400e408000002000000020000000000000074
:044854000000000060
:020000040000fa
:044858000000fe005e
:00000001FF
