:020000040000fa
:080000000002040000000000f2
:020000040000fa
:100400008f85200080ff2000000188000000000090
:10041000050007000c0007004c0902000000000066
:100420000040da000000fe004440a9000001200066
:100430000000e0000300320000002000a00188005e
:100440004440a8000000060060af2000010020002a
:100450001600370062004000e080480091018800eb
:100460009001ba0062004000e080480091018800dd
:100470009002ba0062004000e08048000002eb00f9
:100480006028e10005003a008301e900070033001d
:10049000038009000059eb00040037006128e100e7
:1004a000010032000082eb00050007009101880086
:1004b0001001ba000200e000e6ff3a00000005006b
:1004c000910188008002780062004000e0804800ce
:1004d0003559ba008301e900080032002559ba00f5
:1004e0008301e900050032000400e000f4ff32005f
:1004f00015d9ba008301e900f1ff3a0000000600b7
:10050000839f68000100e00002003d0060001000d1
:10051000e08018000300e00002003d0060011100cf
:10052000e0811900ab0007004f00e00002003b0033
:1005300060001000e08018000000060003f0a20038
:10054000889fbe008a9fbe008c1f7800b100070004
:10055000b80033006450e1004f0032006420e10035
:100560005200320003826c0007003b000905d000f6
:100570000306d000820f54000c065d000200390013
:100580000200320089017800030678008582550058
:1005900004003d000003fd008103fd008502ea0028
:1005a0008b854200840f720002003b006000100047
:1005b000e08018006011b8000005eb007a28e10027
:1005c0000a00390006007800c75ddd00f707b200b9
:1005d000878075002d003700828171000a01780044
:1005e000610560008180d1000080d3008502e900b0
:1005f000f9ff3b00060440008784480002003b00ee
:1006000060041400e0841c000988a3000700320085
:100610008a81710082817100610164008904d100c6
:100620000884d3008b05e800170037000978a30081
:1006300013003a000b00e000130034008b05e900c2
:100640000804440089844c000a4474000978a3001b
:100650000d003a000b00e000070034008b05e900b4
:100660000804440089844c0001003a000b0020007b
:100670000978a300f7ff32000001eb000200370009
:10068000828171000a0178007a0007000cf0a7004f
:1006900001f0a000700037006420e10002003a0081
:1006a000838f6c00700033000801be000200be00a2
:1006b00069003700f4ff2f00940037000001be00ee
:1006c000ad0007000470a70003f0a10003f8a30029
:1006d00013003a006509b10010003200090035002e
:1006e0006928e10002003500010028000000050033
:1006f00000004000818048008502e900fcff3a00cc
:1007000000000600f88f4200050035008100d1008e
:100710000080d3008502e800fcff3a0000000600dc
:100720008000eb0000000500889fbe008a9fbe008d
:10073000010578000100e0000400350008003c00dd
:100740000000e000200032000500370060001000cb
:10075000e080180002003b0001f02c001a00370076
:100760000004be006011b8006b0920000982cf00b0
:10077000020039000882cf000441b00069425200f3
:100780000e00320008003b008281710061016400ac
:100790008904d1000884d3008b05e8000442e800f6
:1007a000f9ff3a00050037000804440089844c0032
:1007b0008b05e9000442e900fbff3a002d00070029
:1007c0000af0a70001f0a0004f05be004f04be00d4
:1007d000000006006022b800060220000000d000e1
:1007e0008180d2000482d2008582d2000000a00065
:1007f0000202520083825a000300310002024200ca
:1008000083824a000000a1000603e900f3ff3a00da
:10081000000006000004be00570007000003be00f1
:100820000405be000200be0053000700844f75009f
:10083000000006000200be006450e1000500360022
:100840006420e100020036000968a30001003a00bc
:100850000800be000160a0004f0678004f05be00f2
:100860004f04be0000000600f0ff2f00f1ff27003c
:10087000f9ff370081002000618055000b003d002a
:100880000b00200061fe2f000100e1001d0034007c
:1008900082817100610164008904d1000884d30061
:1008a0000000e800faff3a007100200061006400d7
:1008b000030070000200600009003200610444007f
:1008c000e0844c000988a500050032008b05e80093
:1008d0006808e10002003a008904d1000884d300ce
:1008e000f20f20000258e10005003d00c75ddd0069
:1008f000f907b20089807500080078000000060042
:100900000bf827008b00780000000500889fbe00d0
:100910008a9fbe00841f7800beff07004f0078004a
:1009200011003300f0ff2f00838f6c0006003b00a6
:10093000040565000a00a7000800370009f0a600ba
:100940001000200008003700820f5400838f5c00e5
:10095000030039001000200001003e0000002000cc
:1009600009f0a7000000ea004f05be004f04be00da
:100970000000e00000000600c70ade00f107b20038
:10098000f50fb20008003200e1cf42000200320051
:100990000170a00024000500810f700001003200ea
:1009a0000408050044000500810f700002003a00b1
:1009b000140005008502e9000000400081c04800e5
:1009c000fcff3b000170a0002400050080007800bf
:1009d0000001780020c2bf0066406000e64f500072
:1009e00010003a000500370023c2bf000018a30022
:1009f000fdff3a00221188008180e8001101780093
:100a00000200e000f8ff3a000000060023c2bf0029
:100a10000018a300fdff3a000100fb002011880030
:100a20000201e800924078000104e000f7ff3a007c
:100a3000000006000000fa000080eb00601988004a
:100a40002d03a900c0062000001988002143a90039
:100a50000000eb0010198800f032200020198800f7
:100a60000000eb00801988008000200040198800f9
:100a700085a0a90095a0a80021e3a8000080fa00a5
:100a8000000006000000fa00f00f2000200e880091
:100a900000702000400e88000000eb00a00e8800cf
:100aa00040062000b00e880040062000c00e8800de
:100ab00040062000d00e8800200e8000300e8800f6
:100ac00000f02000500e880000002800000e880072
:100ad0000080fa00000006000000fa0040168000c6
:100ae000e000b3004016880010002000100a8800c3
:100af00010002000300a880010002000d00a880072
:100b00008420a90084a0a90086c0a9009420a80080
:100b100094a0a80096c0a8000080fa00000006007b
:100b20000000fa0000032000900888000000eb009d
:100b3000500888000080eb00700888000080fa00f0
:100b4000000006000000fa000002280020088800cb
:100b50000000eb0000088800a06120001008880059
:100b600005e1a8008460a9009460a8000080fa0054
:100b7000000006000000fa002002a9000122200067
:100b80009140780090cfb30000c0600020e2b70031
:100b900020a2a9002062a9000004200040118800c2
:100ba00021e2a8002342a8000080fa00000006000d
:100bb000801f78000000fa00b041800061006000f2
:100bc0000000e00003003200001880004300dd0058
:100bd0006042880085a0a9000080fa004f007800dc
:100be00000400600809fbe000200fa008420a90099
:100bf000501680000000d10067006000c0418800ee
:100c0000b0418000620060000000e0000900320096
:100c1000c041800080004000008020000080400033
:100c200010007800a00e880040002000000f78001f
:100c300008003700c0418000800040000081200093
:100c40000080400010007800a00e880020002000e6
:100c5000000f78009e007800c0418000808f500017
:100c600011003a003ec8bf000040e8003ee8b7006f
:100c70003ec8bf00e54f50000b003a00500880000e
:100c8000d04188000000eb0050088800e14180005e
:100c9000d0418000008040000000d100e041880089
:100ca00010c0b3003ee8b7000080fa004f00be005d
:100cb00000400600809fbe000000fa0084a0a9004a
:100cc000501680000000d10067006000c04188001d
:100cd000b0418000620060000000e00007003200c8
:100ce000c041800080004000008020000080400063
:100cf00010007800a00e880006003700c041800078
:100d0000800040000081200000804000100078003a
:100d1000a00e88000080fa004f00be0000400600d0
:100d2000809fbe000000fa0086c0a9005016800017
:100d30000000d10067006000c0418800b041800021
:100d4000620060000000e00007003200c041800047
:100d500080004000008020000080400010007800eb
:100d6000a00e880006003700c041800080004000cf
:100d7000008120000080400010007800a00e880054
:100d80000080fa004f00be00004006003600f80068
:100d9000809fbe00829fbe00849fbe00869fbe00d3
:100da000889fbe000000fa00e04180006101b800a9
:100db00060342c0031022000d1fd07007042880011
:100dc00061428000704280000080500080428800b4
:100dd000904180006104b800804280006101b90048
:100de0000243b80003c0b9000702780000024200c5
:100df0000990b90000024200840378004139dd0007
:100e00004f30de0000007100cfb8de00cf80de0082
:100e10005041880061418800a04180006104b80011
:100e2000804280006101b9000243b80003c0b900ec
:100e300007027800000242000990b9000002420057
:100e4000840378004139dd004f30de00000071007e
:100e5000cfb8de006101b90030418000414180001f
:100e60000200400083804800104188002141880032
:100e70001041800021418000e00f5000e08f5800b9
:100e800004003d006000b800104188002141880046
:100e90000b0037001241800023418000f0ff270043
:100ea00001002000800f5100818f590004003400a0
:100eb000f0ff270001002000104188002141880038
:100ec000104180002141800030418800414188006c
:100ed0001241800023418000504180006141800028
:100ee00002004000838048007041880081418800f2
:100ef0007041800081418000e00f5000e08f580079
:100f000004003d006000b800704188008141880005
:100f10000b0037007241800083418000f0ff270002
:100f200001002000800f5100818f5900040034001f
:100f3000f0ff2700010020007041880081418800f7
:100f4000200e8000000040006103b8007241800064
:100f5000834180000234b80003b0b9000902780070
:100f6000000242000790b9000002420084047800a9
:100f70004149dd004f40de0000007100cfc8de00b7
:100f8000b00e8800b00e8000c00e8800b00e800049
:100f9000d00e88008460a900b0418000610060002c
:100fa0000000e0000300320000188000ec0f500049
:100fb00004003e000000eb00704288000000eb00df
:100fc00080428800b04280000000e800b042880003
:100fd000b142800010022000808f500003003400d6
:100fe000500007000000eb00b04288000080fa00cb
:100ff0004f04be004f03be004f02be004f01be00b3
:101000004f00be003600f900004006000400fa0060
:10101000008fbe000040eb0052e8b7000040eb003c
:1010200053e8b7000040eb0054e8b7000040eb0085
:1010300055e8b7000300370052c8bf000040e80081
:1010400052e8b70002002000a34724001e00be00a3
:101050003afd0700008fbe006011b8001e00be0000
:1010600094fd07000000e000f3ff3d0002002000b7
:10107000a34724001e00be0031fd0700008fbe0004
:101080000300370053c8bf000040e80053e8b70032
:1010900002002000832c24001e00be0027fd070054
:1010a000008fbe006011b8001e00be0081fd070069
:1010b0000000e000f3ff3d0002002000832c24002c
:1010c0001e00be001efd0700008fbe00030037009b
:1010d00054c8bf000040e80054e8b70002002000f8
:1010e000031224001e00be0014fd0700008fbe0086
:1010f0006011b8001e00be006efd07000000e00099
:10110000f3ff3d0002002000031224001e00be0079
:101110000bfd070069fd070055e8b7000080fa00e5
:10112000000006000000fa0000418000e10f5000be
:1011300021003a00704280000000e00004003c0002
:1011400071428000e0702200808f500017003c0048
:1011500070428000cf80de0073fd0700abff070008
:1011600052c8bf000080fb000003b00020118800bf
:1011700053c8bf000080fb000003b00020118800ae
:1011800054c8bf000080fb000003b000201188009d
:1011900055c8bf000080fb000003b000201188008c
:1011a000e0ae280009fe0700290037008007200074
:1011b000201188002600370000418000e20f500017
:1011c00021003a00704280000000e00004003c0072
:1011d00071428000e0702200808f500017003c00b8
:1011e00010af2800f9fd070080428000cf80de00ac
:1011f0004dfd070085ff070052c8bf000080fb00bf
:101200000003b0002011880053c8bf000080fb001d
:101210000003b0002011880054c8bf000080fb000c
:101220000003b0002011880055c8bf000080fb00fb
:101230000003b0002011880005003700800720005f
:10124000201188000200370030af2800dffd0700c2
:1012500000418000e10f500004003a00004180008e
:101260000000e800004188000900370000418000cc
:10127000e20f500004003a00004180000000e80046
:101280000041880002003700100020000041880063
:101290000080fa00000006000200fa008000200032
:1012a000303a880044c7bf00f043b20044e7b700bb
:1012b000417420009140780000ceb30000c060006f
:1012c00044e7b7003200200081072000a009200079
:1012d0003374200081497800804978008249780081
:1012e00012002000610420007005200023742000fb
:1012f00081497800804978008249780043c7bf005f
:1013000002c7b3008240600000c3b30080cf50002a
:10131000faff3a0042c7bf000042b2000004e000fa
:10132000fcff3200011680000010200000807000d9
:1013300000168800401680000040a000401688007b
:101340009d000700e16820009140780000ceb300c6
:1013500000c060000004a0008ee6b700f168200025
:101360009140780000ceb30000c060000014a000df
:101370008fe6b700416920009140780000ceb300ad
:1013800000c060003040b30094e6b700916c2000cc
:101390009140780000ceb30000c060003040b30040
:1013a000c9e6b7007b000700a2fd0700e5fd0700c6
:1013b000dbfd07000000eb00e0418800b1fd070005
:1013c000c5fd0700ebfd07003628a8000000eb0074
:1013d000000f7800010037001e0fe800703e20006b
:1013e0009e0f1000fcff360019003700cac2bf0074
:1013f000704060000004e00014003a000200370072
:10140000a000200051000700cac2bf007040600069
:101410000004e000faff3200b04180000000d1007b
:10142000614060000004a200614060000080fb0099
:101430006100600000014000b1418000d0ff2f003a
:101440000080600002007000b041880000000000d1
:10145000c3c2bf00614060000004e000e3ff3a0047
:1014600002003700a000200038000700c3c2bf0000
:10147000614060000004e000faff32005016800076
:101480000000d10067006000c0418800b0418000ca
:10149000620060000000e00007003200c0418000f0
:1014a0008000400000802000008040001000780094
:1014b000a00e880006003700c04180008000400078
:1014c000008120000080400010007800a00e8800fd
:1014d00070772000400e88003608a80013e1a800ad
:1014e00010c0b3003ee8b700400620001700070018
:1014f00011003700c3c2bf00614060000004e0007b
:101500000c003a0000702000400e88000000eb0044
:10151000a00e88003608a90002003700a0002000b5
:101520000a000700c3c2bf00614060000004e00081
:10153000faff320000000000b0418000610060004e
:101540000000e000ebff3a00c1ff37000400fa00a2
:1015500010079800070037000000eb00000f78002c
:10156000010037001e0fe800301f20009e0f100002
:10157000fcff36001e0090000000e90010079800f4
:101580001e009000e10f4000f3ff3a000080fa00d7
:10159000000006000000fa00217420006204200010
:1015a00073052000824878008348780042c7a8006d
:1015b0000080fa00000006000000fa0021742000fc
:1015c0006204200073052000824878008348780078
:0c15d00042c7a9000080fa0000000600dd
:020000040000fa
:0200000401f009
:04000000ffff0000fe
:020000040000fa
:0200000401f009
:04000800ffff0000f6
:020000040000fa
:0200000401f009
:04000c00f8ff0000f9
:020000040000fa
:0200000401f009
:040010007dff000070
:020000040000fa
:0200000401f009
:040014007fff00006a
:020000040000fa
:0200000401f009
:04001800ffff0000e6
:020000040000fa
:0200000401f009
:04001c00ddff000004
:020000040000fa
:10000800360b0000360b0000360b0000360b0000e4
:10001800360b0000360b0000360b0000360b0000d4
:10002800360b0000f2050000360b0000c606000083
:10003800360b00005a060000360b0000360b000095
:10004800360b0000360b0000360b0000360b0000a4
:10005800360b0000d8050000360b0000360b0000f8
:10006800360b0000360b0000360b0000360b000084
:10007800360b0000360b000090060000360b00001f
:10008800360b0000360b0000360b0000360b000064
:10009800360b0000360b0000360b0000360b000054
:1000a800360b0000360b0000360b0000360b000044
:1000b800360b0000360b0000360b0000360b000034
:1000c800360b0000360b0000360b0000360b000024
:1000d800360b0000360b0000360b0000360b000014
:1000e800360b0000360b0000360b0000360b000004
:1000f800360b0000360b0000360b0000360b0000f4
:10010800360b0000360b0000360b0000360b0000e3
:10011800360b0000360b0000360b0000360b0000d3
:10012800360b0000360b0000360b0000360b0000c3
:10013800360b0000360b0000360b0000360b0000b3
:10014800360b0000360b0000360b0000360b0000a3
:10015800360b0000360b0000360b0000360b000093
:10016800360b0000360b0000360b0000360b000083
:10017800360b0000360b0000360b0000360b000073
:10018800360b0000360b0000360b0000360b000063
:10019800360b0000360b0000360b0000360b000053
:1001a800360b0000360b0000360b0000360b000043
:1001b800360b0000360b0000360b0000360b000033
:1001c800360b0000360b0000360b0000360b000023
:1001d800360b0000360b0000360b0000360b000013
:1001e800360b0000360b0000360b0000360b000003
:0801f800360b0000360b00007d
:020000040000fa
:10020800360b0000360b0000360b0000360b0000e2
:10021800360b0000360b0000360b0000360b0000d2
:10022800360b0000f2050000360b0000c606000081
:10023800360b00005a060000360b0000360b000093
:10024800360b0000360b0000360b0000360b0000a2
:10025800360b0000d8050000360b0000360b0000f6
:10026800360b0000360b0000360b0000360b000082
:10027800360b0000360b000090060000360b00001d
:10028800360b0000360b0000360b0000360b000062
:10029800360b0000360b0000360b0000360b000052
:1002a800360b0000360b0000360b0000360b000042
:1002b800360b0000360b0000360b0000360b000032
:1002c800360b0000360b0000360b0000360b000022
:1002d800360b0000360b0000360b0000360b000012
:1002e800360b0000360b0000360b0000360b000002
:1002f800360b0000360b0000360b0000360b0000f2
:10030800360b0000360b0000360b0000360b0000e1
:10031800360b0000360b0000360b0000360b0000d1
:10032800360b0000360b0000360b0000360b0000c1
:10033800360b0000360b0000360b0000360b0000b1
:10034800360b0000360b0000360b0000360b0000a1
:10035800360b0000360b0000360b0000360b000091
:10036800360b0000360b0000360b0000360b000081
:10037800360b0000360b0000360b0000360b000071
:10038800360b0000360b0000360b0000360b000061
:10039800360b0000360b0000360b0000360b000051
:1003a800360b0000360b0000360b0000360b000041
:1003b800360b0000360b0000360b0000360b000031
:1003c800360b0000360b0000360b0000360b000021
:1003d800360b0000360b0000360b0000360b000011
:1003e800360b0000360b0000360b0000360b000001
:0803f800360b0000360b00007b
:020000040000fa
:1015dc00202b000000200000000d00000a0000007d
:020000040000fa
:1015ec0020080000160000000200000001000000ae
:1015fc0000000000000000000000000000000000df
:10160c0000000000204ed000070000004c08000035
:10161c000c0000000000000000080000200000008a
:10162c00020000000000100002042000040201006f
:10163c00081008000120000000000000012010002c
:10164c000801080004020400201002000000000041
:10165c00360800001600000000000000000000002a
:020000040000fa
:04166c000000fe007c
:00000001FF
