:020000040000fa
:080000000002040000000000f2
:020000040000fa
:100400000f85200080ff2000000188000000000010
:10041000050007000c0007001e0402000000000099
:100420000040da000000fe004440a9000000200067
:100430000000e0000300320000002000a00188005e
:100440004440a80000000600205b200001002000be
:100450001600370062004000e080480091018800eb
:100460009001ba0062004000e080480091018800dd
:100470009002ba0062004000e08048000002eb00f9
:100480006028e10005003a008301e900070033001d
:10049000038009000059eb00040037006128e100e7
:1004a000010032000082eb00050007009101880086
:1004b0001001ba000200e000e6ff3a00000005006b
:1004c000910188008002780062004000e0804800ce
:1004d0003559ba008301e900080032002559ba00f5
:1004e0008301e900050032000400e000f4ff32005f
:1004f00015d9ba008301e900f1ff3a0000000600b7
:100500000000fa000080eb00601988002d03a900ac
:10051000c0062000001988002143a9000000eb005c
:1005200010198800f0322000201988000000eb002c
:1005300080198800800020004019880085a0a9004b
:1005400095a0a80021e3a8000080fa0000000600a2
:100550000000fa00f00f2000200e8800007020003c
:10056000400e88000000eb00a00e8800400620002e
:10057000b00e880040062000c00e88004006200013
:10058000d00e8800200e8000300e880000f0200081
:10059000500e880000002800000e88000080fa003d
:1005a000000006000000fa0040168000e000b300e2
:1005b0004016880010002000100a8800100020005b
:1005c000300a880010002000d00a88008420a9008a
:1005d00084a0a90086c0a9009420a80094a0a80027
:1005e00096c0a8000080fa00000006000000fa0093
:1005f00000032000900888000000eb0050088800ed
:100600000080eb00700888000080fa0000000600ff
:100610000000fa0000022800200888000000eb001b
:1006200000088800c00920001008880005e1a80023
:100630008460a9009460a8000080fa000000060011
:10064000801f78000000fa00004180006100600017
:100650000000e00007003200001880000000d10018
:10066000b00e8800b00e8000c00e8800b00e800072
:10067000d00e880085a0a9000080fa004f00780005
:1006800000400600809fbe000200fa008420a900fe
:10069000501680000000d100670060001041880003
:1006a00000418000620060000000e00009003200ac
:1006b0001041800080004000008020000080400049
:1006c00010007800a00e880050002000000f780075
:1006d00008003700104180008000400000812000a9
:1006e0000080400010007800a00e8800400020002c
:1006f000000f78009e00780010418000808f50002d
:1007000011003a0028c8bf000040e80028e8b70000
:1007100028c8bf00e64f50000b003a005008800088
:10072000204188000000eb00500888003141800023
:1007300020418000008040000000d100304188004e
:1007400010c0b30028e8b7000080fa004f00be00d8
:1007500000400600809fbe000000fa0084a0a900af
:10076000501680000000d100670060001041880032
:1007700000418000620060000000e00007003200dd
:100780001041800080004000008020000080400078
:1007900010007800a00e880006003700104180008d
:1007a00080004000008120000080400010007800a0
:1007b000a00e88000080fa004f00be000040060036
:1007c000809fbe000000fa0086c0a900501680007d
:1007d0000000d100670060001041880000418000e7
:1007e000620060000000e00007003200104180005d
:1007f0008000400000802000008040001000780051
:10080000a00e8800060037001041800080004000e4
:10081000008120000080400010007800a00e8800b9
:100820000080fa004f00be00004006000000fa0001
:100830008460a9000080fa00004006000200fa006f
:1008400080002000303a880044c7bf00f043b20067
:1008500044e7b700417420009140780000ceb30017
:1008600000c0600044e7b70032002000810720008c
:10087000a009200033742000814978008049780065
:1008800082497800120020006104200070052000d9
:1008900023742000814978008049780082497800db
:1008a00043c7bf0002c7b3008240600000c3b3006b
:1008b00080cf5000faff3a0042c7bf000042b200aa
:1008c0000004e000fcff3200011680000010200050
:1008d0000080700000168800401680000040a000d4
:1008e0004016880096000700e168200091407800db
:1008f00000ceb30000c060000004a0008ee6b70088
:10090000f16820009140780000ceb30000c0600084
:100910000014a0008fe6b7004169200091407800e4
:1009200000ceb30000c060003040b30094e6b700d2
:100930007a000700f2fe070035ff07002bff0700d3
:100940000000eb003041880001ff070015ff0700a1
:100950002028a8000000eb00000f780001003700fd
:100960001e0fe800703e20009e0f1000fcff3600b6
:1009700019003700cac2bf00704060000004e000e8
:1009800014003a0002003700a000200051000700c8
:10099000cac2bf00704060000004e000faff3200ed
:1009a000004180000000d100614060000004a2000e
:1009b000614060000080fb006100600000014000b9
:1009c00001418000d0ff2f00008060000200700015
:1009d0000041880000000000c3c2bf006140600009
:1009e0000004e000e3ff3a0002003700a00020000e
:1009f00038000700c3c2bf00614060000004e0008f
:100a0000faff3200501680000000d100670060003d
:100a10001041880000418000620060000000e0009a
:100a2000070032001041800080004000008020005c
:100a30000080400010007800a00e880006003700fb
:100a400010418000800040000081200000804000b4
:100a500010007800a00e880070772000400e8800fb
:100a60002008a80013e1a80010c0b30028e8b700d0
:100a7000400620001700070011003700c3c2bf0066
:100a8000614060000004e0000c003a0000702000ab
:100a9000400e88000000eb00a00e88002008a9008e
:100aa00002003700a00020000a000700c3c2bf00f8
:100ab000614060000004e000faff32000000000026
:100ac00000418000610060000000e000ebff3a00a0
:100ad000c1ff37000400fa00100798000700370034
:100ae0000000eb00000f7800010037001e0fe80047
:100af000301f20009e0f1000fcff36001e009000eb
:100b00000000e900100798001e009000e10f40006f
:100b1000f3ff3a000080fa00000006000000fa002f
:100b200021742000620420007305200082487800b0
:100b30008348780042c7a8000080fa000000060041
:100b40000000fa00217420006204200073052000d8
:100b5000824878008348780042c7a9000080fa00e4
:040b6000000006008b
:020000040000fa
:0200000401f009
:04000000ffff0000fe
:020000040000fa
:0200000401f009
:04000800ffff0000f6
:020000040000fa
:0200000401f009
:04000c00f8ff0000f9
:020000040000fa
:0200000401f009
:040010007dff000070
:020000040000fa
:0200000401f009
:040014007fff00006a
:020000040000fa
:0200000401f009
:04001800ffff0000e6
:020000040000fa
:0200000401f009
:04001c00ddff000004
:020000040000fa
:10000800f0050000f0050000f0050000f005000014
:10001800f0050000f0050000f0050000f005000004
:10002800f005000042030000f0050000160400007f
:10003800f0050000aa030000f0050000f00500002c
:10004800f0050000f0050000f0050000f0050000d4
:10005800f005000020030000f0050000f005000096
:10006800f0050000f0050000f0050000f0050000b4
:10007800f0050000f0050000e0030000f0050000b6
:10008800f0050000f0050000f0050000f005000094
:10009800f0050000f0050000f0050000f005000084
:1000a800f0050000f0050000f0050000f005000074
:1000b800f0050000f0050000f0050000f005000064
:1000c800f0050000f0050000f0050000f005000054
:1000d800f0050000f0050000f0050000f005000044
:1000e800f0050000f0050000f0050000f005000034
:1000f800f0050000f0050000f0050000f005000024
:10010800f0050000f0050000f0050000f005000013
:10011800f0050000f0050000f0050000f005000003
:10012800f0050000f0050000f0050000f0050000f3
:10013800f0050000f0050000f0050000f0050000e3
:10014800f0050000f0050000f0050000f0050000d3
:10015800f0050000f0050000f0050000f0050000c3
:10016800f0050000f0050000f0050000f0050000b3
:10017800f0050000f0050000f0050000f0050000a3
:10018800f0050000f0050000f0050000f005000093
:10019800f0050000f0050000f0050000f005000083
:1001a800f0050000f0050000f0050000f005000073
:1001b800f0050000f0050000f0050000f005000063
:1001c800f0050000f0050000f0050000f005000053
:1001d800f0050000f0050000f0050000f005000043
:1001e800f0050000f0050000f0050000f005000033
:0801f800f0050000f005000015
:020000040000fa
:10020800f0050000f0050000f0050000f005000012
:10021800f0050000f0050000f0050000f005000002
:10022800f005000042030000f0050000160400007d
:10023800f0050000aa030000f0050000f00500002a
:10024800f0050000f0050000f0050000f0050000d2
:10025800f005000020030000f0050000f005000094
:10026800f0050000f0050000f0050000f0050000b2
:10027800f0050000f0050000e0030000f0050000b4
:10028800f0050000f0050000f0050000f005000092
:10029800f0050000f0050000f0050000f005000082
:1002a800f0050000f0050000f0050000f005000072
:1002b800f0050000f0050000f0050000f005000062
:1002c800f0050000f0050000f0050000f005000052
:1002d800f0050000f0050000f0050000f005000042
:1002e800f0050000f0050000f0050000f005000032
:1002f800f0050000f0050000f0050000f005000022
:10030800f0050000f0050000f0050000f005000011
:10031800f0050000f0050000f0050000f005000001
:10032800f0050000f0050000f0050000f0050000f1
:10033800f0050000f0050000f0050000f0050000e1
:10034800f0050000f0050000f0050000f0050000d1
:10035800f0050000f0050000f0050000f0050000c1
:10036800f0050000f0050000f0050000f0050000b1
:10037800f0050000f0050000f0050000f0050000a1
:10038800f0050000f0050000f0050000f005000091
:10039800f0050000f0050000f0050000f005000081
:1003a800f0050000f0050000f0050000f005000071
:1003b800f0050000f0050000f0050000f005000061
:1003c800f0050000f0050000f0050000f005000051
:1003d800f0050000f0050000f0050000f005000041
:1003e800f0050000f0050000f0050000f005000031
:0803f800f0050000f005000013
:020000040000fa
:100b6400360800001400000002000000000000002d
:100b74000000000000000000000000000000000071
:100b840000204e00d00700004a08000006000000c4
:100b94000000000000080000200000000200000027
:100ba40000001000020420000402010008100800e4
:100bb40001200000000000000120100008010800ce
:100bc40004020400201002000000000020080000bd
:0c0bd400160000000000000000000000ff
:020000040000fa
:040be0000000fe0013
:00000001FF
